{"contracts/Groat.sol":{"Groat":{"abi":[{"inputs":[{"internalType":"uint128","name":"_stake","type":"uint128"},{"internalType":"uint8","name":"_maxPlayers","type":"uint8"}],"stateMutability":"nonpayable","type":"constructor"},{"anonymous":false,"inputs":[{"indexed":false,"internalType":"address","name":"","type":"address"},{"indexed":false,"internalType":"uint8","name":"","type":"uint8"}],"name":"Groated","type":"event"},{"anonymous":false,"inputs":[{"indexed":false,"internalType":"uint8","name":"","type":"uint8"}],"name":"Join","type":"event"},{"anonymous":false,"inputs":[{"indexed":false,"internalType":"uint8","name":"","type":"uint8"}],"name":"Leave","type":"event"},{"anonymous":false,"inputs":[{"indexed":false,"internalType":"address","name":"","type":"address"},{"indexed":false,"internalType":"uint8","name":"","type":"uint8"}],"name":"Winner","type":"event"},{"inputs":[{"internalType":"bool","name":"partialFulfill","type":"bool"}],"name":"depositEth","outputs":[],"stateMutability":"payable","type":"function"},{"inputs":[],"name":"groatIndex","outputs":[{"internalType":"uint8","name":"","type":"uint8"}],"stateMutability":"view","type":"function"},{"inputs":[],"name":"maxPlayers","outputs":[{"internalType":"uint8","name":"","type":"uint8"}],"stateMutability":"view","type":"function"},{"inputs":[],"name":"payout","outputs":[{"internalType":"uint256","name":"","type":"uint256"}],"stateMutability":"view","type":"function"},{"inputs":[{"internalType":"uint8","name":"","type":"uint8"}],"name":"queue","outputs":[{"internalType":"address","name":"","type":"address"}],"stateMutability":"view","type":"function"},{"inputs":[],"name":"queuePtr","outputs":[{"internalType":"uint8","name":"","type":"uint8"}],"stateMutability":"view","type":"function"},{"inputs":[{"internalType":"uint8","name":"amount","type":"uint8"}],"name":"removeEntries","outputs":[{"internalType":"uint8","name":"","type":"uint8"}],"stateMutability":"nonpayable","type":"function"},{"inputs":[],"name":"revealBlockNumber","outputs":[{"internalType":"uint256","name":"","type":"uint256"}],"stateMutability":"view","type":"function"},{"inputs":[],"name":"stake","outputs":[{"internalType":"uint128","name":"","type":"uint128"}],"stateMutability":"view","type":"function"}],"evm":{"bytecode":{"linkReferences":{},"object":"608060405260016000556001600260126101000a81548160ff021916908360ff1602179055503480156200003257600080fd5b5060405162001c0738038062001c0783398181016040528101906200005891906200029f565b6000826fffffffffffffffffffffffffffffffff1611620000b0576040517f08c379a0000000000000000000000000000000000000000000000000000000008152600401620000a79062000347565b60405180910390fd5b60018160ff1611620000f9576040517f08c379a0000000000000000000000000000000000000000000000000000000008152600401620000f090620003b9565b60405180910390fd5b60006001826200010a91906200040a565b60ff16836200011a919062000475565b6fffffffffffffffffffffffffffffffff16146200016f576040517f08c379a00000000000000000000000000000000000000000000000000000000081526004016200016690620004fd565b60405180910390fd5b81600260006101000a8154816fffffffffffffffffffffffffffffffff02191690836fffffffffffffffffffffffffffffffff16021790555080600260106101000a81548160ff021916908360ff160217905550600181620001d291906200040a565b60ff1682620001e291906200051f565b82620001ef919062000557565b6fffffffffffffffffffffffffffffffff166001819055505050620005a2565b600080fd5b60006fffffffffffffffffffffffffffffffff82169050919050565b6200023b8162000214565b81146200024757600080fd5b50565b6000815190506200025b8162000230565b92915050565b600060ff82169050919050565b620002798162000261565b81146200028557600080fd5b50565b60008151905062000299816200026e565b92915050565b60008060408385031215620002b957620002b86200020f565b5b6000620002c9858286016200024a565b9250506020620002dc8582860162000288565b9150509250929050565b600082825260208201905092915050565b7f5374616b65206d757374206265206e6f6e2d7a65726f2e000000000000000000600082015250565b60006200032f601783620002e6565b91506200033c82620002f7565b602082019050919050565b60006020820190508181036000830152620003628162000320565b9050919050565b7f4d617820706c6179657273206d757374206265203e20312e0000000000000000600082015250565b6000620003a1601883620002e6565b9150620003ae8262000369565b602082019050919050565b60006020820190508181036000830152620003d48162000392565b9050919050565b7f4e487b7100000000000000000000000000000000000000000000000000000000600052601160045260246000fd5b6000620004178262000261565b9150620004248362000261565b9250828203905060ff81111562000440576200043f620003db565b5b92915050565b7f4e487b7100000000000000000000000000000000000000000000000000000000600052601260045260246000fd5b6000620004828262000214565b91506200048f8362000214565b925082620004a257620004a162000446565b5b828206905092915050565b7f5374616b652073686f756c642062652064697669646564206576656e6c792e00600082015250565b6000620004e5601f83620002e6565b9150620004f282620004ad565b602082019050919050565b600060208201905081810360008301526200051881620004d6565b9050919050565b60006200052c8262000214565b9150620005398362000214565b9250826200054c576200054b62000446565b5b828204905092915050565b6000620005648262000214565b9150620005718362000214565b925082820190506fffffffffffffffffffffffffffffffff8111156200059c576200059b620003db565b5b92915050565b61165580620005b26000396000f3fe6080604052600436106100865760003560e01c80634c2412a2116100595780634c2412a21461014957806359fe06e01461017457806363bd1d4a1461019f57806378b77a94146101ca578063d69a18761461020757610086565b8063056d9f281461008b5780631eaeda03146100c85780632970ac44146100f35780633a4b66f11461011e575b600080fd5b34801561009757600080fd5b506100b260048036038101906100ad9190610e5c565b610223565b6040516100bf9190610eca565b60405180910390f35b3480156100d457600080fd5b506100dd610256565b6040516100ea9190610efe565b60405180910390f35b3480156100ff57600080fd5b5061010861025c565b6040516101159190610f28565b60405180910390f35b34801561012a57600080fd5b5061013361026f565b6040516101409190610f6e565b60405180910390f35b34801561015557600080fd5b5061015e610291565b60405161016b9190610f28565b60405180910390f35b34801561018057600080fd5b506101896102a4565b6040516101969190610f28565b60405180910390f35b3480156101ab57600080fd5b506101b46102b7565b6040516101c19190610efe565b60405180910390f35b3480156101d657600080fd5b506101f160048036038101906101ec9190610e5c565b6102bd565b6040516101fe9190610f28565b60405180910390f35b610221600480360381019061021c9190610fc1565b61068b565b005b60036020528060005260406000206000915054906101000a900473ffffffffffffffffffffffffffffffffffffffff1681565b60005481565b600260119054906101000a900460ff1681565b600260009054906101000a90046fffffffffffffffffffffffffffffffff1681565b600260109054906101000a900460ff1681565b600260129054906101000a900460ff1681565b60015481565b6000808260ff1611610304576040517f08c379a00000000000000000000000000000000000000000000000000000000081526004016102fb9061104b565b60405180910390fd5b6000600260119054906101000a900460ff169050600260109054906101000a900460ff1660ff168160ff160361036f576040517f08c379a0000000000000000000000000000000000000000000000000000000008152600401610366906110b7565b60405180910390fd5b6000805b8260ff168160ff1610801561038d57508460ff168260ff16105b1561057a573373ffffffffffffffffffffffffffffffffffffffff16600360008360ff1660ff16815260200190815260200160002060009054906101000a900473ffffffffffffffffffffffffffffffffffffffff1673ffffffffffffffffffffffffffffffffffffffff161461040f578061040890611106565b9050610373565b826104199061112f565b92508260ff168160ff16146104ba57600360008460ff1660ff16815260200190815260200160002060009054906101000a900473ffffffffffffffffffffffffffffffffffffffff16600360008360ff1660ff16815260200190815260200160002060006101000a81548173ffffffffffffffffffffffffffffffffffffffff021916908373ffffffffffffffffffffffffffffffffffffffff1602179055505b73dead000000000000000042069420694206942069600360008560ff1660ff16815260200190815260200160002060006101000a81548173ffffffffffffffffffffffffffffffffffffffff021916908373ffffffffffffffffffffffffffffffffffffffff1602179055508061053090611106565b90508161053c90611106565b91507fc5261cb694fa044aa236df31226959a7a2078d4eb090616ae7345a9ee9cfabc08360405161056d9190610f28565b60405180910390a1610373565b82600260116101000a81548160ff021916908360ff16021790555060003373ffffffffffffffffffffffffffffffffffffffff168360ff16600260009054906101000a90046fffffffffffffffffffffffffffffffff166fffffffffffffffffffffffffffffffff166105ed9190611158565b6040516105f9906111cb565b60006040518083038185875af1925050503d8060008114610636576040519150601f19603f3d011682016040523d82523d6000602084013e61063b565b606091505b505090508061067f576040517f08c379a00000000000000000000000000000000000000000000000000000000081526004016106769061122c565b60405180910390fd5b82945050505050919050565b6000544310156106d0576040517f08c379a00000000000000000000000000000000000000000000000000000000081526004016106c7906110b7565b60405180910390fd5b60003490506000816fffffffffffffffffffffffffffffffff161161072a576040517f08c379a00000000000000000000000000000000000000000000000000000000081526004016107219061104b565b60405180910390fd5b6000600260009054906101000a90046fffffffffffffffffffffffffffffffff1682610756919061127b565b6fffffffffffffffffffffffffffffffff16146107a8576040517f08c379a000000000000000000000000000000000000000000000000000000000815260040161079f906112f8565b60405180910390fd5b6000600260119054906101000a900460ff1690506000600260109054906101000a900460ff1690508060ff168260ff16036107e257600091505b6000600260009054906101000a90046fffffffffffffffffffffffffffffffff168461080e9190611318565b90506000838361081e9190611349565b905060008160ff168360ff16106108355781610837565b825b9050868061084a57508260ff168160ff16145b610889576040517f08c379a0000000000000000000000000000000000000000000000000000000008152600401610880906113ca565b60405180910390fd5b60008560ff16036108e7578360ff16446040516020016108a9919061140b565b6040516020818303038152906040528051906020012060001c6108cc9190611426565b600260126101000a81548160ff021916908360ff1602179055505b80856108f39190611457565b945084600260116101000a81548160ff021916908360ff1602179055508360ff168560ff160361093157604b4361092a919061148c565b6000819055505b6109473382876109419190611349565b87610a55565b8260ff168160ff161015610a4c5760003373ffffffffffffffffffffffffffffffffffffffff16600260009054906101000a90046fffffffffffffffffffffffffffffffff166fffffffffffffffffffffffffffffffff1683866109ab9190611349565b60ff166109b89190611158565b6040516109c4906111cb565b60006040518083038185875af1925050503d8060008114610a01576040519150601f19603f3d011682016040523d82523d6000602084013e610a06565b606091505b5050905080610a4a576040517f08c379a0000000000000000000000000000000000000000000000000000000008152600401610a419061150c565b60405180910390fd5b505b50505050505050565b60008282610a639190611349565b60ff1667ffffffffffffffff811115610a7f57610a7e61152c565b5b604051908082528060200260200182016040528015610aad5781602001602082028036833780820191505090505b509050600083905060005b8360ff168260ff161015610bfc57600360008360ff1660ff16815260200190815260200160002060009054906101000a900473ffffffffffffffffffffffffffffffffffffffff16838260ff1681518110610b1657610b1561155b565b5b602002602001019073ffffffffffffffffffffffffffffffffffffffff16908173ffffffffffffffffffffffffffffffffffffffff168152505085600360008460ff1660ff16815260200190815260200160002060006101000a81548173ffffffffffffffffffffffffffffffffffffffff021916908373ffffffffffffffffffffffffffffffffffffffff1602179055507f6f4b46fba5c342fb6b69eb728c76b9f0850713c7f1ee5ba47724a2349858ec7982604051610bd79190610f28565b60405180910390a181610be990611106565b915080610bf590611106565b9050610ab8565b849150600090505b82518160ff161015610e16576000838260ff1681518110610c2857610c2761155b565b5b60200260200101519050600073ffffffffffffffffffffffffffffffffffffffff168173ffffffffffffffffffffffffffffffffffffffff1614158015610caf575073dead00000000000000004206942069420694206973ffffffffffffffffffffffffffffffffffffffff168173ffffffffffffffffffffffffffffffffffffffff1614155b15610df857600260129054906101000a900460ff1660ff168360ff1603610d0e577f653072e8847022386c9de810b576409b500e1d279ae76f90e35b312e1e7574a58184604051610d0192919061158a565b60405180910390a1610df7565b60008173ffffffffffffffffffffffffffffffffffffffff16600154604051610d36906111cb565b60006040518083038185875af1925050503d8060008114610d73576040519150601f19603f3d011682016040523d82523d6000602084013e610d78565b606091505b5050905080610dbc576040517f08c379a0000000000000000000000000000000000000000000000000000000008152600401610db3906115ff565b60405180910390fd5b7fe76b0aa2daa84efde70d6f999e732139a79b72f01fbf08e65857c3e86338e4938285604051610ded92919061158a565b60405180910390a1505b5b82610e0290611106565b925081610e0e90611106565b915050610c04565b505050505050565b600080fd5b600060ff82169050919050565b610e3981610e23565b8114610e4457600080fd5b50565b600081359050610e5681610e30565b92915050565b600060208284031215610e7257610e71610e1e565b5b6000610e8084828501610e47565b91505092915050565b600073ffffffffffffffffffffffffffffffffffffffff82169050919050565b6000610eb482610e89565b9050919050565b610ec481610ea9565b82525050565b6000602082019050610edf6000830184610ebb565b92915050565b6000819050919050565b610ef881610ee5565b82525050565b6000602082019050610f136000830184610eef565b92915050565b610f2281610e23565b82525050565b6000602082019050610f3d6000830184610f19565b92915050565b60006fffffffffffffffffffffffffffffffff82169050919050565b610f6881610f43565b82525050565b6000602082019050610f836000830184610f5f565b92915050565b60008115159050919050565b610f9e81610f89565b8114610fa957600080fd5b50565b600081359050610fbb81610f95565b92915050565b600060208284031215610fd757610fd6610e1e565b5b6000610fe584828501610fac565b91505092915050565b600082825260208201905092915050565b7f4e6565647320746f206265206e6f6e2d7a65726f2e0000000000000000000000600082015250565b6000611035601583610fee565b915061104082610fff565b602082019050919050565b6000602082019050818103600083015261106481611028565b9050919050565b7f47616d6520696e2070726f67726573732e000000000000000000000000000000600082015250565b60006110a1601183610fee565b91506110ac8261106b565b602082019050919050565b600060208201905081810360008301526110d081611094565b9050919050565b7f4e487b7100000000000000000000000000000000000000000000000000000000600052601160045260246000fd5b600061111182610e23565b915060ff8203611124576111236110d7565b5b600182019050919050565b600061113a82610e23565b91506000820361114d5761114c6110d7565b5b600182039050919050565b600061116382610ee5565b915061116e83610ee5565b925082820261117c81610ee5565b91508282048414831517611193576111926110d7565b5b5092915050565b600081905092915050565b50565b60006111b560008361119a565b91506111c0826111a5565b600082019050919050565b60006111d6826111a8565b9150819050919050565b7f5769746864726177616c206661696c65642e0000000000000000000000000000600082015250565b6000611216601283610fee565b9150611221826111e0565b602082019050919050565b6000602082019050818103600083015261124581611209565b9050919050565b7f4e487b7100000000000000000000000000000000000000000000000000000000600052601260045260246000fd5b600061128682610f43565b915061129183610f43565b9250826112a1576112a061124c565b5b828206905092915050565b7f4e6565647320746f206265206d756c7469706c65206f66207374616b652e0000600082015250565b60006112e2601e83610fee565b91506112ed826112ac565b602082019050919050565b60006020820190508181036000830152611311816112d5565b9050919050565b600061132382610f43565b915061132e83610f43565b92508261133e5761133d61124c565b5b828204905092915050565b600061135482610e23565b915061135f83610e23565b9250828203905060ff811115611378576113776110d7565b5b92915050565b7f4578616374206f72646572206e6f74206d65742e000000000000000000000000600082015250565b60006113b4601483610fee565b91506113bf8261137e565b602082019050919050565b600060208201905081810360008301526113e3816113a7565b9050919050565b6000819050919050565b61140561140082610ee5565b6113ea565b82525050565b600061141782846113f4565b60208201915081905092915050565b600061143182610ee5565b915061143c83610ee5565b92508261144c5761144b61124c565b5b828206905092915050565b600061146282610e23565b915061146d83610e23565b9250828201905060ff811115611486576114856110d7565b5b92915050565b600061149782610ee5565b91506114a283610ee5565b92508282019050808211156114ba576114b96110d7565b5b92915050565b7f526566756e64206661696c65642e000000000000000000000000000000000000600082015250565b60006114f6600e83610fee565b9150611501826114c0565b602082019050919050565b60006020820190508181036000830152611525816114e9565b9050919050565b7f4e487b7100000000000000000000000000000000000000000000000000000000600052604160045260246000fd5b7f4e487b7100000000000000000000000000000000000000000000000000000000600052603260045260246000fd5b600060408201905061159f6000830185610ebb565b6115ac6020830184610f19565b9392505050565b7f5472616e73666572206661696c65642e00000000000000000000000000000000600082015250565b60006115e9601083610fee565b91506115f4826115b3565b602082019050919050565b60006020820190508181036000830152611618816115dc565b905091905056fea264697066735822122017b35974d3445341b483c1df0afa405a1945fbf05920408f939b4b7931b9f62f64736f6c63430008110033","opcodes":"PUSH1 0x80 PUSH1 0x40 MSTORE PUSH1 0x1 PUSH1 0x0 SSTORE PUSH1 0x1 PUSH1 0x2 PUSH1 0x12 PUSH2 0x100 EXP DUP2 SLOAD DUP2 PUSH1 0xFF MUL NOT AND SWAP1 DUP4 PUSH1 0xFF AND MUL OR SWAP1 SSTORE POP CALLVALUE DUP1 ISZERO PUSH3 0x32 JUMPI PUSH1 0x0 DUP1 REVERT JUMPDEST POP PUSH1 0x40 MLOAD PUSH3 0x1C07 CODESIZE SUB DUP1 PUSH3 0x1C07 DUP4 CODECOPY DUP2 DUP2 ADD PUSH1 0x40 MSTORE DUP2 ADD SWAP1 PUSH3 0x58 SWAP2 SWAP1 PUSH3 0x29F JUMP JUMPDEST PUSH1 0x0 DUP3 PUSH16 0xFFFFFFFFFFFFFFFFFFFFFFFFFFFFFFFF AND GT PUSH3 0xB0 JUMPI PUSH1 0x40 MLOAD PUSH32 0x8C379A000000000000000000000000000000000000000000000000000000000 DUP2 MSTORE PUSH1 0x4 ADD PUSH3 0xA7 SWAP1 PUSH3 0x347 JUMP JUMPDEST PUSH1 0x40 MLOAD DUP1 SWAP2 SUB SWAP1 REVERT JUMPDEST PUSH1 0x1 DUP2 PUSH1 0xFF AND GT PUSH3 0xF9 JUMPI PUSH1 0x40 MLOAD PUSH32 0x8C379A000000000000000000000000000000000000000000000000000000000 DUP2 MSTORE PUSH1 0x4 ADD PUSH3 0xF0 SWAP1 PUSH3 0x3B9 JUMP JUMPDEST PUSH1 0x40 MLOAD DUP1 SWAP2 SUB SWAP1 REVERT JUMPDEST PUSH1 0x0 PUSH1 0x1 DUP3 PUSH3 0x10A SWAP2 SWAP1 PUSH3 0x40A JUMP JUMPDEST PUSH1 0xFF AND DUP4 PUSH3 0x11A SWAP2 SWAP1 PUSH3 0x475 JUMP JUMPDEST PUSH16 0xFFFFFFFFFFFFFFFFFFFFFFFFFFFFFFFF AND EQ PUSH3 0x16F JUMPI PUSH1 0x40 MLOAD PUSH32 0x8C379A000000000000000000000000000000000000000000000000000000000 DUP2 MSTORE PUSH1 0x4 ADD PUSH3 0x166 SWAP1 PUSH3 0x4FD JUMP JUMPDEST PUSH1 0x40 MLOAD DUP1 SWAP2 SUB SWAP1 REVERT JUMPDEST DUP2 PUSH1 0x2 PUSH1 0x0 PUSH2 0x100 EXP DUP2 SLOAD DUP2 PUSH16 0xFFFFFFFFFFFFFFFFFFFFFFFFFFFFFFFF MUL NOT AND SWAP1 DUP4 PUSH16 0xFFFFFFFFFFFFFFFFFFFFFFFFFFFFFFFF AND MUL OR SWAP1 SSTORE POP DUP1 PUSH1 0x2 PUSH1 0x10 PUSH2 0x100 EXP DUP2 SLOAD DUP2 PUSH1 0xFF MUL NOT AND SWAP1 DUP4 PUSH1 0xFF AND MUL OR SWAP1 SSTORE POP PUSH1 0x1 DUP2 PUSH3 0x1D2 SWAP2 SWAP1 PUSH3 0x40A JUMP JUMPDEST PUSH1 0xFF AND DUP3 PUSH3 0x1E2 SWAP2 SWAP1 PUSH3 0x51F JUMP JUMPDEST DUP3 PUSH3 0x1EF SWAP2 SWAP1 PUSH3 0x557 JUMP JUMPDEST PUSH16 0xFFFFFFFFFFFFFFFFFFFFFFFFFFFFFFFF AND PUSH1 0x1 DUP2 SWAP1 SSTORE POP POP POP PUSH3 0x5A2 JUMP JUMPDEST PUSH1 0x0 DUP1 REVERT JUMPDEST PUSH1 0x0 PUSH16 0xFFFFFFFFFFFFFFFFFFFFFFFFFFFFFFFF DUP3 AND SWAP1 POP SWAP2 SWAP1 POP JUMP JUMPDEST PUSH3 0x23B DUP2 PUSH3 0x214 JUMP JUMPDEST DUP2 EQ PUSH3 0x247 JUMPI PUSH1 0x0 DUP1 REVERT JUMPDEST POP JUMP JUMPDEST PUSH1 0x0 DUP2 MLOAD SWAP1 POP PUSH3 0x25B DUP2 PUSH3 0x230 JUMP JUMPDEST SWAP3 SWAP2 POP POP JUMP JUMPDEST PUSH1 0x0 PUSH1 0xFF DUP3 AND SWAP1 POP SWAP2 SWAP1 POP JUMP JUMPDEST PUSH3 0x279 DUP2 PUSH3 0x261 JUMP JUMPDEST DUP2 EQ PUSH3 0x285 JUMPI PUSH1 0x0 DUP1 REVERT JUMPDEST POP JUMP JUMPDEST PUSH1 0x0 DUP2 MLOAD SWAP1 POP PUSH3 0x299 DUP2 PUSH3 0x26E JUMP JUMPDEST SWAP3 SWAP2 POP POP JUMP JUMPDEST PUSH1 0x0 DUP1 PUSH1 0x40 DUP4 DUP6 SUB SLT ISZERO PUSH3 0x2B9 JUMPI PUSH3 0x2B8 PUSH3 0x20F JUMP JUMPDEST JUMPDEST PUSH1 0x0 PUSH3 0x2C9 DUP6 DUP3 DUP7 ADD PUSH3 0x24A JUMP JUMPDEST SWAP3 POP POP PUSH1 0x20 PUSH3 0x2DC DUP6 DUP3 DUP7 ADD PUSH3 0x288 JUMP JUMPDEST SWAP2 POP POP SWAP3 POP SWAP3 SWAP1 POP JUMP JUMPDEST PUSH1 0x0 DUP3 DUP3 MSTORE PUSH1 0x20 DUP3 ADD SWAP1 POP SWAP3 SWAP2 POP POP JUMP JUMPDEST PUSH32 0x5374616B65206D757374206265206E6F6E2D7A65726F2E000000000000000000 PUSH1 0x0 DUP3 ADD MSTORE POP JUMP JUMPDEST PUSH1 0x0 PUSH3 0x32F PUSH1 0x17 DUP4 PUSH3 0x2E6 JUMP JUMPDEST SWAP2 POP PUSH3 0x33C DUP3 PUSH3 0x2F7 JUMP JUMPDEST PUSH1 0x20 DUP3 ADD SWAP1 POP SWAP2 SWAP1 POP JUMP JUMPDEST PUSH1 0x0 PUSH1 0x20 DUP3 ADD SWAP1 POP DUP2 DUP2 SUB PUSH1 0x0 DUP4 ADD MSTORE PUSH3 0x362 DUP2 PUSH3 0x320 JUMP JUMPDEST SWAP1 POP SWAP2 SWAP1 POP JUMP JUMPDEST PUSH32 0x4D617820706C6179657273206D757374206265203E20312E0000000000000000 PUSH1 0x0 DUP3 ADD MSTORE POP JUMP JUMPDEST PUSH1 0x0 PUSH3 0x3A1 PUSH1 0x18 DUP4 PUSH3 0x2E6 JUMP JUMPDEST SWAP2 POP PUSH3 0x3AE DUP3 PUSH3 0x369 JUMP JUMPDEST PUSH1 0x20 DUP3 ADD SWAP1 POP SWAP2 SWAP1 POP JUMP JUMPDEST PUSH1 0x0 PUSH1 0x20 DUP3 ADD SWAP1 POP DUP2 DUP2 SUB PUSH1 0x0 DUP4 ADD MSTORE PUSH3 0x3D4 DUP2 PUSH3 0x392 JUMP JUMPDEST SWAP1 POP SWAP2 SWAP1 POP JUMP JUMPDEST PUSH32 0x4E487B7100000000000000000000000000000000000000000000000000000000 PUSH1 0x0 MSTORE PUSH1 0x11 PUSH1 0x4 MSTORE PUSH1 0x24 PUSH1 0x0 REVERT JUMPDEST PUSH1 0x0 PUSH3 0x417 DUP3 PUSH3 0x261 JUMP JUMPDEST SWAP2 POP PUSH3 0x424 DUP4 PUSH3 0x261 JUMP JUMPDEST SWAP3 POP DUP3 DUP3 SUB SWAP1 POP PUSH1 0xFF DUP2 GT ISZERO PUSH3 0x440 JUMPI PUSH3 0x43F PUSH3 0x3DB JUMP JUMPDEST JUMPDEST SWAP3 SWAP2 POP POP JUMP JUMPDEST PUSH32 0x4E487B7100000000000000000000000000000000000000000000000000000000 PUSH1 0x0 MSTORE PUSH1 0x12 PUSH1 0x4 MSTORE PUSH1 0x24 PUSH1 0x0 REVERT JUMPDEST PUSH1 0x0 PUSH3 0x482 DUP3 PUSH3 0x214 JUMP JUMPDEST SWAP2 POP PUSH3 0x48F DUP4 PUSH3 0x214 JUMP JUMPDEST SWAP3 POP DUP3 PUSH3 0x4A2 JUMPI PUSH3 0x4A1 PUSH3 0x446 JUMP JUMPDEST JUMPDEST DUP3 DUP3 MOD SWAP1 POP SWAP3 SWAP2 POP POP JUMP JUMPDEST PUSH32 0x5374616B652073686F756C642062652064697669646564206576656E6C792E00 PUSH1 0x0 DUP3 ADD MSTORE POP JUMP JUMPDEST PUSH1 0x0 PUSH3 0x4E5 PUSH1 0x1F DUP4 PUSH3 0x2E6 JUMP JUMPDEST SWAP2 POP PUSH3 0x4F2 DUP3 PUSH3 0x4AD JUMP JUMPDEST PUSH1 0x20 DUP3 ADD SWAP1 POP SWAP2 SWAP1 POP JUMP JUMPDEST PUSH1 0x0 PUSH1 0x20 DUP3 ADD SWAP1 POP DUP2 DUP2 SUB PUSH1 0x0 DUP4 ADD MSTORE PUSH3 0x518 DUP2 PUSH3 0x4D6 JUMP JUMPDEST SWAP1 POP SWAP2 SWAP1 POP JUMP JUMPDEST PUSH1 0x0 PUSH3 0x52C DUP3 PUSH3 0x214 JUMP JUMPDEST SWAP2 POP PUSH3 0x539 DUP4 PUSH3 0x214 JUMP JUMPDEST SWAP3 POP DUP3 PUSH3 0x54C JUMPI PUSH3 0x54B PUSH3 0x446 JUMP JUMPDEST JUMPDEST DUP3 DUP3 DIV SWAP1 POP SWAP3 SWAP2 POP POP JUMP JUMPDEST PUSH1 0x0 PUSH3 0x564 DUP3 PUSH3 0x214 JUMP JUMPDEST SWAP2 POP PUSH3 0x571 DUP4 PUSH3 0x214 JUMP JUMPDEST SWAP3 POP DUP3 DUP3 ADD SWAP1 POP PUSH16 0xFFFFFFFFFFFFFFFFFFFFFFFFFFFFFFFF DUP2 GT ISZERO PUSH3 0x59C JUMPI PUSH3 0x59B PUSH3 0x3DB JUMP JUMPDEST JUMPDEST SWAP3 SWAP2 POP POP JUMP JUMPDEST PUSH2 0x1655 DUP1 PUSH3 0x5B2 PUSH1 0x0 CODECOPY PUSH1 0x0 RETURN INVALID PUSH1 0x80 PUSH1 0x40 MSTORE PUSH1 0x4 CALLDATASIZE LT PUSH2 0x86 JUMPI PUSH1 0x0 CALLDATALOAD PUSH1 0xE0 SHR DUP1 PUSH4 0x4C2412A2 GT PUSH2 0x59 JUMPI DUP1 PUSH4 0x4C2412A2 EQ PUSH2 0x149 JUMPI DUP1 PUSH4 0x59FE06E0 EQ PUSH2 0x174 JUMPI DUP1 PUSH4 0x63BD1D4A EQ PUSH2 0x19F JUMPI DUP1 PUSH4 0x78B77A94 EQ PUSH2 0x1CA JUMPI DUP1 PUSH4 0xD69A1876 EQ PUSH2 0x207 JUMPI PUSH2 0x86 JUMP JUMPDEST DUP1 PUSH4 0x56D9F28 EQ PUSH2 0x8B JUMPI DUP1 PUSH4 0x1EAEDA03 EQ PUSH2 0xC8 JUMPI DUP1 PUSH4 0x2970AC44 EQ PUSH2 0xF3 JUMPI DUP1 PUSH4 0x3A4B66F1 EQ PUSH2 0x11E JUMPI JUMPDEST PUSH1 0x0 DUP1 REVERT JUMPDEST CALLVALUE DUP1 ISZERO PUSH2 0x97 JUMPI PUSH1 0x0 DUP1 REVERT JUMPDEST POP PUSH2 0xB2 PUSH1 0x4 DUP1 CALLDATASIZE SUB DUP2 ADD SWAP1 PUSH2 0xAD SWAP2 SWAP1 PUSH2 0xE5C JUMP JUMPDEST PUSH2 0x223 JUMP JUMPDEST PUSH1 0x40 MLOAD PUSH2 0xBF SWAP2 SWAP1 PUSH2 0xECA JUMP JUMPDEST PUSH1 0x40 MLOAD DUP1 SWAP2 SUB SWAP1 RETURN JUMPDEST CALLVALUE DUP1 ISZERO PUSH2 0xD4 JUMPI PUSH1 0x0 DUP1 REVERT JUMPDEST POP PUSH2 0xDD PUSH2 0x256 JUMP JUMPDEST PUSH1 0x40 MLOAD PUSH2 0xEA SWAP2 SWAP1 PUSH2 0xEFE JUMP JUMPDEST PUSH1 0x40 MLOAD DUP1 SWAP2 SUB SWAP1 RETURN JUMPDEST CALLVALUE DUP1 ISZERO PUSH2 0xFF JUMPI PUSH1 0x0 DUP1 REVERT JUMPDEST POP PUSH2 0x108 PUSH2 0x25C JUMP JUMPDEST PUSH1 0x40 MLOAD PUSH2 0x115 SWAP2 SWAP1 PUSH2 0xF28 JUMP JUMPDEST PUSH1 0x40 MLOAD DUP1 SWAP2 SUB SWAP1 RETURN JUMPDEST CALLVALUE DUP1 ISZERO PUSH2 0x12A JUMPI PUSH1 0x0 DUP1 REVERT JUMPDEST POP PUSH2 0x133 PUSH2 0x26F JUMP JUMPDEST PUSH1 0x40 MLOAD PUSH2 0x140 SWAP2 SWAP1 PUSH2 0xF6E JUMP JUMPDEST PUSH1 0x40 MLOAD DUP1 SWAP2 SUB SWAP1 RETURN JUMPDEST CALLVALUE DUP1 ISZERO PUSH2 0x155 JUMPI PUSH1 0x0 DUP1 REVERT JUMPDEST POP PUSH2 0x15E PUSH2 0x291 JUMP JUMPDEST PUSH1 0x40 MLOAD PUSH2 0x16B SWAP2 SWAP1 PUSH2 0xF28 JUMP JUMPDEST PUSH1 0x40 MLOAD DUP1 SWAP2 SUB SWAP1 RETURN JUMPDEST CALLVALUE DUP1 ISZERO PUSH2 0x180 JUMPI PUSH1 0x0 DUP1 REVERT JUMPDEST POP PUSH2 0x189 PUSH2 0x2A4 JUMP JUMPDEST PUSH1 0x40 MLOAD PUSH2 0x196 SWAP2 SWAP1 PUSH2 0xF28 JUMP JUMPDEST PUSH1 0x40 MLOAD DUP1 SWAP2 SUB SWAP1 RETURN JUMPDEST CALLVALUE DUP1 ISZERO PUSH2 0x1AB JUMPI PUSH1 0x0 DUP1 REVERT JUMPDEST POP PUSH2 0x1B4 PUSH2 0x2B7 JUMP JUMPDEST PUSH1 0x40 MLOAD PUSH2 0x1C1 SWAP2 SWAP1 PUSH2 0xEFE JUMP JUMPDEST PUSH1 0x40 MLOAD DUP1 SWAP2 SUB SWAP1 RETURN JUMPDEST CALLVALUE DUP1 ISZERO PUSH2 0x1D6 JUMPI PUSH1 0x0 DUP1 REVERT JUMPDEST POP PUSH2 0x1F1 PUSH1 0x4 DUP1 CALLDATASIZE SUB DUP2 ADD SWAP1 PUSH2 0x1EC SWAP2 SWAP1 PUSH2 0xE5C JUMP JUMPDEST PUSH2 0x2BD JUMP JUMPDEST PUSH1 0x40 MLOAD PUSH2 0x1FE SWAP2 SWAP1 PUSH2 0xF28 JUMP JUMPDEST PUSH1 0x40 MLOAD DUP1 SWAP2 SUB SWAP1 RETURN JUMPDEST PUSH2 0x221 PUSH1 0x4 DUP1 CALLDATASIZE SUB DUP2 ADD SWAP1 PUSH2 0x21C SWAP2 SWAP1 PUSH2 0xFC1 JUMP JUMPDEST PUSH2 0x68B JUMP JUMPDEST STOP JUMPDEST PUSH1 0x3 PUSH1 0x20 MSTORE DUP1 PUSH1 0x0 MSTORE PUSH1 0x40 PUSH1 0x0 KECCAK256 PUSH1 0x0 SWAP2 POP SLOAD SWAP1 PUSH2 0x100 EXP SWAP1 DIV PUSH20 0xFFFFFFFFFFFFFFFFFFFFFFFFFFFFFFFFFFFFFFFF AND DUP2 JUMP JUMPDEST PUSH1 0x0 SLOAD DUP2 JUMP JUMPDEST PUSH1 0x2 PUSH1 0x11 SWAP1 SLOAD SWAP1 PUSH2 0x100 EXP SWAP1 DIV PUSH1 0xFF AND DUP2 JUMP JUMPDEST PUSH1 0x2 PUSH1 0x0 SWAP1 SLOAD SWAP1 PUSH2 0x100 EXP SWAP1 DIV PUSH16 0xFFFFFFFFFFFFFFFFFFFFFFFFFFFFFFFF AND DUP2 JUMP JUMPDEST PUSH1 0x2 PUSH1 0x10 SWAP1 SLOAD SWAP1 PUSH2 0x100 EXP SWAP1 DIV PUSH1 0xFF AND DUP2 JUMP JUMPDEST PUSH1 0x2 PUSH1 0x12 SWAP1 SLOAD SWAP1 PUSH2 0x100 EXP SWAP1 DIV PUSH1 0xFF AND DUP2 JUMP JUMPDEST PUSH1 0x1 SLOAD DUP2 JUMP JUMPDEST PUSH1 0x0 DUP1 DUP3 PUSH1 0xFF AND GT PUSH2 0x304 JUMPI PUSH1 0x40 MLOAD PUSH32 0x8C379A000000000000000000000000000000000000000000000000000000000 DUP2 MSTORE PUSH1 0x4 ADD PUSH2 0x2FB SWAP1 PUSH2 0x104B JUMP JUMPDEST PUSH1 0x40 MLOAD DUP1 SWAP2 SUB SWAP1 REVERT JUMPDEST PUSH1 0x0 PUSH1 0x2 PUSH1 0x11 SWAP1 SLOAD SWAP1 PUSH2 0x100 EXP SWAP1 DIV PUSH1 0xFF AND SWAP1 POP PUSH1 0x2 PUSH1 0x10 SWAP1 SLOAD SWAP1 PUSH2 0x100 EXP SWAP1 DIV PUSH1 0xFF AND PUSH1 0xFF AND DUP2 PUSH1 0xFF AND SUB PUSH2 0x36F JUMPI PUSH1 0x40 MLOAD PUSH32 0x8C379A000000000000000000000000000000000000000000000000000000000 DUP2 MSTORE PUSH1 0x4 ADD PUSH2 0x366 SWAP1 PUSH2 0x10B7 JUMP JUMPDEST PUSH1 0x40 MLOAD DUP1 SWAP2 SUB SWAP1 REVERT JUMPDEST PUSH1 0x0 DUP1 JUMPDEST DUP3 PUSH1 0xFF AND DUP2 PUSH1 0xFF AND LT DUP1 ISZERO PUSH2 0x38D JUMPI POP DUP5 PUSH1 0xFF AND DUP3 PUSH1 0xFF AND LT JUMPDEST ISZERO PUSH2 0x57A JUMPI CALLER PUSH20 0xFFFFFFFFFFFFFFFFFFFFFFFFFFFFFFFFFFFFFFFF AND PUSH1 0x3 PUSH1 0x0 DUP4 PUSH1 0xFF AND PUSH1 0xFF AND DUP2 MSTORE PUSH1 0x20 ADD SWAP1 DUP2 MSTORE PUSH1 0x20 ADD PUSH1 0x0 KECCAK256 PUSH1 0x0 SWAP1 SLOAD SWAP1 PUSH2 0x100 EXP SWAP1 DIV PUSH20 0xFFFFFFFFFFFFFFFFFFFFFFFFFFFFFFFFFFFFFFFF AND PUSH20 0xFFFFFFFFFFFFFFFFFFFFFFFFFFFFFFFFFFFFFFFF AND EQ PUSH2 0x40F JUMPI DUP1 PUSH2 0x408 SWAP1 PUSH2 0x1106 JUMP JUMPDEST SWAP1 POP PUSH2 0x373 JUMP JUMPDEST DUP3 PUSH2 0x419 SWAP1 PUSH2 0x112F JUMP JUMPDEST SWAP3 POP DUP3 PUSH1 0xFF AND DUP2 PUSH1 0xFF AND EQ PUSH2 0x4BA JUMPI PUSH1 0x3 PUSH1 0x0 DUP5 PUSH1 0xFF AND PUSH1 0xFF AND DUP2 MSTORE PUSH1 0x20 ADD SWAP1 DUP2 MSTORE PUSH1 0x20 ADD PUSH1 0x0 KECCAK256 PUSH1 0x0 SWAP1 SLOAD SWAP1 PUSH2 0x100 EXP SWAP1 DIV PUSH20 0xFFFFFFFFFFFFFFFFFFFFFFFFFFFFFFFFFFFFFFFF AND PUSH1 0x3 PUSH1 0x0 DUP4 PUSH1 0xFF AND PUSH1 0xFF AND DUP2 MSTORE PUSH1 0x20 ADD SWAP1 DUP2 MSTORE PUSH1 0x20 ADD PUSH1 0x0 KECCAK256 PUSH1 0x0 PUSH2 0x100 EXP DUP2 SLOAD DUP2 PUSH20 0xFFFFFFFFFFFFFFFFFFFFFFFFFFFFFFFFFFFFFFFF MUL NOT AND SWAP1 DUP4 PUSH20 0xFFFFFFFFFFFFFFFFFFFFFFFFFFFFFFFFFFFFFFFF AND MUL OR SWAP1 SSTORE POP JUMPDEST PUSH20 0xDEAD000000000000000042069420694206942069 PUSH1 0x3 PUSH1 0x0 DUP6 PUSH1 0xFF AND PUSH1 0xFF AND DUP2 MSTORE PUSH1 0x20 ADD SWAP1 DUP2 MSTORE PUSH1 0x20 ADD PUSH1 0x0 KECCAK256 PUSH1 0x0 PUSH2 0x100 EXP DUP2 SLOAD DUP2 PUSH20 0xFFFFFFFFFFFFFFFFFFFFFFFFFFFFFFFFFFFFFFFF MUL NOT AND SWAP1 DUP4 PUSH20 0xFFFFFFFFFFFFFFFFFFFFFFFFFFFFFFFFFFFFFFFF AND MUL OR SWAP1 SSTORE POP DUP1 PUSH2 0x530 SWAP1 PUSH2 0x1106 JUMP JUMPDEST SWAP1 POP DUP2 PUSH2 0x53C SWAP1 PUSH2 0x1106 JUMP JUMPDEST SWAP2 POP PUSH32 0xC5261CB694FA044AA236DF31226959A7A2078D4EB090616AE7345A9EE9CFABC0 DUP4 PUSH1 0x40 MLOAD PUSH2 0x56D SWAP2 SWAP1 PUSH2 0xF28 JUMP JUMPDEST PUSH1 0x40 MLOAD DUP1 SWAP2 SUB SWAP1 LOG1 PUSH2 0x373 JUMP JUMPDEST DUP3 PUSH1 0x2 PUSH1 0x11 PUSH2 0x100 EXP DUP2 SLOAD DUP2 PUSH1 0xFF MUL NOT AND SWAP1 DUP4 PUSH1 0xFF AND MUL OR SWAP1 SSTORE POP PUSH1 0x0 CALLER PUSH20 0xFFFFFFFFFFFFFFFFFFFFFFFFFFFFFFFFFFFFFFFF AND DUP4 PUSH1 0xFF AND PUSH1 0x2 PUSH1 0x0 SWAP1 SLOAD SWAP1 PUSH2 0x100 EXP SWAP1 DIV PUSH16 0xFFFFFFFFFFFFFFFFFFFFFFFFFFFFFFFF AND PUSH16 0xFFFFFFFFFFFFFFFFFFFFFFFFFFFFFFFF AND PUSH2 0x5ED SWAP2 SWAP1 PUSH2 0x1158 JUMP JUMPDEST PUSH1 0x40 MLOAD PUSH2 0x5F9 SWAP1 PUSH2 0x11CB JUMP JUMPDEST PUSH1 0x0 PUSH1 0x40 MLOAD DUP1 DUP4 SUB DUP2 DUP6 DUP8 GAS CALL SWAP3 POP POP POP RETURNDATASIZE DUP1 PUSH1 0x0 DUP2 EQ PUSH2 0x636 JUMPI PUSH1 0x40 MLOAD SWAP2 POP PUSH1 0x1F NOT PUSH1 0x3F RETURNDATASIZE ADD AND DUP3 ADD PUSH1 0x40 MSTORE RETURNDATASIZE DUP3 MSTORE RETURNDATASIZE PUSH1 0x0 PUSH1 0x20 DUP5 ADD RETURNDATACOPY PUSH2 0x63B JUMP JUMPDEST PUSH1 0x60 SWAP2 POP JUMPDEST POP POP SWAP1 POP DUP1 PUSH2 0x67F JUMPI PUSH1 0x40 MLOAD PUSH32 0x8C379A000000000000000000000000000000000000000000000000000000000 DUP2 MSTORE PUSH1 0x4 ADD PUSH2 0x676 SWAP1 PUSH2 0x122C JUMP JUMPDEST PUSH1 0x40 MLOAD DUP1 SWAP2 SUB SWAP1 REVERT JUMPDEST DUP3 SWAP5 POP POP POP POP POP SWAP2 SWAP1 POP JUMP JUMPDEST PUSH1 0x0 SLOAD NUMBER LT ISZERO PUSH2 0x6D0 JUMPI PUSH1 0x40 MLOAD PUSH32 0x8C379A000000000000000000000000000000000000000000000000000000000 DUP2 MSTORE PUSH1 0x4 ADD PUSH2 0x6C7 SWAP1 PUSH2 0x10B7 JUMP JUMPDEST PUSH1 0x40 MLOAD DUP1 SWAP2 SUB SWAP1 REVERT JUMPDEST PUSH1 0x0 CALLVALUE SWAP1 POP PUSH1 0x0 DUP2 PUSH16 0xFFFFFFFFFFFFFFFFFFFFFFFFFFFFFFFF AND GT PUSH2 0x72A JUMPI PUSH1 0x40 MLOAD PUSH32 0x8C379A000000000000000000000000000000000000000000000000000000000 DUP2 MSTORE PUSH1 0x4 ADD PUSH2 0x721 SWAP1 PUSH2 0x104B JUMP JUMPDEST PUSH1 0x40 MLOAD DUP1 SWAP2 SUB SWAP1 REVERT JUMPDEST PUSH1 0x0 PUSH1 0x2 PUSH1 0x0 SWAP1 SLOAD SWAP1 PUSH2 0x100 EXP SWAP1 DIV PUSH16 0xFFFFFFFFFFFFFFFFFFFFFFFFFFFFFFFF AND DUP3 PUSH2 0x756 SWAP2 SWAP1 PUSH2 0x127B JUMP JUMPDEST PUSH16 0xFFFFFFFFFFFFFFFFFFFFFFFFFFFFFFFF AND EQ PUSH2 0x7A8 JUMPI PUSH1 0x40 MLOAD PUSH32 0x8C379A000000000000000000000000000000000000000000000000000000000 DUP2 MSTORE PUSH1 0x4 ADD PUSH2 0x79F SWAP1 PUSH2 0x12F8 JUMP JUMPDEST PUSH1 0x40 MLOAD DUP1 SWAP2 SUB SWAP1 REVERT JUMPDEST PUSH1 0x0 PUSH1 0x2 PUSH1 0x11 SWAP1 SLOAD SWAP1 PUSH2 0x100 EXP SWAP1 DIV PUSH1 0xFF AND SWAP1 POP PUSH1 0x0 PUSH1 0x2 PUSH1 0x10 SWAP1 SLOAD SWAP1 PUSH2 0x100 EXP SWAP1 DIV PUSH1 0xFF AND SWAP1 POP DUP1 PUSH1 0xFF AND DUP3 PUSH1 0xFF AND SUB PUSH2 0x7E2 JUMPI PUSH1 0x0 SWAP2 POP JUMPDEST PUSH1 0x0 PUSH1 0x2 PUSH1 0x0 SWAP1 SLOAD SWAP1 PUSH2 0x100 EXP SWAP1 DIV PUSH16 0xFFFFFFFFFFFFFFFFFFFFFFFFFFFFFFFF AND DUP5 PUSH2 0x80E SWAP2 SWAP1 PUSH2 0x1318 JUMP JUMPDEST SWAP1 POP PUSH1 0x0 DUP4 DUP4 PUSH2 0x81E SWAP2 SWAP1 PUSH2 0x1349 JUMP JUMPDEST SWAP1 POP PUSH1 0x0 DUP2 PUSH1 0xFF AND DUP4 PUSH1 0xFF AND LT PUSH2 0x835 JUMPI DUP2 PUSH2 0x837 JUMP JUMPDEST DUP3 JUMPDEST SWAP1 POP DUP7 DUP1 PUSH2 0x84A JUMPI POP DUP3 PUSH1 0xFF AND DUP2 PUSH1 0xFF AND EQ JUMPDEST PUSH2 0x889 JUMPI PUSH1 0x40 MLOAD PUSH32 0x8C379A000000000000000000000000000000000000000000000000000000000 DUP2 MSTORE PUSH1 0x4 ADD PUSH2 0x880 SWAP1 PUSH2 0x13CA JUMP JUMPDEST PUSH1 0x40 MLOAD DUP1 SWAP2 SUB SWAP1 REVERT JUMPDEST PUSH1 0x0 DUP6 PUSH1 0xFF AND SUB PUSH2 0x8E7 JUMPI DUP4 PUSH1 0xFF AND DIFFICULTY PUSH1 0x40 MLOAD PUSH1 0x20 ADD PUSH2 0x8A9 SWAP2 SWAP1 PUSH2 0x140B JUMP JUMPDEST PUSH1 0x40 MLOAD PUSH1 0x20 DUP2 DUP4 SUB SUB DUP2 MSTORE SWAP1 PUSH1 0x40 MSTORE DUP1 MLOAD SWAP1 PUSH1 0x20 ADD KECCAK256 PUSH1 0x0 SHR PUSH2 0x8CC SWAP2 SWAP1 PUSH2 0x1426 JUMP JUMPDEST PUSH1 0x2 PUSH1 0x12 PUSH2 0x100 EXP DUP2 SLOAD DUP2 PUSH1 0xFF MUL NOT AND SWAP1 DUP4 PUSH1 0xFF AND MUL OR SWAP1 SSTORE POP JUMPDEST DUP1 DUP6 PUSH2 0x8F3 SWAP2 SWAP1 PUSH2 0x1457 JUMP JUMPDEST SWAP5 POP DUP5 PUSH1 0x2 PUSH1 0x11 PUSH2 0x100 EXP DUP2 SLOAD DUP2 PUSH1 0xFF MUL NOT AND SWAP1 DUP4 PUSH1 0xFF AND MUL OR SWAP1 SSTORE POP DUP4 PUSH1 0xFF AND DUP6 PUSH1 0xFF AND SUB PUSH2 0x931 JUMPI PUSH1 0x4B NUMBER PUSH2 0x92A SWAP2 SWAP1 PUSH2 0x148C JUMP JUMPDEST PUSH1 0x0 DUP2 SWAP1 SSTORE POP JUMPDEST PUSH2 0x947 CALLER DUP3 DUP8 PUSH2 0x941 SWAP2 SWAP1 PUSH2 0x1349 JUMP JUMPDEST DUP8 PUSH2 0xA55 JUMP JUMPDEST DUP3 PUSH1 0xFF AND DUP2 PUSH1 0xFF AND LT ISZERO PUSH2 0xA4C JUMPI PUSH1 0x0 CALLER PUSH20 0xFFFFFFFFFFFFFFFFFFFFFFFFFFFFFFFFFFFFFFFF AND PUSH1 0x2 PUSH1 0x0 SWAP1 SLOAD SWAP1 PUSH2 0x100 EXP SWAP1 DIV PUSH16 0xFFFFFFFFFFFFFFFFFFFFFFFFFFFFFFFF AND PUSH16 0xFFFFFFFFFFFFFFFFFFFFFFFFFFFFFFFF AND DUP4 DUP7 PUSH2 0x9AB SWAP2 SWAP1 PUSH2 0x1349 JUMP JUMPDEST PUSH1 0xFF AND PUSH2 0x9B8 SWAP2 SWAP1 PUSH2 0x1158 JUMP JUMPDEST PUSH1 0x40 MLOAD PUSH2 0x9C4 SWAP1 PUSH2 0x11CB JUMP JUMPDEST PUSH1 0x0 PUSH1 0x40 MLOAD DUP1 DUP4 SUB DUP2 DUP6 DUP8 GAS CALL SWAP3 POP POP POP RETURNDATASIZE DUP1 PUSH1 0x0 DUP2 EQ PUSH2 0xA01 JUMPI PUSH1 0x40 MLOAD SWAP2 POP PUSH1 0x1F NOT PUSH1 0x3F RETURNDATASIZE ADD AND DUP3 ADD PUSH1 0x40 MSTORE RETURNDATASIZE DUP3 MSTORE RETURNDATASIZE PUSH1 0x0 PUSH1 0x20 DUP5 ADD RETURNDATACOPY PUSH2 0xA06 JUMP JUMPDEST PUSH1 0x60 SWAP2 POP JUMPDEST POP POP SWAP1 POP DUP1 PUSH2 0xA4A JUMPI PUSH1 0x40 MLOAD PUSH32 0x8C379A000000000000000000000000000000000000000000000000000000000 DUP2 MSTORE PUSH1 0x4 ADD PUSH2 0xA41 SWAP1 PUSH2 0x150C JUMP JUMPDEST PUSH1 0x40 MLOAD DUP1 SWAP2 SUB SWAP1 REVERT JUMPDEST POP JUMPDEST POP POP POP POP POP POP POP JUMP JUMPDEST PUSH1 0x0 DUP3 DUP3 PUSH2 0xA63 SWAP2 SWAP1 PUSH2 0x1349 JUMP JUMPDEST PUSH1 0xFF AND PUSH8 0xFFFFFFFFFFFFFFFF DUP2 GT ISZERO PUSH2 0xA7F JUMPI PUSH2 0xA7E PUSH2 0x152C JUMP JUMPDEST JUMPDEST PUSH1 0x40 MLOAD SWAP1 DUP1 DUP3 MSTORE DUP1 PUSH1 0x20 MUL PUSH1 0x20 ADD DUP3 ADD PUSH1 0x40 MSTORE DUP1 ISZERO PUSH2 0xAAD JUMPI DUP2 PUSH1 0x20 ADD PUSH1 0x20 DUP3 MUL DUP1 CALLDATASIZE DUP4 CALLDATACOPY DUP1 DUP3 ADD SWAP2 POP POP SWAP1 POP JUMPDEST POP SWAP1 POP PUSH1 0x0 DUP4 SWAP1 POP PUSH1 0x0 JUMPDEST DUP4 PUSH1 0xFF AND DUP3 PUSH1 0xFF AND LT ISZERO PUSH2 0xBFC JUMPI PUSH1 0x3 PUSH1 0x0 DUP4 PUSH1 0xFF AND PUSH1 0xFF AND DUP2 MSTORE PUSH1 0x20 ADD SWAP1 DUP2 MSTORE PUSH1 0x20 ADD PUSH1 0x0 KECCAK256 PUSH1 0x0 SWAP1 SLOAD SWAP1 PUSH2 0x100 EXP SWAP1 DIV PUSH20 0xFFFFFFFFFFFFFFFFFFFFFFFFFFFFFFFFFFFFFFFF AND DUP4 DUP3 PUSH1 0xFF AND DUP2 MLOAD DUP2 LT PUSH2 0xB16 JUMPI PUSH2 0xB15 PUSH2 0x155B JUMP JUMPDEST JUMPDEST PUSH1 0x20 MUL PUSH1 0x20 ADD ADD SWAP1 PUSH20 0xFFFFFFFFFFFFFFFFFFFFFFFFFFFFFFFFFFFFFFFF AND SWAP1 DUP2 PUSH20 0xFFFFFFFFFFFFFFFFFFFFFFFFFFFFFFFFFFFFFFFF AND DUP2 MSTORE POP POP DUP6 PUSH1 0x3 PUSH1 0x0 DUP5 PUSH1 0xFF AND PUSH1 0xFF AND DUP2 MSTORE PUSH1 0x20 ADD SWAP1 DUP2 MSTORE PUSH1 0x20 ADD PUSH1 0x0 KECCAK256 PUSH1 0x0 PUSH2 0x100 EXP DUP2 SLOAD DUP2 PUSH20 0xFFFFFFFFFFFFFFFFFFFFFFFFFFFFFFFFFFFFFFFF MUL NOT AND SWAP1 DUP4 PUSH20 0xFFFFFFFFFFFFFFFFFFFFFFFFFFFFFFFFFFFFFFFF AND MUL OR SWAP1 SSTORE POP PUSH32 0x6F4B46FBA5C342FB6B69EB728C76B9F0850713C7F1EE5BA47724A2349858EC79 DUP3 PUSH1 0x40 MLOAD PUSH2 0xBD7 SWAP2 SWAP1 PUSH2 0xF28 JUMP JUMPDEST PUSH1 0x40 MLOAD DUP1 SWAP2 SUB SWAP1 LOG1 DUP2 PUSH2 0xBE9 SWAP1 PUSH2 0x1106 JUMP JUMPDEST SWAP2 POP DUP1 PUSH2 0xBF5 SWAP1 PUSH2 0x1106 JUMP JUMPDEST SWAP1 POP PUSH2 0xAB8 JUMP JUMPDEST DUP5 SWAP2 POP PUSH1 0x0 SWAP1 POP JUMPDEST DUP3 MLOAD DUP2 PUSH1 0xFF AND LT ISZERO PUSH2 0xE16 JUMPI PUSH1 0x0 DUP4 DUP3 PUSH1 0xFF AND DUP2 MLOAD DUP2 LT PUSH2 0xC28 JUMPI PUSH2 0xC27 PUSH2 0x155B JUMP JUMPDEST JUMPDEST PUSH1 0x20 MUL PUSH1 0x20 ADD ADD MLOAD SWAP1 POP PUSH1 0x0 PUSH20 0xFFFFFFFFFFFFFFFFFFFFFFFFFFFFFFFFFFFFFFFF AND DUP2 PUSH20 0xFFFFFFFFFFFFFFFFFFFFFFFFFFFFFFFFFFFFFFFF AND EQ ISZERO DUP1 ISZERO PUSH2 0xCAF JUMPI POP PUSH20 0xDEAD000000000000000042069420694206942069 PUSH20 0xFFFFFFFFFFFFFFFFFFFFFFFFFFFFFFFFFFFFFFFF AND DUP2 PUSH20 0xFFFFFFFFFFFFFFFFFFFFFFFFFFFFFFFFFFFFFFFF AND EQ ISZERO JUMPDEST ISZERO PUSH2 0xDF8 JUMPI PUSH1 0x2 PUSH1 0x12 SWAP1 SLOAD SWAP1 PUSH2 0x100 EXP SWAP1 DIV PUSH1 0xFF AND PUSH1 0xFF AND DUP4 PUSH1 0xFF AND SUB PUSH2 0xD0E JUMPI PUSH32 0x653072E8847022386C9DE810B576409B500E1D279AE76F90E35B312E1E7574A5 DUP2 DUP5 PUSH1 0x40 MLOAD PUSH2 0xD01 SWAP3 SWAP2 SWAP1 PUSH2 0x158A JUMP JUMPDEST PUSH1 0x40 MLOAD DUP1 SWAP2 SUB SWAP1 LOG1 PUSH2 0xDF7 JUMP JUMPDEST PUSH1 0x0 DUP2 PUSH20 0xFFFFFFFFFFFFFFFFFFFFFFFFFFFFFFFFFFFFFFFF AND PUSH1 0x1 SLOAD PUSH1 0x40 MLOAD PUSH2 0xD36 SWAP1 PUSH2 0x11CB JUMP JUMPDEST PUSH1 0x0 PUSH1 0x40 MLOAD DUP1 DUP4 SUB DUP2 DUP6 DUP8 GAS CALL SWAP3 POP POP POP RETURNDATASIZE DUP1 PUSH1 0x0 DUP2 EQ PUSH2 0xD73 JUMPI PUSH1 0x40 MLOAD SWAP2 POP PUSH1 0x1F NOT PUSH1 0x3F RETURNDATASIZE ADD AND DUP3 ADD PUSH1 0x40 MSTORE RETURNDATASIZE DUP3 MSTORE RETURNDATASIZE PUSH1 0x0 PUSH1 0x20 DUP5 ADD RETURNDATACOPY PUSH2 0xD78 JUMP JUMPDEST PUSH1 0x60 SWAP2 POP JUMPDEST POP POP SWAP1 POP DUP1 PUSH2 0xDBC JUMPI PUSH1 0x40 MLOAD PUSH32 0x8C379A000000000000000000000000000000000000000000000000000000000 DUP2 MSTORE PUSH1 0x4 ADD PUSH2 0xDB3 SWAP1 PUSH2 0x15FF JUMP JUMPDEST PUSH1 0x40 MLOAD DUP1 SWAP2 SUB SWAP1 REVERT JUMPDEST PUSH32 0xE76B0AA2DAA84EFDE70D6F999E732139A79B72F01FBF08E65857C3E86338E493 DUP3 DUP6 PUSH1 0x40 MLOAD PUSH2 0xDED SWAP3 SWAP2 SWAP1 PUSH2 0x158A JUMP JUMPDEST PUSH1 0x40 MLOAD DUP1 SWAP2 SUB SWAP1 LOG1 POP JUMPDEST JUMPDEST DUP3 PUSH2 0xE02 SWAP1 PUSH2 0x1106 JUMP JUMPDEST SWAP3 POP DUP2 PUSH2 0xE0E SWAP1 PUSH2 0x1106 JUMP JUMPDEST SWAP2 POP POP PUSH2 0xC04 JUMP JUMPDEST POP POP POP POP POP POP JUMP JUMPDEST PUSH1 0x0 DUP1 REVERT JUMPDEST PUSH1 0x0 PUSH1 0xFF DUP3 AND SWAP1 POP SWAP2 SWAP1 POP JUMP JUMPDEST PUSH2 0xE39 DUP2 PUSH2 0xE23 JUMP JUMPDEST DUP2 EQ PUSH2 0xE44 JUMPI PUSH1 0x0 DUP1 REVERT JUMPDEST POP JUMP JUMPDEST PUSH1 0x0 DUP2 CALLDATALOAD SWAP1 POP PUSH2 0xE56 DUP2 PUSH2 0xE30 JUMP JUMPDEST SWAP3 SWAP2 POP POP JUMP JUMPDEST PUSH1 0x0 PUSH1 0x20 DUP3 DUP5 SUB SLT ISZERO PUSH2 0xE72 JUMPI PUSH2 0xE71 PUSH2 0xE1E JUMP JUMPDEST JUMPDEST PUSH1 0x0 PUSH2 0xE80 DUP5 DUP3 DUP6 ADD PUSH2 0xE47 JUMP JUMPDEST SWAP2 POP POP SWAP3 SWAP2 POP POP JUMP JUMPDEST PUSH1 0x0 PUSH20 0xFFFFFFFFFFFFFFFFFFFFFFFFFFFFFFFFFFFFFFFF DUP3 AND SWAP1 POP SWAP2 SWAP1 POP JUMP JUMPDEST PUSH1 0x0 PUSH2 0xEB4 DUP3 PUSH2 0xE89 JUMP JUMPDEST SWAP1 POP SWAP2 SWAP1 POP JUMP JUMPDEST PUSH2 0xEC4 DUP2 PUSH2 0xEA9 JUMP JUMPDEST DUP3 MSTORE POP POP JUMP JUMPDEST PUSH1 0x0 PUSH1 0x20 DUP3 ADD SWAP1 POP PUSH2 0xEDF PUSH1 0x0 DUP4 ADD DUP5 PUSH2 0xEBB JUMP JUMPDEST SWAP3 SWAP2 POP POP JUMP JUMPDEST PUSH1 0x0 DUP2 SWAP1 POP SWAP2 SWAP1 POP JUMP JUMPDEST PUSH2 0xEF8 DUP2 PUSH2 0xEE5 JUMP JUMPDEST DUP3 MSTORE POP POP JUMP JUMPDEST PUSH1 0x0 PUSH1 0x20 DUP3 ADD SWAP1 POP PUSH2 0xF13 PUSH1 0x0 DUP4 ADD DUP5 PUSH2 0xEEF JUMP JUMPDEST SWAP3 SWAP2 POP POP JUMP JUMPDEST PUSH2 0xF22 DUP2 PUSH2 0xE23 JUMP JUMPDEST DUP3 MSTORE POP POP JUMP JUMPDEST PUSH1 0x0 PUSH1 0x20 DUP3 ADD SWAP1 POP PUSH2 0xF3D PUSH1 0x0 DUP4 ADD DUP5 PUSH2 0xF19 JUMP JUMPDEST SWAP3 SWAP2 POP POP JUMP JUMPDEST PUSH1 0x0 PUSH16 0xFFFFFFFFFFFFFFFFFFFFFFFFFFFFFFFF DUP3 AND SWAP1 POP SWAP2 SWAP1 POP JUMP JUMPDEST PUSH2 0xF68 DUP2 PUSH2 0xF43 JUMP JUMPDEST DUP3 MSTORE POP POP JUMP JUMPDEST PUSH1 0x0 PUSH1 0x20 DUP3 ADD SWAP1 POP PUSH2 0xF83 PUSH1 0x0 DUP4 ADD DUP5 PUSH2 0xF5F JUMP JUMPDEST SWAP3 SWAP2 POP POP JUMP JUMPDEST PUSH1 0x0 DUP2 ISZERO ISZERO SWAP1 POP SWAP2 SWAP1 POP JUMP JUMPDEST PUSH2 0xF9E DUP2 PUSH2 0xF89 JUMP JUMPDEST DUP2 EQ PUSH2 0xFA9 JUMPI PUSH1 0x0 DUP1 REVERT JUMPDEST POP JUMP JUMPDEST PUSH1 0x0 DUP2 CALLDATALOAD SWAP1 POP PUSH2 0xFBB DUP2 PUSH2 0xF95 JUMP JUMPDEST SWAP3 SWAP2 POP POP JUMP JUMPDEST PUSH1 0x0 PUSH1 0x20 DUP3 DUP5 SUB SLT ISZERO PUSH2 0xFD7 JUMPI PUSH2 0xFD6 PUSH2 0xE1E JUMP JUMPDEST JUMPDEST PUSH1 0x0 PUSH2 0xFE5 DUP5 DUP3 DUP6 ADD PUSH2 0xFAC JUMP JUMPDEST SWAP2 POP POP SWAP3 SWAP2 POP POP JUMP JUMPDEST PUSH1 0x0 DUP3 DUP3 MSTORE PUSH1 0x20 DUP3 ADD SWAP1 POP SWAP3 SWAP2 POP POP JUMP JUMPDEST PUSH32 0x4E6565647320746F206265206E6F6E2D7A65726F2E0000000000000000000000 PUSH1 0x0 DUP3 ADD MSTORE POP JUMP JUMPDEST PUSH1 0x0 PUSH2 0x1035 PUSH1 0x15 DUP4 PUSH2 0xFEE JUMP JUMPDEST SWAP2 POP PUSH2 0x1040 DUP3 PUSH2 0xFFF JUMP JUMPDEST PUSH1 0x20 DUP3 ADD SWAP1 POP SWAP2 SWAP1 POP JUMP JUMPDEST PUSH1 0x0 PUSH1 0x20 DUP3 ADD SWAP1 POP DUP2 DUP2 SUB PUSH1 0x0 DUP4 ADD MSTORE PUSH2 0x1064 DUP2 PUSH2 0x1028 JUMP JUMPDEST SWAP1 POP SWAP2 SWAP1 POP JUMP JUMPDEST PUSH32 0x47616D6520696E2070726F67726573732E000000000000000000000000000000 PUSH1 0x0 DUP3 ADD MSTORE POP JUMP JUMPDEST PUSH1 0x0 PUSH2 0x10A1 PUSH1 0x11 DUP4 PUSH2 0xFEE JUMP JUMPDEST SWAP2 POP PUSH2 0x10AC DUP3 PUSH2 0x106B JUMP JUMPDEST PUSH1 0x20 DUP3 ADD SWAP1 POP SWAP2 SWAP1 POP JUMP JUMPDEST PUSH1 0x0 PUSH1 0x20 DUP3 ADD SWAP1 POP DUP2 DUP2 SUB PUSH1 0x0 DUP4 ADD MSTORE PUSH2 0x10D0 DUP2 PUSH2 0x1094 JUMP JUMPDEST SWAP1 POP SWAP2 SWAP1 POP JUMP JUMPDEST PUSH32 0x4E487B7100000000000000000000000000000000000000000000000000000000 PUSH1 0x0 MSTORE PUSH1 0x11 PUSH1 0x4 MSTORE PUSH1 0x24 PUSH1 0x0 REVERT JUMPDEST PUSH1 0x0 PUSH2 0x1111 DUP3 PUSH2 0xE23 JUMP JUMPDEST SWAP2 POP PUSH1 0xFF DUP3 SUB PUSH2 0x1124 JUMPI PUSH2 0x1123 PUSH2 0x10D7 JUMP JUMPDEST JUMPDEST PUSH1 0x1 DUP3 ADD SWAP1 POP SWAP2 SWAP1 POP JUMP JUMPDEST PUSH1 0x0 PUSH2 0x113A DUP3 PUSH2 0xE23 JUMP JUMPDEST SWAP2 POP PUSH1 0x0 DUP3 SUB PUSH2 0x114D JUMPI PUSH2 0x114C PUSH2 0x10D7 JUMP JUMPDEST JUMPDEST PUSH1 0x1 DUP3 SUB SWAP1 POP SWAP2 SWAP1 POP JUMP JUMPDEST PUSH1 0x0 PUSH2 0x1163 DUP3 PUSH2 0xEE5 JUMP JUMPDEST SWAP2 POP PUSH2 0x116E DUP4 PUSH2 0xEE5 JUMP JUMPDEST SWAP3 POP DUP3 DUP3 MUL PUSH2 0x117C DUP2 PUSH2 0xEE5 JUMP JUMPDEST SWAP2 POP DUP3 DUP3 DIV DUP5 EQ DUP4 ISZERO OR PUSH2 0x1193 JUMPI PUSH2 0x1192 PUSH2 0x10D7 JUMP JUMPDEST JUMPDEST POP SWAP3 SWAP2 POP POP JUMP JUMPDEST PUSH1 0x0 DUP2 SWAP1 POP SWAP3 SWAP2 POP POP JUMP JUMPDEST POP JUMP JUMPDEST PUSH1 0x0 PUSH2 0x11B5 PUSH1 0x0 DUP4 PUSH2 0x119A JUMP JUMPDEST SWAP2 POP PUSH2 0x11C0 DUP3 PUSH2 0x11A5 JUMP JUMPDEST PUSH1 0x0 DUP3 ADD SWAP1 POP SWAP2 SWAP1 POP JUMP JUMPDEST PUSH1 0x0 PUSH2 0x11D6 DUP3 PUSH2 0x11A8 JUMP JUMPDEST SWAP2 POP DUP2 SWAP1 POP SWAP2 SWAP1 POP JUMP JUMPDEST PUSH32 0x5769746864726177616C206661696C65642E0000000000000000000000000000 PUSH1 0x0 DUP3 ADD MSTORE POP JUMP JUMPDEST PUSH1 0x0 PUSH2 0x1216 PUSH1 0x12 DUP4 PUSH2 0xFEE JUMP JUMPDEST SWAP2 POP PUSH2 0x1221 DUP3 PUSH2 0x11E0 JUMP JUMPDEST PUSH1 0x20 DUP3 ADD SWAP1 POP SWAP2 SWAP1 POP JUMP JUMPDEST PUSH1 0x0 PUSH1 0x20 DUP3 ADD SWAP1 POP DUP2 DUP2 SUB PUSH1 0x0 DUP4 ADD MSTORE PUSH2 0x1245 DUP2 PUSH2 0x1209 JUMP JUMPDEST SWAP1 POP SWAP2 SWAP1 POP JUMP JUMPDEST PUSH32 0x4E487B7100000000000000000000000000000000000000000000000000000000 PUSH1 0x0 MSTORE PUSH1 0x12 PUSH1 0x4 MSTORE PUSH1 0x24 PUSH1 0x0 REVERT JUMPDEST PUSH1 0x0 PUSH2 0x1286 DUP3 PUSH2 0xF43 JUMP JUMPDEST SWAP2 POP PUSH2 0x1291 DUP4 PUSH2 0xF43 JUMP JUMPDEST SWAP3 POP DUP3 PUSH2 0x12A1 JUMPI PUSH2 0x12A0 PUSH2 0x124C JUMP JUMPDEST JUMPDEST DUP3 DUP3 MOD SWAP1 POP SWAP3 SWAP2 POP POP JUMP JUMPDEST PUSH32 0x4E6565647320746F206265206D756C7469706C65206F66207374616B652E0000 PUSH1 0x0 DUP3 ADD MSTORE POP JUMP JUMPDEST PUSH1 0x0 PUSH2 0x12E2 PUSH1 0x1E DUP4 PUSH2 0xFEE JUMP JUMPDEST SWAP2 POP PUSH2 0x12ED DUP3 PUSH2 0x12AC JUMP JUMPDEST PUSH1 0x20 DUP3 ADD SWAP1 POP SWAP2 SWAP1 POP JUMP JUMPDEST PUSH1 0x0 PUSH1 0x20 DUP3 ADD SWAP1 POP DUP2 DUP2 SUB PUSH1 0x0 DUP4 ADD MSTORE PUSH2 0x1311 DUP2 PUSH2 0x12D5 JUMP JUMPDEST SWAP1 POP SWAP2 SWAP1 POP JUMP JUMPDEST PUSH1 0x0 PUSH2 0x1323 DUP3 PUSH2 0xF43 JUMP JUMPDEST SWAP2 POP PUSH2 0x132E DUP4 PUSH2 0xF43 JUMP JUMPDEST SWAP3 POP DUP3 PUSH2 0x133E JUMPI PUSH2 0x133D PUSH2 0x124C JUMP JUMPDEST JUMPDEST DUP3 DUP3 DIV SWAP1 POP SWAP3 SWAP2 POP POP JUMP JUMPDEST PUSH1 0x0 PUSH2 0x1354 DUP3 PUSH2 0xE23 JUMP JUMPDEST SWAP2 POP PUSH2 0x135F DUP4 PUSH2 0xE23 JUMP JUMPDEST SWAP3 POP DUP3 DUP3 SUB SWAP1 POP PUSH1 0xFF DUP2 GT ISZERO PUSH2 0x1378 JUMPI PUSH2 0x1377 PUSH2 0x10D7 JUMP JUMPDEST JUMPDEST SWAP3 SWAP2 POP POP JUMP JUMPDEST PUSH32 0x4578616374206F72646572206E6F74206D65742E000000000000000000000000 PUSH1 0x0 DUP3 ADD MSTORE POP JUMP JUMPDEST PUSH1 0x0 PUSH2 0x13B4 PUSH1 0x14 DUP4 PUSH2 0xFEE JUMP JUMPDEST SWAP2 POP PUSH2 0x13BF DUP3 PUSH2 0x137E JUMP JUMPDEST PUSH1 0x20 DUP3 ADD SWAP1 POP SWAP2 SWAP1 POP JUMP JUMPDEST PUSH1 0x0 PUSH1 0x20 DUP3 ADD SWAP1 POP DUP2 DUP2 SUB PUSH1 0x0 DUP4 ADD MSTORE PUSH2 0x13E3 DUP2 PUSH2 0x13A7 JUMP JUMPDEST SWAP1 POP SWAP2 SWAP1 POP JUMP JUMPDEST PUSH1 0x0 DUP2 SWAP1 POP SWAP2 SWAP1 POP JUMP JUMPDEST PUSH2 0x1405 PUSH2 0x1400 DUP3 PUSH2 0xEE5 JUMP JUMPDEST PUSH2 0x13EA JUMP JUMPDEST DUP3 MSTORE POP POP JUMP JUMPDEST PUSH1 0x0 PUSH2 0x1417 DUP3 DUP5 PUSH2 0x13F4 JUMP JUMPDEST PUSH1 0x20 DUP3 ADD SWAP2 POP DUP2 SWAP1 POP SWAP3 SWAP2 POP POP JUMP JUMPDEST PUSH1 0x0 PUSH2 0x1431 DUP3 PUSH2 0xEE5 JUMP JUMPDEST SWAP2 POP PUSH2 0x143C DUP4 PUSH2 0xEE5 JUMP JUMPDEST SWAP3 POP DUP3 PUSH2 0x144C JUMPI PUSH2 0x144B PUSH2 0x124C JUMP JUMPDEST JUMPDEST DUP3 DUP3 MOD SWAP1 POP SWAP3 SWAP2 POP POP JUMP JUMPDEST PUSH1 0x0 PUSH2 0x1462 DUP3 PUSH2 0xE23 JUMP JUMPDEST SWAP2 POP PUSH2 0x146D DUP4 PUSH2 0xE23 JUMP JUMPDEST SWAP3 POP DUP3 DUP3 ADD SWAP1 POP PUSH1 0xFF DUP2 GT ISZERO PUSH2 0x1486 JUMPI PUSH2 0x1485 PUSH2 0x10D7 JUMP JUMPDEST JUMPDEST SWAP3 SWAP2 POP POP JUMP JUMPDEST PUSH1 0x0 PUSH2 0x1497 DUP3 PUSH2 0xEE5 JUMP JUMPDEST SWAP2 POP PUSH2 0x14A2 DUP4 PUSH2 0xEE5 JUMP JUMPDEST SWAP3 POP DUP3 DUP3 ADD SWAP1 POP DUP1 DUP3 GT ISZERO PUSH2 0x14BA JUMPI PUSH2 0x14B9 PUSH2 0x10D7 JUMP JUMPDEST JUMPDEST SWAP3 SWAP2 POP POP JUMP JUMPDEST PUSH32 0x526566756E64206661696C65642E000000000000000000000000000000000000 PUSH1 0x0 DUP3 ADD MSTORE POP JUMP JUMPDEST PUSH1 0x0 PUSH2 0x14F6 PUSH1 0xE DUP4 PUSH2 0xFEE JUMP JUMPDEST SWAP2 POP PUSH2 0x1501 DUP3 PUSH2 0x14C0 JUMP JUMPDEST PUSH1 0x20 DUP3 ADD SWAP1 POP SWAP2 SWAP1 POP JUMP JUMPDEST PUSH1 0x0 PUSH1 0x20 DUP3 ADD SWAP1 POP DUP2 DUP2 SUB PUSH1 0x0 DUP4 ADD MSTORE PUSH2 0x1525 DUP2 PUSH2 0x14E9 JUMP JUMPDEST SWAP1 POP SWAP2 SWAP1 POP JUMP JUMPDEST PUSH32 0x4E487B7100000000000000000000000000000000000000000000000000000000 PUSH1 0x0 MSTORE PUSH1 0x41 PUSH1 0x4 MSTORE PUSH1 0x24 PUSH1 0x0 REVERT JUMPDEST PUSH32 0x4E487B7100000000000000000000000000000000000000000000000000000000 PUSH1 0x0 MSTORE PUSH1 0x32 PUSH1 0x4 MSTORE PUSH1 0x24 PUSH1 0x0 REVERT JUMPDEST PUSH1 0x0 PUSH1 0x40 DUP3 ADD SWAP1 POP PUSH2 0x159F PUSH1 0x0 DUP4 ADD DUP6 PUSH2 0xEBB JUMP JUMPDEST PUSH2 0x15AC PUSH1 0x20 DUP4 ADD DUP5 PUSH2 0xF19 JUMP JUMPDEST SWAP4 SWAP3 POP POP POP JUMP JUMPDEST PUSH32 0x5472616E73666572206661696C65642E00000000000000000000000000000000 PUSH1 0x0 DUP3 ADD MSTORE POP JUMP JUMPDEST PUSH1 0x0 PUSH2 0x15E9 PUSH1 0x10 DUP4 PUSH2 0xFEE JUMP JUMPDEST SWAP2 POP PUSH2 0x15F4 DUP3 PUSH2 0x15B3 JUMP JUMPDEST PUSH1 0x20 DUP3 ADD SWAP1 POP SWAP2 SWAP1 POP JUMP JUMPDEST PUSH1 0x0 PUSH1 0x20 DUP3 ADD SWAP1 POP DUP2 DUP2 SUB PUSH1 0x0 DUP4 ADD MSTORE PUSH2 0x1618 DUP2 PUSH2 0x15DC JUMP JUMPDEST SWAP1 POP SWAP2 SWAP1 POP JUMP INVALID LOG2 PUSH5 0x6970667358 0x22 SLT KECCAK256 OR 0xB3 MSIZE PUSH21 0xD3445341B483C1DF0AFA405A1945FBF05920408F93 SWAP12 0x4B PUSH26 0x31B9F62F64736F6C634300081100330000000000000000000000 "},"methodIdentifiers":{"depositEth(bool)":"d69a1876","groatIndex()":"59fe06e0","maxPlayers()":"4c2412a2","payout()":"63bd1d4a","queue(uint8)":"056d9f28","queuePtr()":"2970ac44","removeEntries(uint8)":"78b77a94","revealBlockNumber()":"1eaeda03","stake()":"3a4b66f1"}}}}}