{"contracts/GroatFactory.sol":{"GroatFactory":{"abi":[{"anonymous":false,"inputs":[{"indexed":true,"internalType":"address","name":"","type":"address"},{"indexed":false,"internalType":"uint128","name":"","type":"uint128"},{"indexed":false,"internalType":"uint8","name":"","type":"uint8"}],"name":"GameCreated","type":"event"},{"inputs":[{"internalType":"uint128","name":"stake","type":"uint128"},{"internalType":"uint8","name":"maxPlayers","type":"uint8"}],"name":"createGame","outputs":[{"internalType":"address","name":"","type":"address"}],"stateMutability":"nonpayable","type":"function"},{"inputs":[{"internalType":"uint8","name":"","type":"uint8"},{"internalType":"uint256","name":"","type":"uint256"}],"name":"games","outputs":[{"internalType":"address","name":"","type":"address"}],"stateMutability":"view","type":"function"},{"inputs":[{"internalType":"uint8","name":"maxPlayers","type":"uint8"},{"internalType":"uint256","name":"index","type":"uint256"}],"name":"getCardInfo","outputs":[{"internalType":"address","name":"","type":"address"},{"internalType":"uint128","name":"","type":"uint128"},{"internalType":"uint8","name":"","type":"uint8"},{"internalType":"uint256","name":"","type":"uint256"}],"stateMutability":"view","type":"function"},{"inputs":[{"internalType":"uint8","name":"maxPlayers","type":"uint8"}],"name":"getLength","outputs":[{"internalType":"uint256","name":"","type":"uint256"}],"stateMutability":"view","type":"function"}],"evm":{"bytecode":{"linkReferences":{},"object":"608060405234801561001057600080fd5b5061261c806100206000396000f3fe60806040523480156200001157600080fd5b5060043610620000525760003560e01c8063538515cc14620000575780639e77fdaf146200008d578063a949bfc614620000c3578063cb73af4f14620000f9575b600080fd5b6200007560048036038101906200006f919062000512565b62000132565b6040516200008491906200059e565b60405180910390f35b620000ab6004803603810190620000a59190620005bb565b62000181565b604051620000ba9190620005fe565b60405180910390f35b620000e16004803603810190620000db919062000668565b620001a6565b604051620000f091906200059e565b60405180910390f35b62000117600480360381019062000111919062000512565b620002bb565b604051620001299493929190620006d1565b60405180910390f35b600060205281600052604060002081815481106200014f57600080fd5b906000526020600020016000915091509054906101000a900473ffffffffffffffffffffffffffffffffffffffff1681565b60008060008360ff1660ff168152602001908152602001600020805490509050919050565b6000808383604051620001b99062000486565b620001c69291906200071e565b604051809103906000f080158015620001e3573d6000803e3d6000fd5b5090506000808460ff1660ff168152602001908152602001600020819080600181540180825580915050600190039060005260206000200160009091909190916101000a81548173ffffffffffffffffffffffffffffffffffffffff021916908373ffffffffffffffffffffffffffffffffffffffff1602179055508073ffffffffffffffffffffffffffffffffffffffff167f5c89ff80e9ec3c264f8964623337e1995b26f13ddb912a6edf6a4a255af0ab2b8585604051620002a99291906200071e565b60405180910390a28091505092915050565b60008060008060008060008860ff1660ff1681526020019081526020016000208681548110620002f057620002ef6200074b565b5b9060005260206000200160009054906101000a900473ffffffffffffffffffffffffffffffffffffffff169050808173ffffffffffffffffffffffffffffffffffffffff16633a4b66f16040518163ffffffff1660e01b8152600401602060405180830381865afa1580156200036a573d6000803e3d6000fd5b505050506040513d601f19601f8201168201806040525081019062000390919062000791565b8273ffffffffffffffffffffffffffffffffffffffff16632970ac446040518163ffffffff1660e01b8152600401602060405180830381865afa158015620003dc573d6000803e3d6000fd5b505050506040513d601f19601f82011682018060405250810190620004029190620007da565b8373ffffffffffffffffffffffffffffffffffffffff16631eaeda036040518163ffffffff1660e01b8152600401602060405180830381865afa1580156200044e573d6000803e3d6000fd5b505050506040513d601f19601f8201168201806040525081019062000474919062000823565b94509450945094505092959194509250565b611d91806200085683390190565b600080fd5b600060ff82169050919050565b620004b18162000499565b8114620004bd57600080fd5b50565b600081359050620004d181620004a6565b92915050565b6000819050919050565b620004ec81620004d7565b8114620004f857600080fd5b50565b6000813590506200050c81620004e1565b92915050565b600080604083850312156200052c576200052b62000494565b5b60006200053c85828601620004c0565b92505060206200054f85828601620004fb565b9150509250929050565b600073ffffffffffffffffffffffffffffffffffffffff82169050919050565b6000620005868262000559565b9050919050565b620005988162000579565b82525050565b6000602082019050620005b560008301846200058d565b92915050565b600060208284031215620005d457620005d362000494565b5b6000620005e484828501620004c0565b91505092915050565b620005f881620004d7565b82525050565b6000602082019050620006156000830184620005ed565b92915050565b60006fffffffffffffffffffffffffffffffff82169050919050565b62000642816200061b565b81146200064e57600080fd5b50565b600081359050620006628162000637565b92915050565b6000806040838503121562000682576200068162000494565b5b6000620006928582860162000651565b9250506020620006a585828601620004c0565b9150509250929050565b620006ba816200061b565b82525050565b620006cb8162000499565b82525050565b6000608082019050620006e860008301876200058d565b620006f76020830186620006af565b620007066040830185620006c0565b620007156060830184620005ed565b95945050505050565b6000604082019050620007356000830185620006af565b620007446020830184620006c0565b9392505050565b7f4e487b7100000000000000000000000000000000000000000000000000000000600052603260045260246000fd5b6000815190506200078b8162000637565b92915050565b600060208284031215620007aa57620007a962000494565b5b6000620007ba848285016200077a565b91505092915050565b600081519050620007d481620004a6565b92915050565b600060208284031215620007f357620007f262000494565b5b60006200080384828501620007c3565b91505092915050565b6000815190506200081d81620004e1565b92915050565b6000602082840312156200083c576200083b62000494565b5b60006200084c848285016200080c565b9150509291505056fe6080604052600160005573dead000000000000000042069420694206942069600260006101000a81548173ffffffffffffffffffffffffffffffffffffffff021916908373ffffffffffffffffffffffffffffffffffffffff1602179055506001600360126101000a81548160ff021916908360ff1602179055503480156200008757600080fd5b5060405162001d9138038062001d918339818101604052810190620000ad9190620002f4565b6000826fffffffffffffffffffffffffffffffff161162000105576040517f08c379a0000000000000000000000000000000000000000000000000000000008152600401620000fc906200039c565b60405180910390fd5b60018160ff16116200014e576040517f08c379a000000000000000000000000000000000000000000000000000000000815260040162000145906200040e565b60405180910390fd5b60006001826200015f91906200045f565b60ff16836200016f9190620004ca565b6fffffffffffffffffffffffffffffffff1614620001c4576040517f08c379a0000000000000000000000000000000000000000000000000000000008152600401620001bb9062000552565b60405180910390fd5b81600360006101000a8154816fffffffffffffffffffffffffffffffff02191690836fffffffffffffffffffffffffffffffff16021790555080600360106101000a81548160ff021916908360ff1602179055506001816200022791906200045f565b60ff168262000237919062000574565b82620002449190620005ac565b6fffffffffffffffffffffffffffffffff166001819055505050620005f7565b600080fd5b60006fffffffffffffffffffffffffffffffff82169050919050565b620002908162000269565b81146200029c57600080fd5b50565b600081519050620002b08162000285565b92915050565b600060ff82169050919050565b620002ce81620002b6565b8114620002da57600080fd5b50565b600081519050620002ee81620002c3565b92915050565b600080604083850312156200030e576200030d62000264565b5b60006200031e858286016200029f565b92505060206200033185828601620002dd565b9150509250929050565b600082825260208201905092915050565b7f5374616b65206d757374206265206e6f6e2d7a65726f2e000000000000000000600082015250565b6000620003846017836200033b565b915062000391826200034c565b602082019050919050565b60006020820190508181036000830152620003b78162000375565b9050919050565b7f4d617820706c6179657273206d757374206265203e20312e0000000000000000600082015250565b6000620003f66018836200033b565b91506200040382620003be565b602082019050919050565b600060208201905081810360008301526200042981620003e7565b9050919050565b7f4e487b7100000000000000000000000000000000000000000000000000000000600052601160045260246000fd5b60006200046c82620002b6565b91506200047983620002b6565b9250828203905060ff81111562000495576200049462000430565b5b92915050565b7f4e487b7100000000000000000000000000000000000000000000000000000000600052601260045260246000fd5b6000620004d78262000269565b9150620004e48362000269565b925082620004f757620004f66200049b565b5b828206905092915050565b7f5374616b652073686f756c642062652064697669646564206576656e6c792e00600082015250565b60006200053a601f836200033b565b9150620005478262000502565b602082019050919050565b600060208201905081810360008301526200056d816200052b565b9050919050565b6000620005818262000269565b91506200058e8362000269565b925082620005a157620005a06200049b565b5b828204905092915050565b6000620005b98262000269565b9150620005c68362000269565b925082820190506fffffffffffffffffffffffffffffffff811115620005f157620005f062000430565b5b92915050565b61178a80620006076000396000f3fe6080604052600436106100915760003560e01c806359fe06e01161005957806359fe06e01461017f57806363bd1d4a146101aa5780636e1f7034146101d557806378b77a9414610200578063d69a18761461023d57610091565b8063056d9f28146100965780631eaeda03146100d35780632970ac44146100fe5780633a4b66f1146101295780634c2412a214610154575b600080fd5b3480156100a257600080fd5b506100bd60048036038101906100b89190610f91565b610259565b6040516100ca9190610fff565b60405180910390f35b3480156100df57600080fd5b506100e861028c565b6040516100f59190611033565b60405180910390f35b34801561010a57600080fd5b50610113610292565b604051610120919061105d565b60405180910390f35b34801561013557600080fd5b5061013e6102a5565b60405161014b91906110a3565b60405180910390f35b34801561016057600080fd5b506101696102c7565b604051610176919061105d565b60405180910390f35b34801561018b57600080fd5b506101946102da565b6040516101a1919061105d565b60405180910390f35b3480156101b657600080fd5b506101bf6102ed565b6040516101cc9190611033565b60405180910390f35b3480156101e157600080fd5b506101ea6102f3565b6040516101f79190610fff565b60405180910390f35b34801561020c57600080fd5b5061022760048036038101906102229190610f91565b610319565b604051610234919061105d565b60405180910390f35b610257600480360381019061025291906110f6565b610733565b005b60046020528060005260406000206000915054906101000a900473ffffffffffffffffffffffffffffffffffffffff1681565b60005481565b600360119054906101000a900460ff1681565b600360009054906101000a90046fffffffffffffffffffffffffffffffff1681565b600360109054906101000a900460ff1681565b600360129054906101000a900460ff1681565b60015481565b600260009054906101000a900473ffffffffffffffffffffffffffffffffffffffff1681565b6000808260ff1611610360576040517f08c379a000000000000000000000000000000000000000000000000000000000815260040161035790611180565b60405180910390fd5b6000600360119054906101000a900460ff169050600360109054906101000a900460ff1660ff168160ff16036103cb576040517f08c379a00000000000000000000000000000000000000000000000000000000081526004016103c2906111ec565b60405180910390fd5b73dead00000000000000004206942069420694206973ffffffffffffffffffffffffffffffffffffffff163373ffffffffffffffffffffffffffffffffffffffff160361041757600080fd5b6000805b8260ff168160ff1610801561043557508460ff168260ff16105b15610622573373ffffffffffffffffffffffffffffffffffffffff16600460008360ff1660ff16815260200190815260200160002060009054906101000a900473ffffffffffffffffffffffffffffffffffffffff1673ffffffffffffffffffffffffffffffffffffffff16146104b757806104b09061123b565b905061041b565b826104c190611264565b92508260ff168160ff161461056257600460008460ff1660ff16815260200190815260200160002060009054906101000a900473ffffffffffffffffffffffffffffffffffffffff16600460008360ff1660ff16815260200190815260200160002060006101000a81548173ffffffffffffffffffffffffffffffffffffffff021916908373ffffffffffffffffffffffffffffffffffffffff1602179055505b73dead000000000000000042069420694206942069600460008560ff1660ff16815260200190815260200160002060006101000a81548173ffffffffffffffffffffffffffffffffffffffff021916908373ffffffffffffffffffffffffffffffffffffffff160217905550806105d89061123b565b9050816105e49061123b565b91507fc5261cb694fa044aa236df31226959a7a2078d4eb090616ae7345a9ee9cfabc083604051610615919061105d565b60405180910390a161041b565b82600360116101000a81548160ff021916908360ff16021790555060003373ffffffffffffffffffffffffffffffffffffffff168360ff16600360009054906101000a90046fffffffffffffffffffffffffffffffff166fffffffffffffffffffffffffffffffff16610695919061128d565b6040516106a190611300565b60006040518083038185875af1925050503d80600081146106de576040519150601f19603f3d011682016040523d82523d6000602084013e6106e3565b606091505b5050905080610727576040517f08c379a000000000000000000000000000000000000000000000000000000000815260040161071e90611361565b60405180910390fd5b82945050505050919050565b600054431015610778576040517f08c379a000000000000000000000000000000000000000000000000000000000815260040161076f906111ec565b60405180910390fd5b60003490506000816fffffffffffffffffffffffffffffffff16116107d2576040517f08c379a00000000000000000000000000000000000000000000000000000000081526004016107c990611180565b60405180910390fd5b6000600360009054906101000a90046fffffffffffffffffffffffffffffffff16826107fe91906113b0565b6fffffffffffffffffffffffffffffffff1614610850576040517f08c379a00000000000000000000000000000000000000000000000000000000081526004016108479061142d565b60405180910390fd5b73dead00000000000000004206942069420694206973ffffffffffffffffffffffffffffffffffffffff163373ffffffffffffffffffffffffffffffffffffffff160361089c57600080fd5b6000600360119054906101000a900460ff1690506000600360109054906101000a900460ff1690508060ff168260ff16036108d657600091505b6000600360009054906101000a90046fffffffffffffffffffffffffffffffff1684610902919061144d565b905060008383610912919061147e565b905060008160ff168360ff1610610929578161092b565b825b9050868061093e57508260ff168160ff16145b61097d576040517f08c379a0000000000000000000000000000000000000000000000000000000008152600401610974906114ff565b60405180910390fd5b60008560ff16036109db578360ff164460405160200161099d9190611540565b6040516020818303038152906040528051906020012060001c6109c0919061155b565b600360126101000a81548160ff021916908360ff1602179055505b80856109e7919061158c565b945084600360116101000a81548160ff021916908360ff1602179055508360ff168560ff1603610a2557604b43610a1e91906115c1565b6000819055505b610a3b338287610a35919061147e565b87610b49565b8260ff168160ff161015610b405760003373ffffffffffffffffffffffffffffffffffffffff16600360009054906101000a90046fffffffffffffffffffffffffffffffff166fffffffffffffffffffffffffffffffff168386610a9f919061147e565b60ff16610aac919061128d565b604051610ab890611300565b60006040518083038185875af1925050503d8060008114610af5576040519150601f19603f3d011682016040523d82523d6000602084013e610afa565b606091505b5050905080610b3e576040517f08c379a0000000000000000000000000000000000000000000000000000000008152600401610b3590611641565b60405180910390fd5b505b50505050505050565b60008282610b57919061147e565b60ff1667ffffffffffffffff811115610b7357610b72611661565b5b604051908082528060200260200182016040528015610ba15781602001602082028036833780820191505090505b509050600083905060005b8360ff168260ff161015610cf057600460008360ff1660ff16815260200190815260200160002060009054906101000a900473ffffffffffffffffffffffffffffffffffffffff16838260ff1681518110610c0a57610c09611690565b5b602002602001019073ffffffffffffffffffffffffffffffffffffffff16908173ffffffffffffffffffffffffffffffffffffffff168152505085600460008460ff1660ff16815260200190815260200160002060006101000a81548173ffffffffffffffffffffffffffffffffffffffff021916908373ffffffffffffffffffffffffffffffffffffffff1602179055507f6f4b46fba5c342fb6b69eb728c76b9f0850713c7f1ee5ba47724a2349858ec7982604051610ccb919061105d565b60405180910390a181610cdd9061123b565b915080610ce99061123b565b9050610bac565b849150600090505b82518160ff161015610f4b576000838260ff1681518110610d1c57610d1b611690565b5b60200260200101519050600073ffffffffffffffffffffffffffffffffffffffff168173ffffffffffffffffffffffffffffffffffffffff1614158015610da3575073dead00000000000000004206942069420694206973ffffffffffffffffffffffffffffffffffffffff168173ffffffffffffffffffffffffffffffffffffffff1614155b15610f2d57600360129054906101000a900460ff1660ff168360ff1603610e435780600260006101000a81548173ffffffffffffffffffffffffffffffffffffffff021916908373ffffffffffffffffffffffffffffffffffffffff1602179055507f653072e8847022386c9de810b576409b500e1d279ae76f90e35b312e1e7574a58184604051610e369291906116bf565b60405180910390a1610f2c565b60008173ffffffffffffffffffffffffffffffffffffffff16600154604051610e6b90611300565b60006040518083038185875af1925050503d8060008114610ea8576040519150601f19603f3d011682016040523d82523d6000602084013e610ead565b606091505b5050905080610ef1576040517f08c379a0000000000000000000000000000000000000000000000000000000008152600401610ee890611734565b60405180910390fd5b7fe76b0aa2daa84efde70d6f999e732139a79b72f01fbf08e65857c3e86338e4938285604051610f229291906116bf565b60405180910390a1505b5b82610f379061123b565b925081610f439061123b565b915050610cf8565b505050505050565b600080fd5b600060ff82169050919050565b610f6e81610f58565b8114610f7957600080fd5b50565b600081359050610f8b81610f65565b92915050565b600060208284031215610fa757610fa6610f53565b5b6000610fb584828501610f7c565b91505092915050565b600073ffffffffffffffffffffffffffffffffffffffff82169050919050565b6000610fe982610fbe565b9050919050565b610ff981610fde565b82525050565b60006020820190506110146000830184610ff0565b92915050565b6000819050919050565b61102d8161101a565b82525050565b60006020820190506110486000830184611024565b92915050565b61105781610f58565b82525050565b6000602082019050611072600083018461104e565b92915050565b60006fffffffffffffffffffffffffffffffff82169050919050565b61109d81611078565b82525050565b60006020820190506110b86000830184611094565b92915050565b60008115159050919050565b6110d3816110be565b81146110de57600080fd5b50565b6000813590506110f0816110ca565b92915050565b60006020828403121561110c5761110b610f53565b5b600061111a848285016110e1565b91505092915050565b600082825260208201905092915050565b7f4e6565647320746f206265206e6f6e2d7a65726f2e0000000000000000000000600082015250565b600061116a601583611123565b915061117582611134565b602082019050919050565b600060208201905081810360008301526111998161115d565b9050919050565b7f47616d6520696e2070726f67726573732e000000000000000000000000000000600082015250565b60006111d6601183611123565b91506111e1826111a0565b602082019050919050565b60006020820190508181036000830152611205816111c9565b9050919050565b7f4e487b7100000000000000000000000000000000000000000000000000000000600052601160045260246000fd5b600061124682610f58565b915060ff82036112595761125861120c565b5b600182019050919050565b600061126f82610f58565b9150600082036112825761128161120c565b5b600182039050919050565b60006112988261101a565b91506112a38361101a565b92508282026112b18161101a565b915082820484148315176112c8576112c761120c565b5b5092915050565b600081905092915050565b50565b60006112ea6000836112cf565b91506112f5826112da565b600082019050919050565b600061130b826112dd565b9150819050919050565b7f5769746864726177616c206661696c65642e0000000000000000000000000000600082015250565b600061134b601283611123565b915061135682611315565b602082019050919050565b6000602082019050818103600083015261137a8161133e565b9050919050565b7f4e487b7100000000000000000000000000000000000000000000000000000000600052601260045260246000fd5b60006113bb82611078565b91506113c683611078565b9250826113d6576113d5611381565b5b828206905092915050565b7f4e6565647320746f206265206d756c7469706c65206f66207374616b652e0000600082015250565b6000611417601e83611123565b9150611422826113e1565b602082019050919050565b600060208201905081810360008301526114468161140a565b9050919050565b600061145882611078565b915061146383611078565b92508261147357611472611381565b5b828204905092915050565b600061148982610f58565b915061149483610f58565b9250828203905060ff8111156114ad576114ac61120c565b5b92915050565b7f4578616374206f72646572206e6f74206d65742e000000000000000000000000600082015250565b60006114e9601483611123565b91506114f4826114b3565b602082019050919050565b60006020820190508181036000830152611518816114dc565b9050919050565b6000819050919050565b61153a6115358261101a565b61151f565b82525050565b600061154c8284611529565b60208201915081905092915050565b60006115668261101a565b91506115718361101a565b92508261158157611580611381565b5b828206905092915050565b600061159782610f58565b91506115a283610f58565b9250828201905060ff8111156115bb576115ba61120c565b5b92915050565b60006115cc8261101a565b91506115d78361101a565b92508282019050808211156115ef576115ee61120c565b5b92915050565b7f526566756e64206661696c65642e000000000000000000000000000000000000600082015250565b600061162b600e83611123565b9150611636826115f5565b602082019050919050565b6000602082019050818103600083015261165a8161161e565b9050919050565b7f4e487b7100000000000000000000000000000000000000000000000000000000600052604160045260246000fd5b7f4e487b7100000000000000000000000000000000000000000000000000000000600052603260045260246000fd5b60006040820190506116d46000830185610ff0565b6116e1602083018461104e565b9392505050565b7f5472616e73666572206661696c65642e00000000000000000000000000000000600082015250565b600061171e601083611123565b9150611729826116e8565b602082019050919050565b6000602082019050818103600083015261174d81611711565b905091905056fea264697066735822122086f88f986fbfaafb114ee0322e81f3c551e904fe56838f976bdcb321a1396d2e64736f6c63430008110033a2646970667358221220c3995f24d882c547ca635297e1fc50bef9b4505d115858a4bcd40748c61a29d764736f6c63430008110033","opcodes":"PUSH1 0x80 PUSH1 0x40 MSTORE CALLVALUE DUP1 ISZERO PUSH2 0x10 JUMPI PUSH1 0x0 DUP1 REVERT JUMPDEST POP PUSH2 0x261C DUP1 PUSH2 0x20 PUSH1 0x0 CODECOPY PUSH1 0x0 RETURN INVALID PUSH1 0x80 PUSH1 0x40 MSTORE CALLVALUE DUP1 ISZERO PUSH3 0x11 JUMPI PUSH1 0x0 DUP1 REVERT JUMPDEST POP PUSH1 0x4 CALLDATASIZE LT PUSH3 0x52 JUMPI PUSH1 0x0 CALLDATALOAD PUSH1 0xE0 SHR DUP1 PUSH4 0x538515CC EQ PUSH3 0x57 JUMPI DUP1 PUSH4 0x9E77FDAF EQ PUSH3 0x8D JUMPI DUP1 PUSH4 0xA949BFC6 EQ PUSH3 0xC3 JUMPI DUP1 PUSH4 0xCB73AF4F EQ PUSH3 0xF9 JUMPI JUMPDEST PUSH1 0x0 DUP1 REVERT JUMPDEST PUSH3 0x75 PUSH1 0x4 DUP1 CALLDATASIZE SUB DUP2 ADD SWAP1 PUSH3 0x6F SWAP2 SWAP1 PUSH3 0x512 JUMP JUMPDEST PUSH3 0x132 JUMP JUMPDEST PUSH1 0x40 MLOAD PUSH3 0x84 SWAP2 SWAP1 PUSH3 0x59E JUMP JUMPDEST PUSH1 0x40 MLOAD DUP1 SWAP2 SUB SWAP1 RETURN JUMPDEST PUSH3 0xAB PUSH1 0x4 DUP1 CALLDATASIZE SUB DUP2 ADD SWAP1 PUSH3 0xA5 SWAP2 SWAP1 PUSH3 0x5BB JUMP JUMPDEST PUSH3 0x181 JUMP JUMPDEST PUSH1 0x40 MLOAD PUSH3 0xBA SWAP2 SWAP1 PUSH3 0x5FE JUMP JUMPDEST PUSH1 0x40 MLOAD DUP1 SWAP2 SUB SWAP1 RETURN JUMPDEST PUSH3 0xE1 PUSH1 0x4 DUP1 CALLDATASIZE SUB DUP2 ADD SWAP1 PUSH3 0xDB SWAP2 SWAP1 PUSH3 0x668 JUMP JUMPDEST PUSH3 0x1A6 JUMP JUMPDEST PUSH1 0x40 MLOAD PUSH3 0xF0 SWAP2 SWAP1 PUSH3 0x59E JUMP JUMPDEST PUSH1 0x40 MLOAD DUP1 SWAP2 SUB SWAP1 RETURN JUMPDEST PUSH3 0x117 PUSH1 0x4 DUP1 CALLDATASIZE SUB DUP2 ADD SWAP1 PUSH3 0x111 SWAP2 SWAP1 PUSH3 0x512 JUMP JUMPDEST PUSH3 0x2BB JUMP JUMPDEST PUSH1 0x40 MLOAD PUSH3 0x129 SWAP5 SWAP4 SWAP3 SWAP2 SWAP1 PUSH3 0x6D1 JUMP JUMPDEST PUSH1 0x40 MLOAD DUP1 SWAP2 SUB SWAP1 RETURN JUMPDEST PUSH1 0x0 PUSH1 0x20 MSTORE DUP2 PUSH1 0x0 MSTORE PUSH1 0x40 PUSH1 0x0 KECCAK256 DUP2 DUP2 SLOAD DUP2 LT PUSH3 0x14F JUMPI PUSH1 0x0 DUP1 REVERT JUMPDEST SWAP1 PUSH1 0x0 MSTORE PUSH1 0x20 PUSH1 0x0 KECCAK256 ADD PUSH1 0x0 SWAP2 POP SWAP2 POP SWAP1 SLOAD SWAP1 PUSH2 0x100 EXP SWAP1 DIV PUSH20 0xFFFFFFFFFFFFFFFFFFFFFFFFFFFFFFFFFFFFFFFF AND DUP2 JUMP JUMPDEST PUSH1 0x0 DUP1 PUSH1 0x0 DUP4 PUSH1 0xFF AND PUSH1 0xFF AND DUP2 MSTORE PUSH1 0x20 ADD SWAP1 DUP2 MSTORE PUSH1 0x20 ADD PUSH1 0x0 KECCAK256 DUP1 SLOAD SWAP1 POP SWAP1 POP SWAP2 SWAP1 POP JUMP JUMPDEST PUSH1 0x0 DUP1 DUP4 DUP4 PUSH1 0x40 MLOAD PUSH3 0x1B9 SWAP1 PUSH3 0x486 JUMP JUMPDEST PUSH3 0x1C6 SWAP3 SWAP2 SWAP1 PUSH3 0x71E JUMP JUMPDEST PUSH1 0x40 MLOAD DUP1 SWAP2 SUB SWAP1 PUSH1 0x0 CREATE DUP1 ISZERO DUP1 ISZERO PUSH3 0x1E3 JUMPI RETURNDATASIZE PUSH1 0x0 DUP1 RETURNDATACOPY RETURNDATASIZE PUSH1 0x0 REVERT JUMPDEST POP SWAP1 POP PUSH1 0x0 DUP1 DUP5 PUSH1 0xFF AND PUSH1 0xFF AND DUP2 MSTORE PUSH1 0x20 ADD SWAP1 DUP2 MSTORE PUSH1 0x20 ADD PUSH1 0x0 KECCAK256 DUP2 SWAP1 DUP1 PUSH1 0x1 DUP2 SLOAD ADD DUP1 DUP3 SSTORE DUP1 SWAP2 POP POP PUSH1 0x1 SWAP1 SUB SWAP1 PUSH1 0x0 MSTORE PUSH1 0x20 PUSH1 0x0 KECCAK256 ADD PUSH1 0x0 SWAP1 SWAP2 SWAP1 SWAP2 SWAP1 SWAP2 PUSH2 0x100 EXP DUP2 SLOAD DUP2 PUSH20 0xFFFFFFFFFFFFFFFFFFFFFFFFFFFFFFFFFFFFFFFF MUL NOT AND SWAP1 DUP4 PUSH20 0xFFFFFFFFFFFFFFFFFFFFFFFFFFFFFFFFFFFFFFFF AND MUL OR SWAP1 SSTORE POP DUP1 PUSH20 0xFFFFFFFFFFFFFFFFFFFFFFFFFFFFFFFFFFFFFFFF AND PUSH32 0x5C89FF80E9EC3C264F8964623337E1995B26F13DDB912A6EDF6A4A255AF0AB2B DUP6 DUP6 PUSH1 0x40 MLOAD PUSH3 0x2A9 SWAP3 SWAP2 SWAP1 PUSH3 0x71E JUMP JUMPDEST PUSH1 0x40 MLOAD DUP1 SWAP2 SUB SWAP1 LOG2 DUP1 SWAP2 POP POP SWAP3 SWAP2 POP POP JUMP JUMPDEST PUSH1 0x0 DUP1 PUSH1 0x0 DUP1 PUSH1 0x0 DUP1 PUSH1 0x0 DUP9 PUSH1 0xFF AND PUSH1 0xFF AND DUP2 MSTORE PUSH1 0x20 ADD SWAP1 DUP2 MSTORE PUSH1 0x20 ADD PUSH1 0x0 KECCAK256 DUP7 DUP2 SLOAD DUP2 LT PUSH3 0x2F0 JUMPI PUSH3 0x2EF PUSH3 0x74B JUMP JUMPDEST JUMPDEST SWAP1 PUSH1 0x0 MSTORE PUSH1 0x20 PUSH1 0x0 KECCAK256 ADD PUSH1 0x0 SWAP1 SLOAD SWAP1 PUSH2 0x100 EXP SWAP1 DIV PUSH20 0xFFFFFFFFFFFFFFFFFFFFFFFFFFFFFFFFFFFFFFFF AND SWAP1 POP DUP1 DUP2 PUSH20 0xFFFFFFFFFFFFFFFFFFFFFFFFFFFFFFFFFFFFFFFF AND PUSH4 0x3A4B66F1 PUSH1 0x40 MLOAD DUP2 PUSH4 0xFFFFFFFF AND PUSH1 0xE0 SHL DUP2 MSTORE PUSH1 0x4 ADD PUSH1 0x20 PUSH1 0x40 MLOAD DUP1 DUP4 SUB DUP2 DUP7 GAS STATICCALL ISZERO DUP1 ISZERO PUSH3 0x36A JUMPI RETURNDATASIZE PUSH1 0x0 DUP1 RETURNDATACOPY RETURNDATASIZE PUSH1 0x0 REVERT JUMPDEST POP POP POP POP PUSH1 0x40 MLOAD RETURNDATASIZE PUSH1 0x1F NOT PUSH1 0x1F DUP3 ADD AND DUP3 ADD DUP1 PUSH1 0x40 MSTORE POP DUP2 ADD SWAP1 PUSH3 0x390 SWAP2 SWAP1 PUSH3 0x791 JUMP JUMPDEST DUP3 PUSH20 0xFFFFFFFFFFFFFFFFFFFFFFFFFFFFFFFFFFFFFFFF AND PUSH4 0x2970AC44 PUSH1 0x40 MLOAD DUP2 PUSH4 0xFFFFFFFF AND PUSH1 0xE0 SHL DUP2 MSTORE PUSH1 0x4 ADD PUSH1 0x20 PUSH1 0x40 MLOAD DUP1 DUP4 SUB DUP2 DUP7 GAS STATICCALL ISZERO DUP1 ISZERO PUSH3 0x3DC JUMPI RETURNDATASIZE PUSH1 0x0 DUP1 RETURNDATACOPY RETURNDATASIZE PUSH1 0x0 REVERT JUMPDEST POP POP POP POP PUSH1 0x40 MLOAD RETURNDATASIZE PUSH1 0x1F NOT PUSH1 0x1F DUP3 ADD AND DUP3 ADD DUP1 PUSH1 0x40 MSTORE POP DUP2 ADD SWAP1 PUSH3 0x402 SWAP2 SWAP1 PUSH3 0x7DA JUMP JUMPDEST DUP4 PUSH20 0xFFFFFFFFFFFFFFFFFFFFFFFFFFFFFFFFFFFFFFFF AND PUSH4 0x1EAEDA03 PUSH1 0x40 MLOAD DUP2 PUSH4 0xFFFFFFFF AND PUSH1 0xE0 SHL DUP2 MSTORE PUSH1 0x4 ADD PUSH1 0x20 PUSH1 0x40 MLOAD DUP1 DUP4 SUB DUP2 DUP7 GAS STATICCALL ISZERO DUP1 ISZERO PUSH3 0x44E JUMPI RETURNDATASIZE PUSH1 0x0 DUP1 RETURNDATACOPY RETURNDATASIZE PUSH1 0x0 REVERT JUMPDEST POP POP POP POP PUSH1 0x40 MLOAD RETURNDATASIZE PUSH1 0x1F NOT PUSH1 0x1F DUP3 ADD AND DUP3 ADD DUP1 PUSH1 0x40 MSTORE POP DUP2 ADD SWAP1 PUSH3 0x474 SWAP2 SWAP1 PUSH3 0x823 JUMP JUMPDEST SWAP5 POP SWAP5 POP SWAP5 POP SWAP5 POP POP SWAP3 SWAP6 SWAP2 SWAP5 POP SWAP3 POP JUMP JUMPDEST PUSH2 0x1D91 DUP1 PUSH3 0x856 DUP4 CODECOPY ADD SWAP1 JUMP JUMPDEST PUSH1 0x0 DUP1 REVERT JUMPDEST PUSH1 0x0 PUSH1 0xFF DUP3 AND SWAP1 POP SWAP2 SWAP1 POP JUMP JUMPDEST PUSH3 0x4B1 DUP2 PUSH3 0x499 JUMP JUMPDEST DUP2 EQ PUSH3 0x4BD JUMPI PUSH1 0x0 DUP1 REVERT JUMPDEST POP JUMP JUMPDEST PUSH1 0x0 DUP2 CALLDATALOAD SWAP1 POP PUSH3 0x4D1 DUP2 PUSH3 0x4A6 JUMP JUMPDEST SWAP3 SWAP2 POP POP JUMP JUMPDEST PUSH1 0x0 DUP2 SWAP1 POP SWAP2 SWAP1 POP JUMP JUMPDEST PUSH3 0x4EC DUP2 PUSH3 0x4D7 JUMP JUMPDEST DUP2 EQ PUSH3 0x4F8 JUMPI PUSH1 0x0 DUP1 REVERT JUMPDEST POP JUMP JUMPDEST PUSH1 0x0 DUP2 CALLDATALOAD SWAP1 POP PUSH3 0x50C DUP2 PUSH3 0x4E1 JUMP JUMPDEST SWAP3 SWAP2 POP POP JUMP JUMPDEST PUSH1 0x0 DUP1 PUSH1 0x40 DUP4 DUP6 SUB SLT ISZERO PUSH3 0x52C JUMPI PUSH3 0x52B PUSH3 0x494 JUMP JUMPDEST JUMPDEST PUSH1 0x0 PUSH3 0x53C DUP6 DUP3 DUP7 ADD PUSH3 0x4C0 JUMP JUMPDEST SWAP3 POP POP PUSH1 0x20 PUSH3 0x54F DUP6 DUP3 DUP7 ADD PUSH3 0x4FB JUMP JUMPDEST SWAP2 POP POP SWAP3 POP SWAP3 SWAP1 POP JUMP JUMPDEST PUSH1 0x0 PUSH20 0xFFFFFFFFFFFFFFFFFFFFFFFFFFFFFFFFFFFFFFFF DUP3 AND SWAP1 POP SWAP2 SWAP1 POP JUMP JUMPDEST PUSH1 0x0 PUSH3 0x586 DUP3 PUSH3 0x559 JUMP JUMPDEST SWAP1 POP SWAP2 SWAP1 POP JUMP JUMPDEST PUSH3 0x598 DUP2 PUSH3 0x579 JUMP JUMPDEST DUP3 MSTORE POP POP JUMP JUMPDEST PUSH1 0x0 PUSH1 0x20 DUP3 ADD SWAP1 POP PUSH3 0x5B5 PUSH1 0x0 DUP4 ADD DUP5 PUSH3 0x58D JUMP JUMPDEST SWAP3 SWAP2 POP POP JUMP JUMPDEST PUSH1 0x0 PUSH1 0x20 DUP3 DUP5 SUB SLT ISZERO PUSH3 0x5D4 JUMPI PUSH3 0x5D3 PUSH3 0x494 JUMP JUMPDEST JUMPDEST PUSH1 0x0 PUSH3 0x5E4 DUP5 DUP3 DUP6 ADD PUSH3 0x4C0 JUMP JUMPDEST SWAP2 POP POP SWAP3 SWAP2 POP POP JUMP JUMPDEST PUSH3 0x5F8 DUP2 PUSH3 0x4D7 JUMP JUMPDEST DUP3 MSTORE POP POP JUMP JUMPDEST PUSH1 0x0 PUSH1 0x20 DUP3 ADD SWAP1 POP PUSH3 0x615 PUSH1 0x0 DUP4 ADD DUP5 PUSH3 0x5ED JUMP JUMPDEST SWAP3 SWAP2 POP POP JUMP JUMPDEST PUSH1 0x0 PUSH16 0xFFFFFFFFFFFFFFFFFFFFFFFFFFFFFFFF DUP3 AND SWAP1 POP SWAP2 SWAP1 POP JUMP JUMPDEST PUSH3 0x642 DUP2 PUSH3 0x61B JUMP JUMPDEST DUP2 EQ PUSH3 0x64E JUMPI PUSH1 0x0 DUP1 REVERT JUMPDEST POP JUMP JUMPDEST PUSH1 0x0 DUP2 CALLDATALOAD SWAP1 POP PUSH3 0x662 DUP2 PUSH3 0x637 JUMP JUMPDEST SWAP3 SWAP2 POP POP JUMP JUMPDEST PUSH1 0x0 DUP1 PUSH1 0x40 DUP4 DUP6 SUB SLT ISZERO PUSH3 0x682 JUMPI PUSH3 0x681 PUSH3 0x494 JUMP JUMPDEST JUMPDEST PUSH1 0x0 PUSH3 0x692 DUP6 DUP3 DUP7 ADD PUSH3 0x651 JUMP JUMPDEST SWAP3 POP POP PUSH1 0x20 PUSH3 0x6A5 DUP6 DUP3 DUP7 ADD PUSH3 0x4C0 JUMP JUMPDEST SWAP2 POP POP SWAP3 POP SWAP3 SWAP1 POP JUMP JUMPDEST PUSH3 0x6BA DUP2 PUSH3 0x61B JUMP JUMPDEST DUP3 MSTORE POP POP JUMP JUMPDEST PUSH3 0x6CB DUP2 PUSH3 0x499 JUMP JUMPDEST DUP3 MSTORE POP POP JUMP JUMPDEST PUSH1 0x0 PUSH1 0x80 DUP3 ADD SWAP1 POP PUSH3 0x6E8 PUSH1 0x0 DUP4 ADD DUP8 PUSH3 0x58D JUMP JUMPDEST PUSH3 0x6F7 PUSH1 0x20 DUP4 ADD DUP7 PUSH3 0x6AF JUMP JUMPDEST PUSH3 0x706 PUSH1 0x40 DUP4 ADD DUP6 PUSH3 0x6C0 JUMP JUMPDEST PUSH3 0x715 PUSH1 0x60 DUP4 ADD DUP5 PUSH3 0x5ED JUMP JUMPDEST SWAP6 SWAP5 POP POP POP POP POP JUMP JUMPDEST PUSH1 0x0 PUSH1 0x40 DUP3 ADD SWAP1 POP PUSH3 0x735 PUSH1 0x0 DUP4 ADD DUP6 PUSH3 0x6AF JUMP JUMPDEST PUSH3 0x744 PUSH1 0x20 DUP4 ADD DUP5 PUSH3 0x6C0 JUMP JUMPDEST SWAP4 SWAP3 POP POP POP JUMP JUMPDEST PUSH32 0x4E487B7100000000000000000000000000000000000000000000000000000000 PUSH1 0x0 MSTORE PUSH1 0x32 PUSH1 0x4 MSTORE PUSH1 0x24 PUSH1 0x0 REVERT JUMPDEST PUSH1 0x0 DUP2 MLOAD SWAP1 POP PUSH3 0x78B DUP2 PUSH3 0x637 JUMP JUMPDEST SWAP3 SWAP2 POP POP JUMP JUMPDEST PUSH1 0x0 PUSH1 0x20 DUP3 DUP5 SUB SLT ISZERO PUSH3 0x7AA JUMPI PUSH3 0x7A9 PUSH3 0x494 JUMP JUMPDEST JUMPDEST PUSH1 0x0 PUSH3 0x7BA DUP5 DUP3 DUP6 ADD PUSH3 0x77A JUMP JUMPDEST SWAP2 POP POP SWAP3 SWAP2 POP POP JUMP JUMPDEST PUSH1 0x0 DUP2 MLOAD SWAP1 POP PUSH3 0x7D4 DUP2 PUSH3 0x4A6 JUMP JUMPDEST SWAP3 SWAP2 POP POP JUMP JUMPDEST PUSH1 0x0 PUSH1 0x20 DUP3 DUP5 SUB SLT ISZERO PUSH3 0x7F3 JUMPI PUSH3 0x7F2 PUSH3 0x494 JUMP JUMPDEST JUMPDEST PUSH1 0x0 PUSH3 0x803 DUP5 DUP3 DUP6 ADD PUSH3 0x7C3 JUMP JUMPDEST SWAP2 POP POP SWAP3 SWAP2 POP POP JUMP JUMPDEST PUSH1 0x0 DUP2 MLOAD SWAP1 POP PUSH3 0x81D DUP2 PUSH3 0x4E1 JUMP JUMPDEST SWAP3 SWAP2 POP POP JUMP JUMPDEST PUSH1 0x0 PUSH1 0x20 DUP3 DUP5 SUB SLT ISZERO PUSH3 0x83C JUMPI PUSH3 0x83B PUSH3 0x494 JUMP JUMPDEST JUMPDEST PUSH1 0x0 PUSH3 0x84C DUP5 DUP3 DUP6 ADD PUSH3 0x80C JUMP JUMPDEST SWAP2 POP POP SWAP3 SWAP2 POP POP JUMP INVALID PUSH1 0x80 PUSH1 0x40 MSTORE PUSH1 0x1 PUSH1 0x0 SSTORE PUSH20 0xDEAD000000000000000042069420694206942069 PUSH1 0x2 PUSH1 0x0 PUSH2 0x100 EXP DUP2 SLOAD DUP2 PUSH20 0xFFFFFFFFFFFFFFFFFFFFFFFFFFFFFFFFFFFFFFFF MUL NOT AND SWAP1 DUP4 PUSH20 0xFFFFFFFFFFFFFFFFFFFFFFFFFFFFFFFFFFFFFFFF AND MUL OR SWAP1 SSTORE POP PUSH1 0x1 PUSH1 0x3 PUSH1 0x12 PUSH2 0x100 EXP DUP2 SLOAD DUP2 PUSH1 0xFF MUL NOT AND SWAP1 DUP4 PUSH1 0xFF AND MUL OR SWAP1 SSTORE POP CALLVALUE DUP1 ISZERO PUSH3 0x87 JUMPI PUSH1 0x0 DUP1 REVERT JUMPDEST POP PUSH1 0x40 MLOAD PUSH3 0x1D91 CODESIZE SUB DUP1 PUSH3 0x1D91 DUP4 CODECOPY DUP2 DUP2 ADD PUSH1 0x40 MSTORE DUP2 ADD SWAP1 PUSH3 0xAD SWAP2 SWAP1 PUSH3 0x2F4 JUMP JUMPDEST PUSH1 0x0 DUP3 PUSH16 0xFFFFFFFFFFFFFFFFFFFFFFFFFFFFFFFF AND GT PUSH3 0x105 JUMPI PUSH1 0x40 MLOAD PUSH32 0x8C379A000000000000000000000000000000000000000000000000000000000 DUP2 MSTORE PUSH1 0x4 ADD PUSH3 0xFC SWAP1 PUSH3 0x39C JUMP JUMPDEST PUSH1 0x40 MLOAD DUP1 SWAP2 SUB SWAP1 REVERT JUMPDEST PUSH1 0x1 DUP2 PUSH1 0xFF AND GT PUSH3 0x14E JUMPI PUSH1 0x40 MLOAD PUSH32 0x8C379A000000000000000000000000000000000000000000000000000000000 DUP2 MSTORE PUSH1 0x4 ADD PUSH3 0x145 SWAP1 PUSH3 0x40E JUMP JUMPDEST PUSH1 0x40 MLOAD DUP1 SWAP2 SUB SWAP1 REVERT JUMPDEST PUSH1 0x0 PUSH1 0x1 DUP3 PUSH3 0x15F SWAP2 SWAP1 PUSH3 0x45F JUMP JUMPDEST PUSH1 0xFF AND DUP4 PUSH3 0x16F SWAP2 SWAP1 PUSH3 0x4CA JUMP JUMPDEST PUSH16 0xFFFFFFFFFFFFFFFFFFFFFFFFFFFFFFFF AND EQ PUSH3 0x1C4 JUMPI PUSH1 0x40 MLOAD PUSH32 0x8C379A000000000000000000000000000000000000000000000000000000000 DUP2 MSTORE PUSH1 0x4 ADD PUSH3 0x1BB SWAP1 PUSH3 0x552 JUMP JUMPDEST PUSH1 0x40 MLOAD DUP1 SWAP2 SUB SWAP1 REVERT JUMPDEST DUP2 PUSH1 0x3 PUSH1 0x0 PUSH2 0x100 EXP DUP2 SLOAD DUP2 PUSH16 0xFFFFFFFFFFFFFFFFFFFFFFFFFFFFFFFF MUL NOT AND SWAP1 DUP4 PUSH16 0xFFFFFFFFFFFFFFFFFFFFFFFFFFFFFFFF AND MUL OR SWAP1 SSTORE POP DUP1 PUSH1 0x3 PUSH1 0x10 PUSH2 0x100 EXP DUP2 SLOAD DUP2 PUSH1 0xFF MUL NOT AND SWAP1 DUP4 PUSH1 0xFF AND MUL OR SWAP1 SSTORE POP PUSH1 0x1 DUP2 PUSH3 0x227 SWAP2 SWAP1 PUSH3 0x45F JUMP JUMPDEST PUSH1 0xFF AND DUP3 PUSH3 0x237 SWAP2 SWAP1 PUSH3 0x574 JUMP JUMPDEST DUP3 PUSH3 0x244 SWAP2 SWAP1 PUSH3 0x5AC JUMP JUMPDEST PUSH16 0xFFFFFFFFFFFFFFFFFFFFFFFFFFFFFFFF AND PUSH1 0x1 DUP2 SWAP1 SSTORE POP POP POP PUSH3 0x5F7 JUMP JUMPDEST PUSH1 0x0 DUP1 REVERT JUMPDEST PUSH1 0x0 PUSH16 0xFFFFFFFFFFFFFFFFFFFFFFFFFFFFFFFF DUP3 AND SWAP1 POP SWAP2 SWAP1 POP JUMP JUMPDEST PUSH3 0x290 DUP2 PUSH3 0x269 JUMP JUMPDEST DUP2 EQ PUSH3 0x29C JUMPI PUSH1 0x0 DUP1 REVERT JUMPDEST POP JUMP JUMPDEST PUSH1 0x0 DUP2 MLOAD SWAP1 POP PUSH3 0x2B0 DUP2 PUSH3 0x285 JUMP JUMPDEST SWAP3 SWAP2 POP POP JUMP JUMPDEST PUSH1 0x0 PUSH1 0xFF DUP3 AND SWAP1 POP SWAP2 SWAP1 POP JUMP JUMPDEST PUSH3 0x2CE DUP2 PUSH3 0x2B6 JUMP JUMPDEST DUP2 EQ PUSH3 0x2DA JUMPI PUSH1 0x0 DUP1 REVERT JUMPDEST POP JUMP JUMPDEST PUSH1 0x0 DUP2 MLOAD SWAP1 POP PUSH3 0x2EE DUP2 PUSH3 0x2C3 JUMP JUMPDEST SWAP3 SWAP2 POP POP JUMP JUMPDEST PUSH1 0x0 DUP1 PUSH1 0x40 DUP4 DUP6 SUB SLT ISZERO PUSH3 0x30E JUMPI PUSH3 0x30D PUSH3 0x264 JUMP JUMPDEST JUMPDEST PUSH1 0x0 PUSH3 0x31E DUP6 DUP3 DUP7 ADD PUSH3 0x29F JUMP JUMPDEST SWAP3 POP POP PUSH1 0x20 PUSH3 0x331 DUP6 DUP3 DUP7 ADD PUSH3 0x2DD JUMP JUMPDEST SWAP2 POP POP SWAP3 POP SWAP3 SWAP1 POP JUMP JUMPDEST PUSH1 0x0 DUP3 DUP3 MSTORE PUSH1 0x20 DUP3 ADD SWAP1 POP SWAP3 SWAP2 POP POP JUMP JUMPDEST PUSH32 0x5374616B65206D757374206265206E6F6E2D7A65726F2E000000000000000000 PUSH1 0x0 DUP3 ADD MSTORE POP JUMP JUMPDEST PUSH1 0x0 PUSH3 0x384 PUSH1 0x17 DUP4 PUSH3 0x33B JUMP JUMPDEST SWAP2 POP PUSH3 0x391 DUP3 PUSH3 0x34C JUMP JUMPDEST PUSH1 0x20 DUP3 ADD SWAP1 POP SWAP2 SWAP1 POP JUMP JUMPDEST PUSH1 0x0 PUSH1 0x20 DUP3 ADD SWAP1 POP DUP2 DUP2 SUB PUSH1 0x0 DUP4 ADD MSTORE PUSH3 0x3B7 DUP2 PUSH3 0x375 JUMP JUMPDEST SWAP1 POP SWAP2 SWAP1 POP JUMP JUMPDEST PUSH32 0x4D617820706C6179657273206D757374206265203E20312E0000000000000000 PUSH1 0x0 DUP3 ADD MSTORE POP JUMP JUMPDEST PUSH1 0x0 PUSH3 0x3F6 PUSH1 0x18 DUP4 PUSH3 0x33B JUMP JUMPDEST SWAP2 POP PUSH3 0x403 DUP3 PUSH3 0x3BE JUMP JUMPDEST PUSH1 0x20 DUP3 ADD SWAP1 POP SWAP2 SWAP1 POP JUMP JUMPDEST PUSH1 0x0 PUSH1 0x20 DUP3 ADD SWAP1 POP DUP2 DUP2 SUB PUSH1 0x0 DUP4 ADD MSTORE PUSH3 0x429 DUP2 PUSH3 0x3E7 JUMP JUMPDEST SWAP1 POP SWAP2 SWAP1 POP JUMP JUMPDEST PUSH32 0x4E487B7100000000000000000000000000000000000000000000000000000000 PUSH1 0x0 MSTORE PUSH1 0x11 PUSH1 0x4 MSTORE PUSH1 0x24 PUSH1 0x0 REVERT JUMPDEST PUSH1 0x0 PUSH3 0x46C DUP3 PUSH3 0x2B6 JUMP JUMPDEST SWAP2 POP PUSH3 0x479 DUP4 PUSH3 0x2B6 JUMP JUMPDEST SWAP3 POP DUP3 DUP3 SUB SWAP1 POP PUSH1 0xFF DUP2 GT ISZERO PUSH3 0x495 JUMPI PUSH3 0x494 PUSH3 0x430 JUMP JUMPDEST JUMPDEST SWAP3 SWAP2 POP POP JUMP JUMPDEST PUSH32 0x4E487B7100000000000000000000000000000000000000000000000000000000 PUSH1 0x0 MSTORE PUSH1 0x12 PUSH1 0x4 MSTORE PUSH1 0x24 PUSH1 0x0 REVERT JUMPDEST PUSH1 0x0 PUSH3 0x4D7 DUP3 PUSH3 0x269 JUMP JUMPDEST SWAP2 POP PUSH3 0x4E4 DUP4 PUSH3 0x269 JUMP JUMPDEST SWAP3 POP DUP3 PUSH3 0x4F7 JUMPI PUSH3 0x4F6 PUSH3 0x49B JUMP JUMPDEST JUMPDEST DUP3 DUP3 MOD SWAP1 POP SWAP3 SWAP2 POP POP JUMP JUMPDEST PUSH32 0x5374616B652073686F756C642062652064697669646564206576656E6C792E00 PUSH1 0x0 DUP3 ADD MSTORE POP JUMP JUMPDEST PUSH1 0x0 PUSH3 0x53A PUSH1 0x1F DUP4 PUSH3 0x33B JUMP JUMPDEST SWAP2 POP PUSH3 0x547 DUP3 PUSH3 0x502 JUMP JUMPDEST PUSH1 0x20 DUP3 ADD SWAP1 POP SWAP2 SWAP1 POP JUMP JUMPDEST PUSH1 0x0 PUSH1 0x20 DUP3 ADD SWAP1 POP DUP2 DUP2 SUB PUSH1 0x0 DUP4 ADD MSTORE PUSH3 0x56D DUP2 PUSH3 0x52B JUMP JUMPDEST SWAP1 POP SWAP2 SWAP1 POP JUMP JUMPDEST PUSH1 0x0 PUSH3 0x581 DUP3 PUSH3 0x269 JUMP JUMPDEST SWAP2 POP PUSH3 0x58E DUP4 PUSH3 0x269 JUMP JUMPDEST SWAP3 POP DUP3 PUSH3 0x5A1 JUMPI PUSH3 0x5A0 PUSH3 0x49B JUMP JUMPDEST JUMPDEST DUP3 DUP3 DIV SWAP1 POP SWAP3 SWAP2 POP POP JUMP JUMPDEST PUSH1 0x0 PUSH3 0x5B9 DUP3 PUSH3 0x269 JUMP JUMPDEST SWAP2 POP PUSH3 0x5C6 DUP4 PUSH3 0x269 JUMP JUMPDEST SWAP3 POP DUP3 DUP3 ADD SWAP1 POP PUSH16 0xFFFFFFFFFFFFFFFFFFFFFFFFFFFFFFFF DUP2 GT ISZERO PUSH3 0x5F1 JUMPI PUSH3 0x5F0 PUSH3 0x430 JUMP JUMPDEST JUMPDEST SWAP3 SWAP2 POP POP JUMP JUMPDEST PUSH2 0x178A DUP1 PUSH3 0x607 PUSH1 0x0 CODECOPY PUSH1 0x0 RETURN INVALID PUSH1 0x80 PUSH1 0x40 MSTORE PUSH1 0x4 CALLDATASIZE LT PUSH2 0x91 JUMPI PUSH1 0x0 CALLDATALOAD PUSH1 0xE0 SHR DUP1 PUSH4 0x59FE06E0 GT PUSH2 0x59 JUMPI DUP1 PUSH4 0x59FE06E0 EQ PUSH2 0x17F JUMPI DUP1 PUSH4 0x63BD1D4A EQ PUSH2 0x1AA JUMPI DUP1 PUSH4 0x6E1F7034 EQ PUSH2 0x1D5 JUMPI DUP1 PUSH4 0x78B77A94 EQ PUSH2 0x200 JUMPI DUP1 PUSH4 0xD69A1876 EQ PUSH2 0x23D JUMPI PUSH2 0x91 JUMP JUMPDEST DUP1 PUSH4 0x56D9F28 EQ PUSH2 0x96 JUMPI DUP1 PUSH4 0x1EAEDA03 EQ PUSH2 0xD3 JUMPI DUP1 PUSH4 0x2970AC44 EQ PUSH2 0xFE JUMPI DUP1 PUSH4 0x3A4B66F1 EQ PUSH2 0x129 JUMPI DUP1 PUSH4 0x4C2412A2 EQ PUSH2 0x154 JUMPI JUMPDEST PUSH1 0x0 DUP1 REVERT JUMPDEST CALLVALUE DUP1 ISZERO PUSH2 0xA2 JUMPI PUSH1 0x0 DUP1 REVERT JUMPDEST POP PUSH2 0xBD PUSH1 0x4 DUP1 CALLDATASIZE SUB DUP2 ADD SWAP1 PUSH2 0xB8 SWAP2 SWAP1 PUSH2 0xF91 JUMP JUMPDEST PUSH2 0x259 JUMP JUMPDEST PUSH1 0x40 MLOAD PUSH2 0xCA SWAP2 SWAP1 PUSH2 0xFFF JUMP JUMPDEST PUSH1 0x40 MLOAD DUP1 SWAP2 SUB SWAP1 RETURN JUMPDEST CALLVALUE DUP1 ISZERO PUSH2 0xDF JUMPI PUSH1 0x0 DUP1 REVERT JUMPDEST POP PUSH2 0xE8 PUSH2 0x28C JUMP JUMPDEST PUSH1 0x40 MLOAD PUSH2 0xF5 SWAP2 SWAP1 PUSH2 0x1033 JUMP JUMPDEST PUSH1 0x40 MLOAD DUP1 SWAP2 SUB SWAP1 RETURN JUMPDEST CALLVALUE DUP1 ISZERO PUSH2 0x10A JUMPI PUSH1 0x0 DUP1 REVERT JUMPDEST POP PUSH2 0x113 PUSH2 0x292 JUMP JUMPDEST PUSH1 0x40 MLOAD PUSH2 0x120 SWAP2 SWAP1 PUSH2 0x105D JUMP JUMPDEST PUSH1 0x40 MLOAD DUP1 SWAP2 SUB SWAP1 RETURN JUMPDEST CALLVALUE DUP1 ISZERO PUSH2 0x135 JUMPI PUSH1 0x0 DUP1 REVERT JUMPDEST POP PUSH2 0x13E PUSH2 0x2A5 JUMP JUMPDEST PUSH1 0x40 MLOAD PUSH2 0x14B SWAP2 SWAP1 PUSH2 0x10A3 JUMP JUMPDEST PUSH1 0x40 MLOAD DUP1 SWAP2 SUB SWAP1 RETURN JUMPDEST CALLVALUE DUP1 ISZERO PUSH2 0x160 JUMPI PUSH1 0x0 DUP1 REVERT JUMPDEST POP PUSH2 0x169 PUSH2 0x2C7 JUMP JUMPDEST PUSH1 0x40 MLOAD PUSH2 0x176 SWAP2 SWAP1 PUSH2 0x105D JUMP JUMPDEST PUSH1 0x40 MLOAD DUP1 SWAP2 SUB SWAP1 RETURN JUMPDEST CALLVALUE DUP1 ISZERO PUSH2 0x18B JUMPI PUSH1 0x0 DUP1 REVERT JUMPDEST POP PUSH2 0x194 PUSH2 0x2DA JUMP JUMPDEST PUSH1 0x40 MLOAD PUSH2 0x1A1 SWAP2 SWAP1 PUSH2 0x105D JUMP JUMPDEST PUSH1 0x40 MLOAD DUP1 SWAP2 SUB SWAP1 RETURN JUMPDEST CALLVALUE DUP1 ISZERO PUSH2 0x1B6 JUMPI PUSH1 0x0 DUP1 REVERT JUMPDEST POP PUSH2 0x1BF PUSH2 0x2ED JUMP JUMPDEST PUSH1 0x40 MLOAD PUSH2 0x1CC SWAP2 SWAP1 PUSH2 0x1033 JUMP JUMPDEST PUSH1 0x40 MLOAD DUP1 SWAP2 SUB SWAP1 RETURN JUMPDEST CALLVALUE DUP1 ISZERO PUSH2 0x1E1 JUMPI PUSH1 0x0 DUP1 REVERT JUMPDEST POP PUSH2 0x1EA PUSH2 0x2F3 JUMP JUMPDEST PUSH1 0x40 MLOAD PUSH2 0x1F7 SWAP2 SWAP1 PUSH2 0xFFF JUMP JUMPDEST PUSH1 0x40 MLOAD DUP1 SWAP2 SUB SWAP1 RETURN JUMPDEST CALLVALUE DUP1 ISZERO PUSH2 0x20C JUMPI PUSH1 0x0 DUP1 REVERT JUMPDEST POP PUSH2 0x227 PUSH1 0x4 DUP1 CALLDATASIZE SUB DUP2 ADD SWAP1 PUSH2 0x222 SWAP2 SWAP1 PUSH2 0xF91 JUMP JUMPDEST PUSH2 0x319 JUMP JUMPDEST PUSH1 0x40 MLOAD PUSH2 0x234 SWAP2 SWAP1 PUSH2 0x105D JUMP JUMPDEST PUSH1 0x40 MLOAD DUP1 SWAP2 SUB SWAP1 RETURN JUMPDEST PUSH2 0x257 PUSH1 0x4 DUP1 CALLDATASIZE SUB DUP2 ADD SWAP1 PUSH2 0x252 SWAP2 SWAP1 PUSH2 0x10F6 JUMP JUMPDEST PUSH2 0x733 JUMP JUMPDEST STOP JUMPDEST PUSH1 0x4 PUSH1 0x20 MSTORE DUP1 PUSH1 0x0 MSTORE PUSH1 0x40 PUSH1 0x0 KECCAK256 PUSH1 0x0 SWAP2 POP SLOAD SWAP1 PUSH2 0x100 EXP SWAP1 DIV PUSH20 0xFFFFFFFFFFFFFFFFFFFFFFFFFFFFFFFFFFFFFFFF AND DUP2 JUMP JUMPDEST PUSH1 0x0 SLOAD DUP2 JUMP JUMPDEST PUSH1 0x3 PUSH1 0x11 SWAP1 SLOAD SWAP1 PUSH2 0x100 EXP SWAP1 DIV PUSH1 0xFF AND DUP2 JUMP JUMPDEST PUSH1 0x3 PUSH1 0x0 SWAP1 SLOAD SWAP1 PUSH2 0x100 EXP SWAP1 DIV PUSH16 0xFFFFFFFFFFFFFFFFFFFFFFFFFFFFFFFF AND DUP2 JUMP JUMPDEST PUSH1 0x3 PUSH1 0x10 SWAP1 SLOAD SWAP1 PUSH2 0x100 EXP SWAP1 DIV PUSH1 0xFF AND DUP2 JUMP JUMPDEST PUSH1 0x3 PUSH1 0x12 SWAP1 SLOAD SWAP1 PUSH2 0x100 EXP SWAP1 DIV PUSH1 0xFF AND DUP2 JUMP JUMPDEST PUSH1 0x1 SLOAD DUP2 JUMP JUMPDEST PUSH1 0x2 PUSH1 0x0 SWAP1 SLOAD SWAP1 PUSH2 0x100 EXP SWAP1 DIV PUSH20 0xFFFFFFFFFFFFFFFFFFFFFFFFFFFFFFFFFFFFFFFF AND DUP2 JUMP JUMPDEST PUSH1 0x0 DUP1 DUP3 PUSH1 0xFF AND GT PUSH2 0x360 JUMPI PUSH1 0x40 MLOAD PUSH32 0x8C379A000000000000000000000000000000000000000000000000000000000 DUP2 MSTORE PUSH1 0x4 ADD PUSH2 0x357 SWAP1 PUSH2 0x1180 JUMP JUMPDEST PUSH1 0x40 MLOAD DUP1 SWAP2 SUB SWAP1 REVERT JUMPDEST PUSH1 0x0 PUSH1 0x3 PUSH1 0x11 SWAP1 SLOAD SWAP1 PUSH2 0x100 EXP SWAP1 DIV PUSH1 0xFF AND SWAP1 POP PUSH1 0x3 PUSH1 0x10 SWAP1 SLOAD SWAP1 PUSH2 0x100 EXP SWAP1 DIV PUSH1 0xFF AND PUSH1 0xFF AND DUP2 PUSH1 0xFF AND SUB PUSH2 0x3CB JUMPI PUSH1 0x40 MLOAD PUSH32 0x8C379A000000000000000000000000000000000000000000000000000000000 DUP2 MSTORE PUSH1 0x4 ADD PUSH2 0x3C2 SWAP1 PUSH2 0x11EC JUMP JUMPDEST PUSH1 0x40 MLOAD DUP1 SWAP2 SUB SWAP1 REVERT JUMPDEST PUSH20 0xDEAD000000000000000042069420694206942069 PUSH20 0xFFFFFFFFFFFFFFFFFFFFFFFFFFFFFFFFFFFFFFFF AND CALLER PUSH20 0xFFFFFFFFFFFFFFFFFFFFFFFFFFFFFFFFFFFFFFFF AND SUB PUSH2 0x417 JUMPI PUSH1 0x0 DUP1 REVERT JUMPDEST PUSH1 0x0 DUP1 JUMPDEST DUP3 PUSH1 0xFF AND DUP2 PUSH1 0xFF AND LT DUP1 ISZERO PUSH2 0x435 JUMPI POP DUP5 PUSH1 0xFF AND DUP3 PUSH1 0xFF AND LT JUMPDEST ISZERO PUSH2 0x622 JUMPI CALLER PUSH20 0xFFFFFFFFFFFFFFFFFFFFFFFFFFFFFFFFFFFFFFFF AND PUSH1 0x4 PUSH1 0x0 DUP4 PUSH1 0xFF AND PUSH1 0xFF AND DUP2 MSTORE PUSH1 0x20 ADD SWAP1 DUP2 MSTORE PUSH1 0x20 ADD PUSH1 0x0 KECCAK256 PUSH1 0x0 SWAP1 SLOAD SWAP1 PUSH2 0x100 EXP SWAP1 DIV PUSH20 0xFFFFFFFFFFFFFFFFFFFFFFFFFFFFFFFFFFFFFFFF AND PUSH20 0xFFFFFFFFFFFFFFFFFFFFFFFFFFFFFFFFFFFFFFFF AND EQ PUSH2 0x4B7 JUMPI DUP1 PUSH2 0x4B0 SWAP1 PUSH2 0x123B JUMP JUMPDEST SWAP1 POP PUSH2 0x41B JUMP JUMPDEST DUP3 PUSH2 0x4C1 SWAP1 PUSH2 0x1264 JUMP JUMPDEST SWAP3 POP DUP3 PUSH1 0xFF AND DUP2 PUSH1 0xFF AND EQ PUSH2 0x562 JUMPI PUSH1 0x4 PUSH1 0x0 DUP5 PUSH1 0xFF AND PUSH1 0xFF AND DUP2 MSTORE PUSH1 0x20 ADD SWAP1 DUP2 MSTORE PUSH1 0x20 ADD PUSH1 0x0 KECCAK256 PUSH1 0x0 SWAP1 SLOAD SWAP1 PUSH2 0x100 EXP SWAP1 DIV PUSH20 0xFFFFFFFFFFFFFFFFFFFFFFFFFFFFFFFFFFFFFFFF AND PUSH1 0x4 PUSH1 0x0 DUP4 PUSH1 0xFF AND PUSH1 0xFF AND DUP2 MSTORE PUSH1 0x20 ADD SWAP1 DUP2 MSTORE PUSH1 0x20 ADD PUSH1 0x0 KECCAK256 PUSH1 0x0 PUSH2 0x100 EXP DUP2 SLOAD DUP2 PUSH20 0xFFFFFFFFFFFFFFFFFFFFFFFFFFFFFFFFFFFFFFFF MUL NOT AND SWAP1 DUP4 PUSH20 0xFFFFFFFFFFFFFFFFFFFFFFFFFFFFFFFFFFFFFFFF AND MUL OR SWAP1 SSTORE POP JUMPDEST PUSH20 0xDEAD000000000000000042069420694206942069 PUSH1 0x4 PUSH1 0x0 DUP6 PUSH1 0xFF AND PUSH1 0xFF AND DUP2 MSTORE PUSH1 0x20 ADD SWAP1 DUP2 MSTORE PUSH1 0x20 ADD PUSH1 0x0 KECCAK256 PUSH1 0x0 PUSH2 0x100 EXP DUP2 SLOAD DUP2 PUSH20 0xFFFFFFFFFFFFFFFFFFFFFFFFFFFFFFFFFFFFFFFF MUL NOT AND SWAP1 DUP4 PUSH20 0xFFFFFFFFFFFFFFFFFFFFFFFFFFFFFFFFFFFFFFFF AND MUL OR SWAP1 SSTORE POP DUP1 PUSH2 0x5D8 SWAP1 PUSH2 0x123B JUMP JUMPDEST SWAP1 POP DUP2 PUSH2 0x5E4 SWAP1 PUSH2 0x123B JUMP JUMPDEST SWAP2 POP PUSH32 0xC5261CB694FA044AA236DF31226959A7A2078D4EB090616AE7345A9EE9CFABC0 DUP4 PUSH1 0x40 MLOAD PUSH2 0x615 SWAP2 SWAP1 PUSH2 0x105D JUMP JUMPDEST PUSH1 0x40 MLOAD DUP1 SWAP2 SUB SWAP1 LOG1 PUSH2 0x41B JUMP JUMPDEST DUP3 PUSH1 0x3 PUSH1 0x11 PUSH2 0x100 EXP DUP2 SLOAD DUP2 PUSH1 0xFF MUL NOT AND SWAP1 DUP4 PUSH1 0xFF AND MUL OR SWAP1 SSTORE POP PUSH1 0x0 CALLER PUSH20 0xFFFFFFFFFFFFFFFFFFFFFFFFFFFFFFFFFFFFFFFF AND DUP4 PUSH1 0xFF AND PUSH1 0x3 PUSH1 0x0 SWAP1 SLOAD SWAP1 PUSH2 0x100 EXP SWAP1 DIV PUSH16 0xFFFFFFFFFFFFFFFFFFFFFFFFFFFFFFFF AND PUSH16 0xFFFFFFFFFFFFFFFFFFFFFFFFFFFFFFFF AND PUSH2 0x695 SWAP2 SWAP1 PUSH2 0x128D JUMP JUMPDEST PUSH1 0x40 MLOAD PUSH2 0x6A1 SWAP1 PUSH2 0x1300 JUMP JUMPDEST PUSH1 0x0 PUSH1 0x40 MLOAD DUP1 DUP4 SUB DUP2 DUP6 DUP8 GAS CALL SWAP3 POP POP POP RETURNDATASIZE DUP1 PUSH1 0x0 DUP2 EQ PUSH2 0x6DE JUMPI PUSH1 0x40 MLOAD SWAP2 POP PUSH1 0x1F NOT PUSH1 0x3F RETURNDATASIZE ADD AND DUP3 ADD PUSH1 0x40 MSTORE RETURNDATASIZE DUP3 MSTORE RETURNDATASIZE PUSH1 0x0 PUSH1 0x20 DUP5 ADD RETURNDATACOPY PUSH2 0x6E3 JUMP JUMPDEST PUSH1 0x60 SWAP2 POP JUMPDEST POP POP SWAP1 POP DUP1 PUSH2 0x727 JUMPI PUSH1 0x40 MLOAD PUSH32 0x8C379A000000000000000000000000000000000000000000000000000000000 DUP2 MSTORE PUSH1 0x4 ADD PUSH2 0x71E SWAP1 PUSH2 0x1361 JUMP JUMPDEST PUSH1 0x40 MLOAD DUP1 SWAP2 SUB SWAP1 REVERT JUMPDEST DUP3 SWAP5 POP POP POP POP POP SWAP2 SWAP1 POP JUMP JUMPDEST PUSH1 0x0 SLOAD NUMBER LT ISZERO PUSH2 0x778 JUMPI PUSH1 0x40 MLOAD PUSH32 0x8C379A000000000000000000000000000000000000000000000000000000000 DUP2 MSTORE PUSH1 0x4 ADD PUSH2 0x76F SWAP1 PUSH2 0x11EC JUMP JUMPDEST PUSH1 0x40 MLOAD DUP1 SWAP2 SUB SWAP1 REVERT JUMPDEST PUSH1 0x0 CALLVALUE SWAP1 POP PUSH1 0x0 DUP2 PUSH16 0xFFFFFFFFFFFFFFFFFFFFFFFFFFFFFFFF AND GT PUSH2 0x7D2 JUMPI PUSH1 0x40 MLOAD PUSH32 0x8C379A000000000000000000000000000000000000000000000000000000000 DUP2 MSTORE PUSH1 0x4 ADD PUSH2 0x7C9 SWAP1 PUSH2 0x1180 JUMP JUMPDEST PUSH1 0x40 MLOAD DUP1 SWAP2 SUB SWAP1 REVERT JUMPDEST PUSH1 0x0 PUSH1 0x3 PUSH1 0x0 SWAP1 SLOAD SWAP1 PUSH2 0x100 EXP SWAP1 DIV PUSH16 0xFFFFFFFFFFFFFFFFFFFFFFFFFFFFFFFF AND DUP3 PUSH2 0x7FE SWAP2 SWAP1 PUSH2 0x13B0 JUMP JUMPDEST PUSH16 0xFFFFFFFFFFFFFFFFFFFFFFFFFFFFFFFF AND EQ PUSH2 0x850 JUMPI PUSH1 0x40 MLOAD PUSH32 0x8C379A000000000000000000000000000000000000000000000000000000000 DUP2 MSTORE PUSH1 0x4 ADD PUSH2 0x847 SWAP1 PUSH2 0x142D JUMP JUMPDEST PUSH1 0x40 MLOAD DUP1 SWAP2 SUB SWAP1 REVERT JUMPDEST PUSH20 0xDEAD000000000000000042069420694206942069 PUSH20 0xFFFFFFFFFFFFFFFFFFFFFFFFFFFFFFFFFFFFFFFF AND CALLER PUSH20 0xFFFFFFFFFFFFFFFFFFFFFFFFFFFFFFFFFFFFFFFF AND SUB PUSH2 0x89C JUMPI PUSH1 0x0 DUP1 REVERT JUMPDEST PUSH1 0x0 PUSH1 0x3 PUSH1 0x11 SWAP1 SLOAD SWAP1 PUSH2 0x100 EXP SWAP1 DIV PUSH1 0xFF AND SWAP1 POP PUSH1 0x0 PUSH1 0x3 PUSH1 0x10 SWAP1 SLOAD SWAP1 PUSH2 0x100 EXP SWAP1 DIV PUSH1 0xFF AND SWAP1 POP DUP1 PUSH1 0xFF AND DUP3 PUSH1 0xFF AND SUB PUSH2 0x8D6 JUMPI PUSH1 0x0 SWAP2 POP JUMPDEST PUSH1 0x0 PUSH1 0x3 PUSH1 0x0 SWAP1 SLOAD SWAP1 PUSH2 0x100 EXP SWAP1 DIV PUSH16 0xFFFFFFFFFFFFFFFFFFFFFFFFFFFFFFFF AND DUP5 PUSH2 0x902 SWAP2 SWAP1 PUSH2 0x144D JUMP JUMPDEST SWAP1 POP PUSH1 0x0 DUP4 DUP4 PUSH2 0x912 SWAP2 SWAP1 PUSH2 0x147E JUMP JUMPDEST SWAP1 POP PUSH1 0x0 DUP2 PUSH1 0xFF AND DUP4 PUSH1 0xFF AND LT PUSH2 0x929 JUMPI DUP2 PUSH2 0x92B JUMP JUMPDEST DUP3 JUMPDEST SWAP1 POP DUP7 DUP1 PUSH2 0x93E JUMPI POP DUP3 PUSH1 0xFF AND DUP2 PUSH1 0xFF AND EQ JUMPDEST PUSH2 0x97D JUMPI PUSH1 0x40 MLOAD PUSH32 0x8C379A000000000000000000000000000000000000000000000000000000000 DUP2 MSTORE PUSH1 0x4 ADD PUSH2 0x974 SWAP1 PUSH2 0x14FF JUMP JUMPDEST PUSH1 0x40 MLOAD DUP1 SWAP2 SUB SWAP1 REVERT JUMPDEST PUSH1 0x0 DUP6 PUSH1 0xFF AND SUB PUSH2 0x9DB JUMPI DUP4 PUSH1 0xFF AND DIFFICULTY PUSH1 0x40 MLOAD PUSH1 0x20 ADD PUSH2 0x99D SWAP2 SWAP1 PUSH2 0x1540 JUMP JUMPDEST PUSH1 0x40 MLOAD PUSH1 0x20 DUP2 DUP4 SUB SUB DUP2 MSTORE SWAP1 PUSH1 0x40 MSTORE DUP1 MLOAD SWAP1 PUSH1 0x20 ADD KECCAK256 PUSH1 0x0 SHR PUSH2 0x9C0 SWAP2 SWAP1 PUSH2 0x155B JUMP JUMPDEST PUSH1 0x3 PUSH1 0x12 PUSH2 0x100 EXP DUP2 SLOAD DUP2 PUSH1 0xFF MUL NOT AND SWAP1 DUP4 PUSH1 0xFF AND MUL OR SWAP1 SSTORE POP JUMPDEST DUP1 DUP6 PUSH2 0x9E7 SWAP2 SWAP1 PUSH2 0x158C JUMP JUMPDEST SWAP5 POP DUP5 PUSH1 0x3 PUSH1 0x11 PUSH2 0x100 EXP DUP2 SLOAD DUP2 PUSH1 0xFF MUL NOT AND SWAP1 DUP4 PUSH1 0xFF AND MUL OR SWAP1 SSTORE POP DUP4 PUSH1 0xFF AND DUP6 PUSH1 0xFF AND SUB PUSH2 0xA25 JUMPI PUSH1 0x4B NUMBER PUSH2 0xA1E SWAP2 SWAP1 PUSH2 0x15C1 JUMP JUMPDEST PUSH1 0x0 DUP2 SWAP1 SSTORE POP JUMPDEST PUSH2 0xA3B CALLER DUP3 DUP8 PUSH2 0xA35 SWAP2 SWAP1 PUSH2 0x147E JUMP JUMPDEST DUP8 PUSH2 0xB49 JUMP JUMPDEST DUP3 PUSH1 0xFF AND DUP2 PUSH1 0xFF AND LT ISZERO PUSH2 0xB40 JUMPI PUSH1 0x0 CALLER PUSH20 0xFFFFFFFFFFFFFFFFFFFFFFFFFFFFFFFFFFFFFFFF AND PUSH1 0x3 PUSH1 0x0 SWAP1 SLOAD SWAP1 PUSH2 0x100 EXP SWAP1 DIV PUSH16 0xFFFFFFFFFFFFFFFFFFFFFFFFFFFFFFFF AND PUSH16 0xFFFFFFFFFFFFFFFFFFFFFFFFFFFFFFFF AND DUP4 DUP7 PUSH2 0xA9F SWAP2 SWAP1 PUSH2 0x147E JUMP JUMPDEST PUSH1 0xFF AND PUSH2 0xAAC SWAP2 SWAP1 PUSH2 0x128D JUMP JUMPDEST PUSH1 0x40 MLOAD PUSH2 0xAB8 SWAP1 PUSH2 0x1300 JUMP JUMPDEST PUSH1 0x0 PUSH1 0x40 MLOAD DUP1 DUP4 SUB DUP2 DUP6 DUP8 GAS CALL SWAP3 POP POP POP RETURNDATASIZE DUP1 PUSH1 0x0 DUP2 EQ PUSH2 0xAF5 JUMPI PUSH1 0x40 MLOAD SWAP2 POP PUSH1 0x1F NOT PUSH1 0x3F RETURNDATASIZE ADD AND DUP3 ADD PUSH1 0x40 MSTORE RETURNDATASIZE DUP3 MSTORE RETURNDATASIZE PUSH1 0x0 PUSH1 0x20 DUP5 ADD RETURNDATACOPY PUSH2 0xAFA JUMP JUMPDEST PUSH1 0x60 SWAP2 POP JUMPDEST POP POP SWAP1 POP DUP1 PUSH2 0xB3E JUMPI PUSH1 0x40 MLOAD PUSH32 0x8C379A000000000000000000000000000000000000000000000000000000000 DUP2 MSTORE PUSH1 0x4 ADD PUSH2 0xB35 SWAP1 PUSH2 0x1641 JUMP JUMPDEST PUSH1 0x40 MLOAD DUP1 SWAP2 SUB SWAP1 REVERT JUMPDEST POP JUMPDEST POP POP POP POP POP POP POP JUMP JUMPDEST PUSH1 0x0 DUP3 DUP3 PUSH2 0xB57 SWAP2 SWAP1 PUSH2 0x147E JUMP JUMPDEST PUSH1 0xFF AND PUSH8 0xFFFFFFFFFFFFFFFF DUP2 GT ISZERO PUSH2 0xB73 JUMPI PUSH2 0xB72 PUSH2 0x1661 JUMP JUMPDEST JUMPDEST PUSH1 0x40 MLOAD SWAP1 DUP1 DUP3 MSTORE DUP1 PUSH1 0x20 MUL PUSH1 0x20 ADD DUP3 ADD PUSH1 0x40 MSTORE DUP1 ISZERO PUSH2 0xBA1 JUMPI DUP2 PUSH1 0x20 ADD PUSH1 0x20 DUP3 MUL DUP1 CALLDATASIZE DUP4 CALLDATACOPY DUP1 DUP3 ADD SWAP2 POP POP SWAP1 POP JUMPDEST POP SWAP1 POP PUSH1 0x0 DUP4 SWAP1 POP PUSH1 0x0 JUMPDEST DUP4 PUSH1 0xFF AND DUP3 PUSH1 0xFF AND LT ISZERO PUSH2 0xCF0 JUMPI PUSH1 0x4 PUSH1 0x0 DUP4 PUSH1 0xFF AND PUSH1 0xFF AND DUP2 MSTORE PUSH1 0x20 ADD SWAP1 DUP2 MSTORE PUSH1 0x20 ADD PUSH1 0x0 KECCAK256 PUSH1 0x0 SWAP1 SLOAD SWAP1 PUSH2 0x100 EXP SWAP1 DIV PUSH20 0xFFFFFFFFFFFFFFFFFFFFFFFFFFFFFFFFFFFFFFFF AND DUP4 DUP3 PUSH1 0xFF AND DUP2 MLOAD DUP2 LT PUSH2 0xC0A JUMPI PUSH2 0xC09 PUSH2 0x1690 JUMP JUMPDEST JUMPDEST PUSH1 0x20 MUL PUSH1 0x20 ADD ADD SWAP1 PUSH20 0xFFFFFFFFFFFFFFFFFFFFFFFFFFFFFFFFFFFFFFFF AND SWAP1 DUP2 PUSH20 0xFFFFFFFFFFFFFFFFFFFFFFFFFFFFFFFFFFFFFFFF AND DUP2 MSTORE POP POP DUP6 PUSH1 0x4 PUSH1 0x0 DUP5 PUSH1 0xFF AND PUSH1 0xFF AND DUP2 MSTORE PUSH1 0x20 ADD SWAP1 DUP2 MSTORE PUSH1 0x20 ADD PUSH1 0x0 KECCAK256 PUSH1 0x0 PUSH2 0x100 EXP DUP2 SLOAD DUP2 PUSH20 0xFFFFFFFFFFFFFFFFFFFFFFFFFFFFFFFFFFFFFFFF MUL NOT AND SWAP1 DUP4 PUSH20 0xFFFFFFFFFFFFFFFFFFFFFFFFFFFFFFFFFFFFFFFF AND MUL OR SWAP1 SSTORE POP PUSH32 0x6F4B46FBA5C342FB6B69EB728C76B9F0850713C7F1EE5BA47724A2349858EC79 DUP3 PUSH1 0x40 MLOAD PUSH2 0xCCB SWAP2 SWAP1 PUSH2 0x105D JUMP JUMPDEST PUSH1 0x40 MLOAD DUP1 SWAP2 SUB SWAP1 LOG1 DUP2 PUSH2 0xCDD SWAP1 PUSH2 0x123B JUMP JUMPDEST SWAP2 POP DUP1 PUSH2 0xCE9 SWAP1 PUSH2 0x123B JUMP JUMPDEST SWAP1 POP PUSH2 0xBAC JUMP JUMPDEST DUP5 SWAP2 POP PUSH1 0x0 SWAP1 POP JUMPDEST DUP3 MLOAD DUP2 PUSH1 0xFF AND LT ISZERO PUSH2 0xF4B JUMPI PUSH1 0x0 DUP4 DUP3 PUSH1 0xFF AND DUP2 MLOAD DUP2 LT PUSH2 0xD1C JUMPI PUSH2 0xD1B PUSH2 0x1690 JUMP JUMPDEST JUMPDEST PUSH1 0x20 MUL PUSH1 0x20 ADD ADD MLOAD SWAP1 POP PUSH1 0x0 PUSH20 0xFFFFFFFFFFFFFFFFFFFFFFFFFFFFFFFFFFFFFFFF AND DUP2 PUSH20 0xFFFFFFFFFFFFFFFFFFFFFFFFFFFFFFFFFFFFFFFF AND EQ ISZERO DUP1 ISZERO PUSH2 0xDA3 JUMPI POP PUSH20 0xDEAD000000000000000042069420694206942069 PUSH20 0xFFFFFFFFFFFFFFFFFFFFFFFFFFFFFFFFFFFFFFFF AND DUP2 PUSH20 0xFFFFFFFFFFFFFFFFFFFFFFFFFFFFFFFFFFFFFFFF AND EQ ISZERO JUMPDEST ISZERO PUSH2 0xF2D JUMPI PUSH1 0x3 PUSH1 0x12 SWAP1 SLOAD SWAP1 PUSH2 0x100 EXP SWAP1 DIV PUSH1 0xFF AND PUSH1 0xFF AND DUP4 PUSH1 0xFF AND SUB PUSH2 0xE43 JUMPI DUP1 PUSH1 0x2 PUSH1 0x0 PUSH2 0x100 EXP DUP2 SLOAD DUP2 PUSH20 0xFFFFFFFFFFFFFFFFFFFFFFFFFFFFFFFFFFFFFFFF MUL NOT AND SWAP1 DUP4 PUSH20 0xFFFFFFFFFFFFFFFFFFFFFFFFFFFFFFFFFFFFFFFF AND MUL OR SWAP1 SSTORE POP PUSH32 0x653072E8847022386C9DE810B576409B500E1D279AE76F90E35B312E1E7574A5 DUP2 DUP5 PUSH1 0x40 MLOAD PUSH2 0xE36 SWAP3 SWAP2 SWAP1 PUSH2 0x16BF JUMP JUMPDEST PUSH1 0x40 MLOAD DUP1 SWAP2 SUB SWAP1 LOG1 PUSH2 0xF2C JUMP JUMPDEST PUSH1 0x0 DUP2 PUSH20 0xFFFFFFFFFFFFFFFFFFFFFFFFFFFFFFFFFFFFFFFF AND PUSH1 0x1 SLOAD PUSH1 0x40 MLOAD PUSH2 0xE6B SWAP1 PUSH2 0x1300 JUMP JUMPDEST PUSH1 0x0 PUSH1 0x40 MLOAD DUP1 DUP4 SUB DUP2 DUP6 DUP8 GAS CALL SWAP3 POP POP POP RETURNDATASIZE DUP1 PUSH1 0x0 DUP2 EQ PUSH2 0xEA8 JUMPI PUSH1 0x40 MLOAD SWAP2 POP PUSH1 0x1F NOT PUSH1 0x3F RETURNDATASIZE ADD AND DUP3 ADD PUSH1 0x40 MSTORE RETURNDATASIZE DUP3 MSTORE RETURNDATASIZE PUSH1 0x0 PUSH1 0x20 DUP5 ADD RETURNDATACOPY PUSH2 0xEAD JUMP JUMPDEST PUSH1 0x60 SWAP2 POP JUMPDEST POP POP SWAP1 POP DUP1 PUSH2 0xEF1 JUMPI PUSH1 0x40 MLOAD PUSH32 0x8C379A000000000000000000000000000000000000000000000000000000000 DUP2 MSTORE PUSH1 0x4 ADD PUSH2 0xEE8 SWAP1 PUSH2 0x1734 JUMP JUMPDEST PUSH1 0x40 MLOAD DUP1 SWAP2 SUB SWAP1 REVERT JUMPDEST PUSH32 0xE76B0AA2DAA84EFDE70D6F999E732139A79B72F01FBF08E65857C3E86338E493 DUP3 DUP6 PUSH1 0x40 MLOAD PUSH2 0xF22 SWAP3 SWAP2 SWAP1 PUSH2 0x16BF JUMP JUMPDEST PUSH1 0x40 MLOAD DUP1 SWAP2 SUB SWAP1 LOG1 POP JUMPDEST JUMPDEST DUP3 PUSH2 0xF37 SWAP1 PUSH2 0x123B JUMP JUMPDEST SWAP3 POP DUP2 PUSH2 0xF43 SWAP1 PUSH2 0x123B JUMP JUMPDEST SWAP2 POP POP PUSH2 0xCF8 JUMP JUMPDEST POP POP POP POP POP POP JUMP JUMPDEST PUSH1 0x0 DUP1 REVERT JUMPDEST PUSH1 0x0 PUSH1 0xFF DUP3 AND SWAP1 POP SWAP2 SWAP1 POP JUMP JUMPDEST PUSH2 0xF6E DUP2 PUSH2 0xF58 JUMP JUMPDEST DUP2 EQ PUSH2 0xF79 JUMPI PUSH1 0x0 DUP1 REVERT JUMPDEST POP JUMP JUMPDEST PUSH1 0x0 DUP2 CALLDATALOAD SWAP1 POP PUSH2 0xF8B DUP2 PUSH2 0xF65 JUMP JUMPDEST SWAP3 SWAP2 POP POP JUMP JUMPDEST PUSH1 0x0 PUSH1 0x20 DUP3 DUP5 SUB SLT ISZERO PUSH2 0xFA7 JUMPI PUSH2 0xFA6 PUSH2 0xF53 JUMP JUMPDEST JUMPDEST PUSH1 0x0 PUSH2 0xFB5 DUP5 DUP3 DUP6 ADD PUSH2 0xF7C JUMP JUMPDEST SWAP2 POP POP SWAP3 SWAP2 POP POP JUMP JUMPDEST PUSH1 0x0 PUSH20 0xFFFFFFFFFFFFFFFFFFFFFFFFFFFFFFFFFFFFFFFF DUP3 AND SWAP1 POP SWAP2 SWAP1 POP JUMP JUMPDEST PUSH1 0x0 PUSH2 0xFE9 DUP3 PUSH2 0xFBE JUMP JUMPDEST SWAP1 POP SWAP2 SWAP1 POP JUMP JUMPDEST PUSH2 0xFF9 DUP2 PUSH2 0xFDE JUMP JUMPDEST DUP3 MSTORE POP POP JUMP JUMPDEST PUSH1 0x0 PUSH1 0x20 DUP3 ADD SWAP1 POP PUSH2 0x1014 PUSH1 0x0 DUP4 ADD DUP5 PUSH2 0xFF0 JUMP JUMPDEST SWAP3 SWAP2 POP POP JUMP JUMPDEST PUSH1 0x0 DUP2 SWAP1 POP SWAP2 SWAP1 POP JUMP JUMPDEST PUSH2 0x102D DUP2 PUSH2 0x101A JUMP JUMPDEST DUP3 MSTORE POP POP JUMP JUMPDEST PUSH1 0x0 PUSH1 0x20 DUP3 ADD SWAP1 POP PUSH2 0x1048 PUSH1 0x0 DUP4 ADD DUP5 PUSH2 0x1024 JUMP JUMPDEST SWAP3 SWAP2 POP POP JUMP JUMPDEST PUSH2 0x1057 DUP2 PUSH2 0xF58 JUMP JUMPDEST DUP3 MSTORE POP POP JUMP JUMPDEST PUSH1 0x0 PUSH1 0x20 DUP3 ADD SWAP1 POP PUSH2 0x1072 PUSH1 0x0 DUP4 ADD DUP5 PUSH2 0x104E JUMP JUMPDEST SWAP3 SWAP2 POP POP JUMP JUMPDEST PUSH1 0x0 PUSH16 0xFFFFFFFFFFFFFFFFFFFFFFFFFFFFFFFF DUP3 AND SWAP1 POP SWAP2 SWAP1 POP JUMP JUMPDEST PUSH2 0x109D DUP2 PUSH2 0x1078 JUMP JUMPDEST DUP3 MSTORE POP POP JUMP JUMPDEST PUSH1 0x0 PUSH1 0x20 DUP3 ADD SWAP1 POP PUSH2 0x10B8 PUSH1 0x0 DUP4 ADD DUP5 PUSH2 0x1094 JUMP JUMPDEST SWAP3 SWAP2 POP POP JUMP JUMPDEST PUSH1 0x0 DUP2 ISZERO ISZERO SWAP1 POP SWAP2 SWAP1 POP JUMP JUMPDEST PUSH2 0x10D3 DUP2 PUSH2 0x10BE JUMP JUMPDEST DUP2 EQ PUSH2 0x10DE JUMPI PUSH1 0x0 DUP1 REVERT JUMPDEST POP JUMP JUMPDEST PUSH1 0x0 DUP2 CALLDATALOAD SWAP1 POP PUSH2 0x10F0 DUP2 PUSH2 0x10CA JUMP JUMPDEST SWAP3 SWAP2 POP POP JUMP JUMPDEST PUSH1 0x0 PUSH1 0x20 DUP3 DUP5 SUB SLT ISZERO PUSH2 0x110C JUMPI PUSH2 0x110B PUSH2 0xF53 JUMP JUMPDEST JUMPDEST PUSH1 0x0 PUSH2 0x111A DUP5 DUP3 DUP6 ADD PUSH2 0x10E1 JUMP JUMPDEST SWAP2 POP POP SWAP3 SWAP2 POP POP JUMP JUMPDEST PUSH1 0x0 DUP3 DUP3 MSTORE PUSH1 0x20 DUP3 ADD SWAP1 POP SWAP3 SWAP2 POP POP JUMP JUMPDEST PUSH32 0x4E6565647320746F206265206E6F6E2D7A65726F2E0000000000000000000000 PUSH1 0x0 DUP3 ADD MSTORE POP JUMP JUMPDEST PUSH1 0x0 PUSH2 0x116A PUSH1 0x15 DUP4 PUSH2 0x1123 JUMP JUMPDEST SWAP2 POP PUSH2 0x1175 DUP3 PUSH2 0x1134 JUMP JUMPDEST PUSH1 0x20 DUP3 ADD SWAP1 POP SWAP2 SWAP1 POP JUMP JUMPDEST PUSH1 0x0 PUSH1 0x20 DUP3 ADD SWAP1 POP DUP2 DUP2 SUB PUSH1 0x0 DUP4 ADD MSTORE PUSH2 0x1199 DUP2 PUSH2 0x115D JUMP JUMPDEST SWAP1 POP SWAP2 SWAP1 POP JUMP JUMPDEST PUSH32 0x47616D6520696E2070726F67726573732E000000000000000000000000000000 PUSH1 0x0 DUP3 ADD MSTORE POP JUMP JUMPDEST PUSH1 0x0 PUSH2 0x11D6 PUSH1 0x11 DUP4 PUSH2 0x1123 JUMP JUMPDEST SWAP2 POP PUSH2 0x11E1 DUP3 PUSH2 0x11A0 JUMP JUMPDEST PUSH1 0x20 DUP3 ADD SWAP1 POP SWAP2 SWAP1 POP JUMP JUMPDEST PUSH1 0x0 PUSH1 0x20 DUP3 ADD SWAP1 POP DUP2 DUP2 SUB PUSH1 0x0 DUP4 ADD MSTORE PUSH2 0x1205 DUP2 PUSH2 0x11C9 JUMP JUMPDEST SWAP1 POP SWAP2 SWAP1 POP JUMP JUMPDEST PUSH32 0x4E487B7100000000000000000000000000000000000000000000000000000000 PUSH1 0x0 MSTORE PUSH1 0x11 PUSH1 0x4 MSTORE PUSH1 0x24 PUSH1 0x0 REVERT JUMPDEST PUSH1 0x0 PUSH2 0x1246 DUP3 PUSH2 0xF58 JUMP JUMPDEST SWAP2 POP PUSH1 0xFF DUP3 SUB PUSH2 0x1259 JUMPI PUSH2 0x1258 PUSH2 0x120C JUMP JUMPDEST JUMPDEST PUSH1 0x1 DUP3 ADD SWAP1 POP SWAP2 SWAP1 POP JUMP JUMPDEST PUSH1 0x0 PUSH2 0x126F DUP3 PUSH2 0xF58 JUMP JUMPDEST SWAP2 POP PUSH1 0x0 DUP3 SUB PUSH2 0x1282 JUMPI PUSH2 0x1281 PUSH2 0x120C JUMP JUMPDEST JUMPDEST PUSH1 0x1 DUP3 SUB SWAP1 POP SWAP2 SWAP1 POP JUMP JUMPDEST PUSH1 0x0 PUSH2 0x1298 DUP3 PUSH2 0x101A JUMP JUMPDEST SWAP2 POP PUSH2 0x12A3 DUP4 PUSH2 0x101A JUMP JUMPDEST SWAP3 POP DUP3 DUP3 MUL PUSH2 0x12B1 DUP2 PUSH2 0x101A JUMP JUMPDEST SWAP2 POP DUP3 DUP3 DIV DUP5 EQ DUP4 ISZERO OR PUSH2 0x12C8 JUMPI PUSH2 0x12C7 PUSH2 0x120C JUMP JUMPDEST JUMPDEST POP SWAP3 SWAP2 POP POP JUMP JUMPDEST PUSH1 0x0 DUP2 SWAP1 POP SWAP3 SWAP2 POP POP JUMP JUMPDEST POP JUMP JUMPDEST PUSH1 0x0 PUSH2 0x12EA PUSH1 0x0 DUP4 PUSH2 0x12CF JUMP JUMPDEST SWAP2 POP PUSH2 0x12F5 DUP3 PUSH2 0x12DA JUMP JUMPDEST PUSH1 0x0 DUP3 ADD SWAP1 POP SWAP2 SWAP1 POP JUMP JUMPDEST PUSH1 0x0 PUSH2 0x130B DUP3 PUSH2 0x12DD JUMP JUMPDEST SWAP2 POP DUP2 SWAP1 POP SWAP2 SWAP1 POP JUMP JUMPDEST PUSH32 0x5769746864726177616C206661696C65642E0000000000000000000000000000 PUSH1 0x0 DUP3 ADD MSTORE POP JUMP JUMPDEST PUSH1 0x0 PUSH2 0x134B PUSH1 0x12 DUP4 PUSH2 0x1123 JUMP JUMPDEST SWAP2 POP PUSH2 0x1356 DUP3 PUSH2 0x1315 JUMP JUMPDEST PUSH1 0x20 DUP3 ADD SWAP1 POP SWAP2 SWAP1 POP JUMP JUMPDEST PUSH1 0x0 PUSH1 0x20 DUP3 ADD SWAP1 POP DUP2 DUP2 SUB PUSH1 0x0 DUP4 ADD MSTORE PUSH2 0x137A DUP2 PUSH2 0x133E JUMP JUMPDEST SWAP1 POP SWAP2 SWAP1 POP JUMP JUMPDEST PUSH32 0x4E487B7100000000000000000000000000000000000000000000000000000000 PUSH1 0x0 MSTORE PUSH1 0x12 PUSH1 0x4 MSTORE PUSH1 0x24 PUSH1 0x0 REVERT JUMPDEST PUSH1 0x0 PUSH2 0x13BB DUP3 PUSH2 0x1078 JUMP JUMPDEST SWAP2 POP PUSH2 0x13C6 DUP4 PUSH2 0x1078 JUMP JUMPDEST SWAP3 POP DUP3 PUSH2 0x13D6 JUMPI PUSH2 0x13D5 PUSH2 0x1381 JUMP JUMPDEST JUMPDEST DUP3 DUP3 MOD SWAP1 POP SWAP3 SWAP2 POP POP JUMP JUMPDEST PUSH32 0x4E6565647320746F206265206D756C7469706C65206F66207374616B652E0000 PUSH1 0x0 DUP3 ADD MSTORE POP JUMP JUMPDEST PUSH1 0x0 PUSH2 0x1417 PUSH1 0x1E DUP4 PUSH2 0x1123 JUMP JUMPDEST SWAP2 POP PUSH2 0x1422 DUP3 PUSH2 0x13E1 JUMP JUMPDEST PUSH1 0x20 DUP3 ADD SWAP1 POP SWAP2 SWAP1 POP JUMP JUMPDEST PUSH1 0x0 PUSH1 0x20 DUP3 ADD SWAP1 POP DUP2 DUP2 SUB PUSH1 0x0 DUP4 ADD MSTORE PUSH2 0x1446 DUP2 PUSH2 0x140A JUMP JUMPDEST SWAP1 POP SWAP2 SWAP1 POP JUMP JUMPDEST PUSH1 0x0 PUSH2 0x1458 DUP3 PUSH2 0x1078 JUMP JUMPDEST SWAP2 POP PUSH2 0x1463 DUP4 PUSH2 0x1078 JUMP JUMPDEST SWAP3 POP DUP3 PUSH2 0x1473 JUMPI PUSH2 0x1472 PUSH2 0x1381 JUMP JUMPDEST JUMPDEST DUP3 DUP3 DIV SWAP1 POP SWAP3 SWAP2 POP POP JUMP JUMPDEST PUSH1 0x0 PUSH2 0x1489 DUP3 PUSH2 0xF58 JUMP JUMPDEST SWAP2 POP PUSH2 0x1494 DUP4 PUSH2 0xF58 JUMP JUMPDEST SWAP3 POP DUP3 DUP3 SUB SWAP1 POP PUSH1 0xFF DUP2 GT ISZERO PUSH2 0x14AD JUMPI PUSH2 0x14AC PUSH2 0x120C JUMP JUMPDEST JUMPDEST SWAP3 SWAP2 POP POP JUMP JUMPDEST PUSH32 0x4578616374206F72646572206E6F74206D65742E000000000000000000000000 PUSH1 0x0 DUP3 ADD MSTORE POP JUMP JUMPDEST PUSH1 0x0 PUSH2 0x14E9 PUSH1 0x14 DUP4 PUSH2 0x1123 JUMP JUMPDEST SWAP2 POP PUSH2 0x14F4 DUP3 PUSH2 0x14B3 JUMP JUMPDEST PUSH1 0x20 DUP3 ADD SWAP1 POP SWAP2 SWAP1 POP JUMP JUMPDEST PUSH1 0x0 PUSH1 0x20 DUP3 ADD SWAP1 POP DUP2 DUP2 SUB PUSH1 0x0 DUP4 ADD MSTORE PUSH2 0x1518 DUP2 PUSH2 0x14DC JUMP JUMPDEST SWAP1 POP SWAP2 SWAP1 POP JUMP JUMPDEST PUSH1 0x0 DUP2 SWAP1 POP SWAP2 SWAP1 POP JUMP JUMPDEST PUSH2 0x153A PUSH2 0x1535 DUP3 PUSH2 0x101A JUMP JUMPDEST PUSH2 0x151F JUMP JUMPDEST DUP3 MSTORE POP POP JUMP JUMPDEST PUSH1 0x0 PUSH2 0x154C DUP3 DUP5 PUSH2 0x1529 JUMP JUMPDEST PUSH1 0x20 DUP3 ADD SWAP2 POP DUP2 SWAP1 POP SWAP3 SWAP2 POP POP JUMP JUMPDEST PUSH1 0x0 PUSH2 0x1566 DUP3 PUSH2 0x101A JUMP JUMPDEST SWAP2 POP PUSH2 0x1571 DUP4 PUSH2 0x101A JUMP JUMPDEST SWAP3 POP DUP3 PUSH2 0x1581 JUMPI PUSH2 0x1580 PUSH2 0x1381 JUMP JUMPDEST JUMPDEST DUP3 DUP3 MOD SWAP1 POP SWAP3 SWAP2 POP POP JUMP JUMPDEST PUSH1 0x0 PUSH2 0x1597 DUP3 PUSH2 0xF58 JUMP JUMPDEST SWAP2 POP PUSH2 0x15A2 DUP4 PUSH2 0xF58 JUMP JUMPDEST SWAP3 POP DUP3 DUP3 ADD SWAP1 POP PUSH1 0xFF DUP2 GT ISZERO PUSH2 0x15BB JUMPI PUSH2 0x15BA PUSH2 0x120C JUMP JUMPDEST JUMPDEST SWAP3 SWAP2 POP POP JUMP JUMPDEST PUSH1 0x0 PUSH2 0x15CC DUP3 PUSH2 0x101A JUMP JUMPDEST SWAP2 POP PUSH2 0x15D7 DUP4 PUSH2 0x101A JUMP JUMPDEST SWAP3 POP DUP3 DUP3 ADD SWAP1 POP DUP1 DUP3 GT ISZERO PUSH2 0x15EF JUMPI PUSH2 0x15EE PUSH2 0x120C JUMP JUMPDEST JUMPDEST SWAP3 SWAP2 POP POP JUMP JUMPDEST PUSH32 0x526566756E64206661696C65642E000000000000000000000000000000000000 PUSH1 0x0 DUP3 ADD MSTORE POP JUMP JUMPDEST PUSH1 0x0 PUSH2 0x162B PUSH1 0xE DUP4 PUSH2 0x1123 JUMP JUMPDEST SWAP2 POP PUSH2 0x1636 DUP3 PUSH2 0x15F5 JUMP JUMPDEST PUSH1 0x20 DUP3 ADD SWAP1 POP SWAP2 SWAP1 POP JUMP JUMPDEST PUSH1 0x0 PUSH1 0x20 DUP3 ADD SWAP1 POP DUP2 DUP2 SUB PUSH1 0x0 DUP4 ADD MSTORE PUSH2 0x165A DUP2 PUSH2 0x161E JUMP JUMPDEST SWAP1 POP SWAP2 SWAP1 POP JUMP JUMPDEST PUSH32 0x4E487B7100000000000000000000000000000000000000000000000000000000 PUSH1 0x0 MSTORE PUSH1 0x41 PUSH1 0x4 MSTORE PUSH1 0x24 PUSH1 0x0 REVERT JUMPDEST PUSH32 0x4E487B7100000000000000000000000000000000000000000000000000000000 PUSH1 0x0 MSTORE PUSH1 0x32 PUSH1 0x4 MSTORE PUSH1 0x24 PUSH1 0x0 REVERT JUMPDEST PUSH1 0x0 PUSH1 0x40 DUP3 ADD SWAP1 POP PUSH2 0x16D4 PUSH1 0x0 DUP4 ADD DUP6 PUSH2 0xFF0 JUMP JUMPDEST PUSH2 0x16E1 PUSH1 0x20 DUP4 ADD DUP5 PUSH2 0x104E JUMP JUMPDEST SWAP4 SWAP3 POP POP POP JUMP JUMPDEST PUSH32 0x5472616E73666572206661696C65642E00000000000000000000000000000000 PUSH1 0x0 DUP3 ADD MSTORE POP JUMP JUMPDEST PUSH1 0x0 PUSH2 0x171E PUSH1 0x10 DUP4 PUSH2 0x1123 JUMP JUMPDEST SWAP2 POP PUSH2 0x1729 DUP3 PUSH2 0x16E8 JUMP JUMPDEST PUSH1 0x20 DUP3 ADD SWAP1 POP SWAP2 SWAP1 POP JUMP JUMPDEST PUSH1 0x0 PUSH1 0x20 DUP3 ADD SWAP1 POP DUP2 DUP2 SUB PUSH1 0x0 DUP4 ADD MSTORE PUSH2 0x174D DUP2 PUSH2 0x1711 JUMP JUMPDEST SWAP1 POP SWAP2 SWAP1 POP JUMP INVALID LOG2 PUSH5 0x6970667358 0x22 SLT KECCAK256 DUP7 0xF8 DUP16 SWAP9 PUSH16 0xBFAAFB114EE0322E81F3C551E904FE56 DUP4 DUP16 SWAP8 PUSH12 0xDCB321A1396D2E64736F6C63 NUMBER STOP ADDMOD GT STOP CALLER LOG2 PUSH5 0x6970667358 0x22 SLT KECCAK256 0xC3 SWAP10 0x5F 0x24 0xD8 DUP3 0xC5 SELFBALANCE 0xCA PUSH4 0x5297E1FC POP 0xBE 0xF9 0xB4 POP 0x5D GT PC PC LOG4 0xBC 0xD4 SMOD BASEFEE 0xC6 BYTE 0x29 0xD7 PUSH5 0x736F6C6343 STOP ADDMOD GT STOP CALLER "},"methodIdentifiers":{"createGame(uint128,uint8)":"a949bfc6","games(uint8,uint256)":"538515cc","getCardInfo(uint8,uint256)":"cb73af4f","getLength(uint8)":"9e77fdaf"}}}}}