{
  "_format": "hh-sol-artifact-1",
  "contractName": "Groat",
  "sourceName": "contracts/Groat.sol",
  "abi": [
    {
      "inputs": [
        {
          "internalType": "uint128",
          "name": "_stake",
          "type": "uint128"
        },
        {
          "internalType": "uint8",
          "name": "_maxPlayers",
          "type": "uint8"
        }
      ],
      "stateMutability": "nonpayable",
      "type": "constructor"
    },
    {
      "inputs": [
        {
          "internalType": "bool",
          "name": "partialFulfill",
          "type": "bool"
        }
      ],
      "name": "depositEth",
      "outputs": [],
      "stateMutability": "payable",
      "type": "function"
    },
    {
      "inputs": [],
      "name": "groatIndex",
      "outputs": [
        {
          "internalType": "uint8",
          "name": "",
          "type": "uint8"
        }
      ],
      "stateMutability": "view",
      "type": "function"
    },
    {
      "inputs": [],
      "name": "maxPlayers",
      "outputs": [
        {
          "internalType": "uint8",
          "name": "",
          "type": "uint8"
        }
      ],
      "stateMutability": "view",
      "type": "function"
    },
    {
      "inputs": [],
      "name": "payout",
      "outputs": [
        {
          "internalType": "uint256",
          "name": "",
          "type": "uint256"
        }
      ],
      "stateMutability": "view",
      "type": "function"
    },
    {
      "inputs": [
        {
          "internalType": "address",
          "name": "",
          "type": "address"
        }
      ],
      "name": "playerEntries",
      "outputs": [
        {
          "internalType": "uint256",
          "name": "",
          "type": "uint256"
        }
      ],
      "stateMutability": "view",
      "type": "function"
    },
    {
      "inputs": [
        {
          "internalType": "uint8",
          "name": "",
          "type": "uint8"
        }
      ],
      "name": "queue",
      "outputs": [
        {
          "internalType": "address",
          "name": "",
          "type": "address"
        }
      ],
      "stateMutability": "view",
      "type": "function"
    },
    {
      "inputs": [],
      "name": "queuePtr",
      "outputs": [
        {
          "internalType": "uint8",
          "name": "",
          "type": "uint8"
        }
      ],
      "stateMutability": "view",
      "type": "function"
    },
    {
      "inputs": [
        {
          "internalType": "uint8",
          "name": "amount",
          "type": "uint8"
        }
      ],
      "name": "removeEntries",
      "outputs": [
        {
          "internalType": "uint8",
          "name": "",
          "type": "uint8"
        }
      ],
      "stateMutability": "nonpayable",
      "type": "function"
    },
    {
      "inputs": [],
      "name": "revealBlockNumber",
      "outputs": [
        {
          "internalType": "uint256",
          "name": "",
          "type": "uint256"
        }
      ],
      "stateMutability": "view",
      "type": "function"
    },
    {
      "inputs": [],
      "name": "stake",
      "outputs": [
        {
          "internalType": "uint128",
          "name": "",
          "type": "uint128"
        }
      ],
      "stateMutability": "view",
      "type": "function"
    }
  ],
  "bytecode": "0x60806040523480156200001157600080fd5b50604051620019d7380380620019d783398181016040528101906200003791906200027e565b6000826fffffffffffffffffffffffffffffffff16116200008f576040517f08c379a0000000000000000000000000000000000000000000000000000000008152600401620000869062000326565b60405180910390fd5b60018160ff1611620000d8576040517f08c379a0000000000000000000000000000000000000000000000000000000008152600401620000cf9062000398565b60405180910390fd5b6000600182620000e99190620003e9565b60ff1683620000f9919062000454565b6fffffffffffffffffffffffffffffffff16146200014e576040517f08c379a00000000000000000000000000000000000000000000000000000000081526004016200014590620004dc565b60405180910390fd5b81600260006101000a8154816fffffffffffffffffffffffffffffffff02191690836fffffffffffffffffffffffffffffffff16021790555080600260106101000a81548160ff021916908360ff160217905550600181620001b19190620003e9565b60ff1682620001c19190620004fe565b82620001ce919062000536565b6fffffffffffffffffffffffffffffffff16600181905550505062000581565b600080fd5b60006fffffffffffffffffffffffffffffffff82169050919050565b6200021a81620001f3565b81146200022657600080fd5b50565b6000815190506200023a816200020f565b92915050565b600060ff82169050919050565b620002588162000240565b81146200026457600080fd5b50565b60008151905062000278816200024d565b92915050565b60008060408385031215620002985762000297620001ee565b5b6000620002a88582860162000229565b9250506020620002bb8582860162000267565b9150509250929050565b600082825260208201905092915050565b7f5374616b65206d757374206265206e6f6e2d7a65726f2e000000000000000000600082015250565b60006200030e601783620002c5565b91506200031b82620002d6565b602082019050919050565b600060208201905081810360008301526200034181620002ff565b9050919050565b7f4d617820706c6179657273206d757374206265203e20312e0000000000000000600082015250565b600062000380601883620002c5565b91506200038d8262000348565b602082019050919050565b60006020820190508181036000830152620003b38162000371565b9050919050565b7f4e487b7100000000000000000000000000000000000000000000000000000000600052601160045260246000fd5b6000620003f68262000240565b9150620004038362000240565b9250828203905060ff8111156200041f576200041e620003ba565b5b92915050565b7f4e487b7100000000000000000000000000000000000000000000000000000000600052601260045260246000fd5b60006200046182620001f3565b91506200046e83620001f3565b92508262000481576200048062000425565b5b828206905092915050565b7f5374616b652073686f756c642062652064697669646564206576656e6c792e00600082015250565b6000620004c4601f83620002c5565b9150620004d1826200048c565b602082019050919050565b60006020820190508181036000830152620004f781620004b5565b9050919050565b60006200050b82620001f3565b91506200051883620001f3565b9250826200052b576200052a62000425565b5b828204905092915050565b60006200054382620001f3565b91506200055083620001f3565b925082820190506fffffffffffffffffffffffffffffffff8111156200057b576200057a620003ba565b5b92915050565b61144680620005916000396000f3fe6080604052600436106100915760003560e01c80634c2412a2116100595780634c2412a21461019157806359fe06e0146101bc57806363bd1d4a146101e757806378b77a9414610212578063d69a18761461024f57610091565b8063056d9f28146100965780631eaeda03146100d35780632970ac44146100fe5780632e469efb146101295780633a4b66f114610166575b600080fd5b3480156100a257600080fd5b506100bd60048036038101906100b89190610d9e565b61026b565b6040516100ca9190610e0c565b60405180910390f35b3480156100df57600080fd5b506100e861029e565b6040516100f59190610e40565b60405180910390f35b34801561010a57600080fd5b506101136102a4565b6040516101209190610e6a565b60405180910390f35b34801561013557600080fd5b50610150600480360381019061014b9190610eb1565b6102b7565b60405161015d9190610e40565b60405180910390f35b34801561017257600080fd5b5061017b6102cf565b6040516101889190610f09565b60405180910390f35b34801561019d57600080fd5b506101a66102f1565b6040516101b39190610e6a565b60405180910390f35b3480156101c857600080fd5b506101d1610304565b6040516101de9190610e6a565b60405180910390f35b3480156101f357600080fd5b506101fc610317565b6040516102099190610e40565b60405180910390f35b34801561021e57600080fd5b5061023960048036038101906102349190610d9e565b61031d565b6040516102469190610e6a565b60405180910390f35b61026960048036038101906102649190610f5c565b610708565b005b60036020528060005260406000206000915054906101000a900473ffffffffffffffffffffffffffffffffffffffff1681565b60005481565b600260119054906101000a900460ff1681565b60046020528060005260406000206000915090505481565b600260009054906101000a90046fffffffffffffffffffffffffffffffff1681565b600260109054906101000a900460ff1681565b600260129054906101000a900460ff1681565b60015481565b6000808260ff1611610364576040517f08c379a000000000000000000000000000000000000000000000000000000000815260040161035b90610fe6565b60405180910390fd5b6000600260119054906101000a900460ff169050600260109054906101000a900460ff1660ff168160ff16036103cf576040517f08c379a00000000000000000000000000000000000000000000000000000000081526004016103c690611052565b60405180910390fd5b6000600460003373ffffffffffffffffffffffffffffffffffffffff1673ffffffffffffffffffffffffffffffffffffffff16815260200190815260200160002054905060008111801561042957508160ff166001901b81105b610468576040517f08c379a000000000000000000000000000000000000000000000000000000000815260040161045f906110be565b60405180910390fd5b60005b6000821415801561048157508460ff168160ff16105b1561069e57600082905060005b600182146104ae57600182901c9150806104a79061110d565b905061048e565b846104b890611136565b94506000600360008760ff1660ff16815260200190815260200160002060009054906101000a900473ffffffffffffffffffffffffffffffffffffffff1690503373ffffffffffffffffffffffffffffffffffffffff168173ffffffffffffffffffffffffffffffffffffffff1614610625576000600460008373ffffffffffffffffffffffffffffffffffffffff1673ffffffffffffffffffffffffffffffffffffffff1681526020019081526020016000205490508660ff166001901b811890508260ff166001901b8118905080600460008473ffffffffffffffffffffffffffffffffffffffff1673ffffffffffffffffffffffffffffffffffffffff1681526020019081526020016000208190555081600360008560ff1660ff16815260200190815260200160002060006101000a81548173ffffffffffffffffffffffffffffffffffffffff021916908373ffffffffffffffffffffffffffffffffffffffff160217905550505b6000600360008860ff1660ff16815260200190815260200160002060006101000a81548173ffffffffffffffffffffffffffffffffffffffff021916908373ffffffffffffffffffffffffffffffffffffffff1602179055508160ff166001901b85189450836106949061110d565b935050505061046b565b81600460003373ffffffffffffffffffffffffffffffffffffffff1673ffffffffffffffffffffffffffffffffffffffff1681526020019081526020016000208190555082600260116101000a81548160ff021916908360ff160217905550809350505050919050565b60005443101561074d576040517f08c379a000000000000000000000000000000000000000000000000000000000815260040161074490611052565b60405180910390fd5b60003490506000816fffffffffffffffffffffffffffffffff16116107a7576040517f08c379a000000000000000000000000000000000000000000000000000000000815260040161079e90610fe6565b60405180910390fd5b6000600260009054906101000a90046fffffffffffffffffffffffffffffffff16826107d3919061118e565b6fffffffffffffffffffffffffffffffff1614610825576040517f08c379a000000000000000000000000000000000000000000000000000000000815260040161081c9061120b565b60405180910390fd5b6000600260119054906101000a900460ff1690506000600260109054906101000a900460ff1690508060ff168260ff160361085f57600091505b6000600260009054906101000a90046fffffffffffffffffffffffffffffffff168461088b919061122b565b90506000838361089b919061125c565b905060008160ff168360ff16106108b257816108b4565b825b905086806108c757508260ff168160ff16145b610906576040517f08c379a00000000000000000000000000000000000000000000000000000000081526004016108fd906112dd565b60405180910390fd5b8260ff168160ff1610156109a5573373ffffffffffffffffffffffffffffffffffffffff166108fc600260009054906101000a90046fffffffffffffffffffffffffffffffff168386610959919061125c565b60ff1661096691906112fd565b6fffffffffffffffffffffffffffffffff169081150290604051600060405180830381858888f193505050501580156109a3573d6000803e3d6000fd5b505b8360ff168560ff1603610a05578360ff16446040516020016109c7919061135b565b6040516020818303038152906040528051906020012060001c6109ea9190611376565b600260126101000a81548160ff021916908360ff1602179055505b610a27338660018489610a1891906113a7565b610a22919061125c565b610a95565b8085610a3391906113a7565b94508360ff168560ff1603610a5657604043610a4f91906113dc565b6000819055505b84600260116101000a81548160ff021916908360ff16021790555083600260106101000a81548160ff021916908360ff16021790555050505050505050565b6000600460008573ffffffffffffffffffffffffffffffffffffffff1673ffffffffffffffffffffffffffffffffffffffff1681526020019081526020016000205490508260ff166001901b8110610aec57600090505b5b8160ff168360ff1611610d16576000600360008560ff1660ff16815260200190815260200160002060009054906101000a900473ffffffffffffffffffffffffffffffffffffffff169050600073ffffffffffffffffffffffffffffffffffffffff168173ffffffffffffffffffffffffffffffffffffffff1614610ca057600260129054906101000a900460ff1660ff168460ff1614610bd2578073ffffffffffffffffffffffffffffffffffffffff166108fc6001549081150290604051600060405180830381858888f19350505050158015610bd0573d6000803e3d6000fd5b505b8473ffffffffffffffffffffffffffffffffffffffff168173ffffffffffffffffffffffffffffffffffffffff1614610c9f576000600460008373ffffffffffffffffffffffffffffffffffffffff1673ffffffffffffffffffffffffffffffffffffffff1681526020019081526020016000205490508460ff166001901b8110610c9d576000600460008473ffffffffffffffffffffffffffffffffffffffff1673ffffffffffffffffffffffffffffffffffffffff168152602001908152602001600020819055505b505b5b84600360008660ff1660ff16815260200190815260200160002060006101000a81548173ffffffffffffffffffffffffffffffffffffffff021916908373ffffffffffffffffffffffffffffffffffffffff1602179055508360ff166001901b8217915083610d0e9061110d565b935050610aed565b80600460008673ffffffffffffffffffffffffffffffffffffffff1673ffffffffffffffffffffffffffffffffffffffff1681526020019081526020016000208190555050505050565b600080fd5b600060ff82169050919050565b610d7b81610d65565b8114610d8657600080fd5b50565b600081359050610d9881610d72565b92915050565b600060208284031215610db457610db3610d60565b5b6000610dc284828501610d89565b91505092915050565b600073ffffffffffffffffffffffffffffffffffffffff82169050919050565b6000610df682610dcb565b9050919050565b610e0681610deb565b82525050565b6000602082019050610e216000830184610dfd565b92915050565b6000819050919050565b610e3a81610e27565b82525050565b6000602082019050610e556000830184610e31565b92915050565b610e6481610d65565b82525050565b6000602082019050610e7f6000830184610e5b565b92915050565b610e8e81610deb565b8114610e9957600080fd5b50565b600081359050610eab81610e85565b92915050565b600060208284031215610ec757610ec6610d60565b5b6000610ed584828501610e9c565b91505092915050565b60006fffffffffffffffffffffffffffffffff82169050919050565b610f0381610ede565b82525050565b6000602082019050610f1e6000830184610efa565b92915050565b60008115159050919050565b610f3981610f24565b8114610f4457600080fd5b50565b600081359050610f5681610f30565b92915050565b600060208284031215610f7257610f71610d60565b5b6000610f8084828501610f47565b91505092915050565b600082825260208201905092915050565b7f4e6565647320746f206265206e6f6e2d7a65726f2e0000000000000000000000600082015250565b6000610fd0601583610f89565b9150610fdb82610f9a565b602082019050919050565b60006020820190508181036000830152610fff81610fc3565b9050919050565b7f47616d6520696e2070726f67726573732e000000000000000000000000000000600082015250565b600061103c601183610f89565b915061104782611006565b602082019050919050565b6000602082019050818103600083015261106b8161102f565b9050919050565b7f4e6f7468696e6720746f2072656d6f76652e0000000000000000000000000000600082015250565b60006110a8601283610f89565b91506110b382611072565b602082019050919050565b600060208201905081810360008301526110d78161109b565b9050919050565b7f4e487b7100000000000000000000000000000000000000000000000000000000600052601160045260246000fd5b600061111882610d65565b915060ff820361112b5761112a6110de565b5b600182019050919050565b600061114182610d65565b915060008203611154576111536110de565b5b600182039050919050565b7f4e487b7100000000000000000000000000000000000000000000000000000000600052601260045260246000fd5b600061119982610ede565b91506111a483610ede565b9250826111b4576111b361115f565b5b828206905092915050565b7f4e6565647320746f206265206d756c7469706c65206f66207374616b652e0000600082015250565b60006111f5601e83610f89565b9150611200826111bf565b602082019050919050565b60006020820190508181036000830152611224816111e8565b9050919050565b600061123682610ede565b915061124183610ede565b9250826112515761125061115f565b5b828204905092915050565b600061126782610d65565b915061127283610d65565b9250828203905060ff81111561128b5761128a6110de565b5b92915050565b7f4578616374206f72646572206e6f74206d65742e000000000000000000000000600082015250565b60006112c7601483610f89565b91506112d282611291565b602082019050919050565b600060208201905081810360008301526112f6816112ba565b9050919050565b600061130882610ede565b915061131383610ede565b925082820261132181610ede565b9150808214611333576113326110de565b5b5092915050565b6000819050919050565b61135561135082610e27565b61133a565b82525050565b60006113678284611344565b60208201915081905092915050565b600061138182610e27565b915061138c83610e27565b92508261139c5761139b61115f565b5b828206905092915050565b60006113b282610d65565b91506113bd83610d65565b9250828201905060ff8111156113d6576113d56110de565b5b92915050565b60006113e782610e27565b91506113f283610e27565b925082820190508082111561140a576114096110de565b5b9291505056fea2646970667358221220c7889bb0934d4d8353ff0ead62bf72f5983ea3035740c95ce7b2622f1d9ead8b64736f6c63430008110033",
  "linkReferences": {},
  "deployedLinkReferences": {}
}