{
  "_format": "hh-sol-artifact-1",
  "contractName": "Groat",
  "sourceName": "contracts/Groat.sol",
  "abi": [
    {
      "inputs": [
        {
          "internalType": "uint128",
          "name": "_stake",
          "type": "uint128"
        },
        {
          "internalType": "uint8",
          "name": "_maxPlayers",
          "type": "uint8"
        }
      ],
      "stateMutability": "nonpayable",
      "type": "constructor"
    },
    {
      "anonymous": false,
      "inputs": [
        {
          "indexed": false,
          "internalType": "address",
          "name": "",
          "type": "address"
        },
        {
          "indexed": false,
          "internalType": "uint8",
          "name": "",
          "type": "uint8"
        }
      ],
      "name": "Groated",
      "type": "event"
    },
    {
      "anonymous": false,
      "inputs": [
        {
          "indexed": false,
          "internalType": "uint8",
          "name": "",
          "type": "uint8"
        }
      ],
      "name": "Join",
      "type": "event"
    },
    {
      "anonymous": false,
      "inputs": [
        {
          "indexed": false,
          "internalType": "uint8",
          "name": "",
          "type": "uint8"
        }
      ],
      "name": "Leave",
      "type": "event"
    },
    {
      "anonymous": false,
      "inputs": [
        {
          "indexed": false,
          "internalType": "address",
          "name": "",
          "type": "address"
        },
        {
          "indexed": false,
          "internalType": "uint8",
          "name": "",
          "type": "uint8"
        }
      ],
      "name": "Winner",
      "type": "event"
    },
    {
      "inputs": [
        {
          "internalType": "bool",
          "name": "partialFulfill",
          "type": "bool"
        }
      ],
      "name": "depositEth",
      "outputs": [],
      "stateMutability": "payable",
      "type": "function"
    },
    {
      "inputs": [],
      "name": "groatAddress",
      "outputs": [
        {
          "internalType": "address",
          "name": "",
          "type": "address"
        }
      ],
      "stateMutability": "view",
      "type": "function"
    },
    {
      "inputs": [],
      "name": "groatIndex",
      "outputs": [
        {
          "internalType": "uint8",
          "name": "",
          "type": "uint8"
        }
      ],
      "stateMutability": "view",
      "type": "function"
    },
    {
      "inputs": [],
      "name": "maxPlayers",
      "outputs": [
        {
          "internalType": "uint8",
          "name": "",
          "type": "uint8"
        }
      ],
      "stateMutability": "view",
      "type": "function"
    },
    {
      "inputs": [],
      "name": "payout",
      "outputs": [
        {
          "internalType": "uint256",
          "name": "",
          "type": "uint256"
        }
      ],
      "stateMutability": "view",
      "type": "function"
    },
    {
      "inputs": [
        {
          "internalType": "uint8",
          "name": "",
          "type": "uint8"
        }
      ],
      "name": "queue",
      "outputs": [
        {
          "internalType": "address",
          "name": "",
          "type": "address"
        }
      ],
      "stateMutability": "view",
      "type": "function"
    },
    {
      "inputs": [],
      "name": "queuePtr",
      "outputs": [
        {
          "internalType": "uint8",
          "name": "",
          "type": "uint8"
        }
      ],
      "stateMutability": "view",
      "type": "function"
    },
    {
      "inputs": [
        {
          "internalType": "uint8",
          "name": "amount",
          "type": "uint8"
        }
      ],
      "name": "removeEntries",
      "outputs": [
        {
          "internalType": "uint8",
          "name": "",
          "type": "uint8"
        }
      ],
      "stateMutability": "nonpayable",
      "type": "function"
    },
    {
      "inputs": [],
      "name": "revealBlockNumber",
      "outputs": [
        {
          "internalType": "uint256",
          "name": "",
          "type": "uint256"
        }
      ],
      "stateMutability": "view",
      "type": "function"
    },
    {
      "inputs": [],
      "name": "stake",
      "outputs": [
        {
          "internalType": "uint128",
          "name": "",
          "type": "uint128"
        }
      ],
      "stateMutability": "view",
      "type": "function"
    }
  ],
  "bytecode": "0x6080604052600160005573dead000000000000000042069420694206942069600260006101000a81548173ffffffffffffffffffffffffffffffffffffffff021916908373ffffffffffffffffffffffffffffffffffffffff1602179055506001600360126101000a81548160ff021916908360ff1602179055503480156200008757600080fd5b5060405162001d9138038062001d918339818101604052810190620000ad9190620002f4565b6000826fffffffffffffffffffffffffffffffff161162000105576040517f08c379a0000000000000000000000000000000000000000000000000000000008152600401620000fc906200039c565b60405180910390fd5b60018160ff16116200014e576040517f08c379a000000000000000000000000000000000000000000000000000000000815260040162000145906200040e565b60405180910390fd5b60006001826200015f91906200045f565b60ff16836200016f9190620004ca565b6fffffffffffffffffffffffffffffffff1614620001c4576040517f08c379a0000000000000000000000000000000000000000000000000000000008152600401620001bb9062000552565b60405180910390fd5b81600360006101000a8154816fffffffffffffffffffffffffffffffff02191690836fffffffffffffffffffffffffffffffff16021790555080600360106101000a81548160ff021916908360ff1602179055506001816200022791906200045f565b60ff168262000237919062000574565b82620002449190620005ac565b6fffffffffffffffffffffffffffffffff166001819055505050620005f7565b600080fd5b60006fffffffffffffffffffffffffffffffff82169050919050565b620002908162000269565b81146200029c57600080fd5b50565b600081519050620002b08162000285565b92915050565b600060ff82169050919050565b620002ce81620002b6565b8114620002da57600080fd5b50565b600081519050620002ee81620002c3565b92915050565b600080604083850312156200030e576200030d62000264565b5b60006200031e858286016200029f565b92505060206200033185828601620002dd565b9150509250929050565b600082825260208201905092915050565b7f5374616b65206d757374206265206e6f6e2d7a65726f2e000000000000000000600082015250565b6000620003846017836200033b565b915062000391826200034c565b602082019050919050565b60006020820190508181036000830152620003b78162000375565b9050919050565b7f4d617820706c6179657273206d757374206265203e20312e0000000000000000600082015250565b6000620003f66018836200033b565b91506200040382620003be565b602082019050919050565b600060208201905081810360008301526200042981620003e7565b9050919050565b7f4e487b7100000000000000000000000000000000000000000000000000000000600052601160045260246000fd5b60006200046c82620002b6565b91506200047983620002b6565b9250828203905060ff81111562000495576200049462000430565b5b92915050565b7f4e487b7100000000000000000000000000000000000000000000000000000000600052601260045260246000fd5b6000620004d78262000269565b9150620004e48362000269565b925082620004f757620004f66200049b565b5b828206905092915050565b7f5374616b652073686f756c642062652064697669646564206576656e6c792e00600082015250565b60006200053a601f836200033b565b9150620005478262000502565b602082019050919050565b600060208201905081810360008301526200056d816200052b565b9050919050565b6000620005818262000269565b91506200058e8362000269565b925082620005a157620005a06200049b565b5b828204905092915050565b6000620005b98262000269565b9150620005c68362000269565b925082820190506fffffffffffffffffffffffffffffffff811115620005f157620005f062000430565b5b92915050565b61178a80620006076000396000f3fe6080604052600436106100915760003560e01c806359fe06e01161005957806359fe06e01461017f57806363bd1d4a146101aa5780636e1f7034146101d557806378b77a9414610200578063d69a18761461023d57610091565b8063056d9f28146100965780631eaeda03146100d35780632970ac44146100fe5780633a4b66f1146101295780634c2412a214610154575b600080fd5b3480156100a257600080fd5b506100bd60048036038101906100b89190610f91565b610259565b6040516100ca9190610fff565b60405180910390f35b3480156100df57600080fd5b506100e861028c565b6040516100f59190611033565b60405180910390f35b34801561010a57600080fd5b50610113610292565b604051610120919061105d565b60405180910390f35b34801561013557600080fd5b5061013e6102a5565b60405161014b91906110a3565b60405180910390f35b34801561016057600080fd5b506101696102c7565b604051610176919061105d565b60405180910390f35b34801561018b57600080fd5b506101946102da565b6040516101a1919061105d565b60405180910390f35b3480156101b657600080fd5b506101bf6102ed565b6040516101cc9190611033565b60405180910390f35b3480156101e157600080fd5b506101ea6102f3565b6040516101f79190610fff565b60405180910390f35b34801561020c57600080fd5b5061022760048036038101906102229190610f91565b610319565b604051610234919061105d565b60405180910390f35b610257600480360381019061025291906110f6565b610733565b005b60046020528060005260406000206000915054906101000a900473ffffffffffffffffffffffffffffffffffffffff1681565b60005481565b600360119054906101000a900460ff1681565b600360009054906101000a90046fffffffffffffffffffffffffffffffff1681565b600360109054906101000a900460ff1681565b600360129054906101000a900460ff1681565b60015481565b600260009054906101000a900473ffffffffffffffffffffffffffffffffffffffff1681565b6000808260ff1611610360576040517f08c379a000000000000000000000000000000000000000000000000000000000815260040161035790611180565b60405180910390fd5b6000600360119054906101000a900460ff169050600360109054906101000a900460ff1660ff168160ff16036103cb576040517f08c379a00000000000000000000000000000000000000000000000000000000081526004016103c2906111ec565b60405180910390fd5b73dead00000000000000004206942069420694206973ffffffffffffffffffffffffffffffffffffffff163373ffffffffffffffffffffffffffffffffffffffff160361041757600080fd5b6000805b8260ff168160ff1610801561043557508460ff168260ff16105b15610622573373ffffffffffffffffffffffffffffffffffffffff16600460008360ff1660ff16815260200190815260200160002060009054906101000a900473ffffffffffffffffffffffffffffffffffffffff1673ffffffffffffffffffffffffffffffffffffffff16146104b757806104b09061123b565b905061041b565b826104c190611264565b92508260ff168160ff161461056257600460008460ff1660ff16815260200190815260200160002060009054906101000a900473ffffffffffffffffffffffffffffffffffffffff16600460008360ff1660ff16815260200190815260200160002060006101000a81548173ffffffffffffffffffffffffffffffffffffffff021916908373ffffffffffffffffffffffffffffffffffffffff1602179055505b73dead000000000000000042069420694206942069600460008560ff1660ff16815260200190815260200160002060006101000a81548173ffffffffffffffffffffffffffffffffffffffff021916908373ffffffffffffffffffffffffffffffffffffffff160217905550806105d89061123b565b9050816105e49061123b565b91507fc5261cb694fa044aa236df31226959a7a2078d4eb090616ae7345a9ee9cfabc083604051610615919061105d565b60405180910390a161041b565b82600360116101000a81548160ff021916908360ff16021790555060003373ffffffffffffffffffffffffffffffffffffffff168360ff16600360009054906101000a90046fffffffffffffffffffffffffffffffff166fffffffffffffffffffffffffffffffff16610695919061128d565b6040516106a190611300565b60006040518083038185875af1925050503d80600081146106de576040519150601f19603f3d011682016040523d82523d6000602084013e6106e3565b606091505b5050905080610727576040517f08c379a000000000000000000000000000000000000000000000000000000000815260040161071e90611361565b60405180910390fd5b82945050505050919050565b600054431015610778576040517f08c379a000000000000000000000000000000000000000000000000000000000815260040161076f906111ec565b60405180910390fd5b60003490506000816fffffffffffffffffffffffffffffffff16116107d2576040517f08c379a00000000000000000000000000000000000000000000000000000000081526004016107c990611180565b60405180910390fd5b6000600360009054906101000a90046fffffffffffffffffffffffffffffffff16826107fe91906113b0565b6fffffffffffffffffffffffffffffffff1614610850576040517f08c379a00000000000000000000000000000000000000000000000000000000081526004016108479061142d565b60405180910390fd5b73dead00000000000000004206942069420694206973ffffffffffffffffffffffffffffffffffffffff163373ffffffffffffffffffffffffffffffffffffffff160361089c57600080fd5b6000600360119054906101000a900460ff1690506000600360109054906101000a900460ff1690508060ff168260ff16036108d657600091505b6000600360009054906101000a90046fffffffffffffffffffffffffffffffff1684610902919061144d565b905060008383610912919061147e565b905060008160ff168360ff1610610929578161092b565b825b9050868061093e57508260ff168160ff16145b61097d576040517f08c379a0000000000000000000000000000000000000000000000000000000008152600401610974906114ff565b60405180910390fd5b60008560ff16036109db578360ff164460405160200161099d9190611540565b6040516020818303038152906040528051906020012060001c6109c0919061155b565b600360126101000a81548160ff021916908360ff1602179055505b80856109e7919061158c565b945084600360116101000a81548160ff021916908360ff1602179055508360ff168560ff1603610a2557604b43610a1e91906115c1565b6000819055505b610a3b338287610a35919061147e565b87610b49565b8260ff168160ff161015610b405760003373ffffffffffffffffffffffffffffffffffffffff16600360009054906101000a90046fffffffffffffffffffffffffffffffff166fffffffffffffffffffffffffffffffff168386610a9f919061147e565b60ff16610aac919061128d565b604051610ab890611300565b60006040518083038185875af1925050503d8060008114610af5576040519150601f19603f3d011682016040523d82523d6000602084013e610afa565b606091505b5050905080610b3e576040517f08c379a0000000000000000000000000000000000000000000000000000000008152600401610b3590611641565b60405180910390fd5b505b50505050505050565b60008282610b57919061147e565b60ff1667ffffffffffffffff811115610b7357610b72611661565b5b604051908082528060200260200182016040528015610ba15781602001602082028036833780820191505090505b509050600083905060005b8360ff168260ff161015610cf057600460008360ff1660ff16815260200190815260200160002060009054906101000a900473ffffffffffffffffffffffffffffffffffffffff16838260ff1681518110610c0a57610c09611690565b5b602002602001019073ffffffffffffffffffffffffffffffffffffffff16908173ffffffffffffffffffffffffffffffffffffffff168152505085600460008460ff1660ff16815260200190815260200160002060006101000a81548173ffffffffffffffffffffffffffffffffffffffff021916908373ffffffffffffffffffffffffffffffffffffffff1602179055507f6f4b46fba5c342fb6b69eb728c76b9f0850713c7f1ee5ba47724a2349858ec7982604051610ccb919061105d565b60405180910390a181610cdd9061123b565b915080610ce99061123b565b9050610bac565b849150600090505b82518160ff161015610f4b576000838260ff1681518110610d1c57610d1b611690565b5b60200260200101519050600073ffffffffffffffffffffffffffffffffffffffff168173ffffffffffffffffffffffffffffffffffffffff1614158015610da3575073dead00000000000000004206942069420694206973ffffffffffffffffffffffffffffffffffffffff168173ffffffffffffffffffffffffffffffffffffffff1614155b15610f2d57600360129054906101000a900460ff1660ff168360ff1603610e435780600260006101000a81548173ffffffffffffffffffffffffffffffffffffffff021916908373ffffffffffffffffffffffffffffffffffffffff1602179055507f653072e8847022386c9de810b576409b500e1d279ae76f90e35b312e1e7574a58184604051610e369291906116bf565b60405180910390a1610f2c565b60008173ffffffffffffffffffffffffffffffffffffffff16600154604051610e6b90611300565b60006040518083038185875af1925050503d8060008114610ea8576040519150601f19603f3d011682016040523d82523d6000602084013e610ead565b606091505b5050905080610ef1576040517f08c379a0000000000000000000000000000000000000000000000000000000008152600401610ee890611734565b60405180910390fd5b7fe76b0aa2daa84efde70d6f999e732139a79b72f01fbf08e65857c3e86338e4938285604051610f229291906116bf565b60405180910390a1505b5b82610f379061123b565b925081610f439061123b565b915050610cf8565b505050505050565b600080fd5b600060ff82169050919050565b610f6e81610f58565b8114610f7957600080fd5b50565b600081359050610f8b81610f65565b92915050565b600060208284031215610fa757610fa6610f53565b5b6000610fb584828501610f7c565b91505092915050565b600073ffffffffffffffffffffffffffffffffffffffff82169050919050565b6000610fe982610fbe565b9050919050565b610ff981610fde565b82525050565b60006020820190506110146000830184610ff0565b92915050565b6000819050919050565b61102d8161101a565b82525050565b60006020820190506110486000830184611024565b92915050565b61105781610f58565b82525050565b6000602082019050611072600083018461104e565b92915050565b60006fffffffffffffffffffffffffffffffff82169050919050565b61109d81611078565b82525050565b60006020820190506110b86000830184611094565b92915050565b60008115159050919050565b6110d3816110be565b81146110de57600080fd5b50565b6000813590506110f0816110ca565b92915050565b60006020828403121561110c5761110b610f53565b5b600061111a848285016110e1565b91505092915050565b600082825260208201905092915050565b7f4e6565647320746f206265206e6f6e2d7a65726f2e0000000000000000000000600082015250565b600061116a601583611123565b915061117582611134565b602082019050919050565b600060208201905081810360008301526111998161115d565b9050919050565b7f47616d6520696e2070726f67726573732e000000000000000000000000000000600082015250565b60006111d6601183611123565b91506111e1826111a0565b602082019050919050565b60006020820190508181036000830152611205816111c9565b9050919050565b7f4e487b7100000000000000000000000000000000000000000000000000000000600052601160045260246000fd5b600061124682610f58565b915060ff82036112595761125861120c565b5b600182019050919050565b600061126f82610f58565b9150600082036112825761128161120c565b5b600182039050919050565b60006112988261101a565b91506112a38361101a565b92508282026112b18161101a565b915082820484148315176112c8576112c761120c565b5b5092915050565b600081905092915050565b50565b60006112ea6000836112cf565b91506112f5826112da565b600082019050919050565b600061130b826112dd565b9150819050919050565b7f5769746864726177616c206661696c65642e0000000000000000000000000000600082015250565b600061134b601283611123565b915061135682611315565b602082019050919050565b6000602082019050818103600083015261137a8161133e565b9050919050565b7f4e487b7100000000000000000000000000000000000000000000000000000000600052601260045260246000fd5b60006113bb82611078565b91506113c683611078565b9250826113d6576113d5611381565b5b828206905092915050565b7f4e6565647320746f206265206d756c7469706c65206f66207374616b652e0000600082015250565b6000611417601e83611123565b9150611422826113e1565b602082019050919050565b600060208201905081810360008301526114468161140a565b9050919050565b600061145882611078565b915061146383611078565b92508261147357611472611381565b5b828204905092915050565b600061148982610f58565b915061149483610f58565b9250828203905060ff8111156114ad576114ac61120c565b5b92915050565b7f4578616374206f72646572206e6f74206d65742e000000000000000000000000600082015250565b60006114e9601483611123565b91506114f4826114b3565b602082019050919050565b60006020820190508181036000830152611518816114dc565b9050919050565b6000819050919050565b61153a6115358261101a565b61151f565b82525050565b600061154c8284611529565b60208201915081905092915050565b60006115668261101a565b91506115718361101a565b92508261158157611580611381565b5b828206905092915050565b600061159782610f58565b91506115a283610f58565b9250828201905060ff8111156115bb576115ba61120c565b5b92915050565b60006115cc8261101a565b91506115d78361101a565b92508282019050808211156115ef576115ee61120c565b5b92915050565b7f526566756e64206661696c65642e000000000000000000000000000000000000600082015250565b600061162b600e83611123565b9150611636826115f5565b602082019050919050565b6000602082019050818103600083015261165a8161161e565b9050919050565b7f4e487b7100000000000000000000000000000000000000000000000000000000600052604160045260246000fd5b7f4e487b7100000000000000000000000000000000000000000000000000000000600052603260045260246000fd5b60006040820190506116d46000830185610ff0565b6116e1602083018461104e565b9392505050565b7f5472616e73666572206661696c65642e00000000000000000000000000000000600082015250565b600061171e601083611123565b9150611729826116e8565b602082019050919050565b6000602082019050818103600083015261174d81611711565b905091905056fea264697066735822122086f88f986fbfaafb114ee0322e81f3c551e904fe56838f976bdcb321a1396d2e64736f6c63430008110033",
  "linkReferences": {},
  "deployedLinkReferences": {}
}