{
  "_format": "hh-sol-artifact-1",
  "contractName": "Groat",
  "sourceName": "contracts/Groat.sol",
  "abi": [
    {
      "inputs": [
        {
          "internalType": "uint128",
          "name": "_stake",
          "type": "uint128"
        },
        {
          "internalType": "uint8",
          "name": "_maxPlayers",
          "type": "uint8"
        }
      ],
      "stateMutability": "nonpayable",
      "type": "constructor"
    },
    {
      "anonymous": false,
      "inputs": [
        {
          "indexed": true,
          "internalType": "address",
          "name": "groater",
          "type": "address"
        },
        {
          "indexed": false,
          "internalType": "uint8",
          "name": "",
          "type": "uint8"
        }
      ],
      "name": "Groated",
      "type": "event"
    },
    {
      "anonymous": false,
      "inputs": [
        {
          "indexed": true,
          "internalType": "address",
          "name": "joiner",
          "type": "address"
        },
        {
          "indexed": false,
          "internalType": "uint8",
          "name": "",
          "type": "uint8"
        }
      ],
      "name": "Join",
      "type": "event"
    },
    {
      "anonymous": false,
      "inputs": [
        {
          "indexed": true,
          "internalType": "address",
          "name": "leaver",
          "type": "address"
        },
        {
          "indexed": false,
          "internalType": "uint8",
          "name": "",
          "type": "uint8"
        }
      ],
      "name": "Leave",
      "type": "event"
    },
    {
      "anonymous": false,
      "inputs": [
        {
          "indexed": true,
          "internalType": "address",
          "name": "winner",
          "type": "address"
        },
        {
          "indexed": false,
          "internalType": "uint8",
          "name": "",
          "type": "uint8"
        }
      ],
      "name": "Winner",
      "type": "event"
    },
    {
      "inputs": [
        {
          "internalType": "bool",
          "name": "partialFulfill",
          "type": "bool"
        }
      ],
      "name": "depositEth",
      "outputs": [],
      "stateMutability": "payable",
      "type": "function"
    },
    {
      "inputs": [],
      "name": "groatAddress",
      "outputs": [
        {
          "internalType": "address",
          "name": "",
          "type": "address"
        }
      ],
      "stateMutability": "view",
      "type": "function"
    },
    {
      "inputs": [],
      "name": "groatIndex",
      "outputs": [
        {
          "internalType": "uint8",
          "name": "",
          "type": "uint8"
        }
      ],
      "stateMutability": "view",
      "type": "function"
    },
    {
      "inputs": [],
      "name": "maxPlayers",
      "outputs": [
        {
          "internalType": "uint8",
          "name": "",
          "type": "uint8"
        }
      ],
      "stateMutability": "view",
      "type": "function"
    },
    {
      "inputs": [],
      "name": "payout",
      "outputs": [
        {
          "internalType": "uint256",
          "name": "",
          "type": "uint256"
        }
      ],
      "stateMutability": "view",
      "type": "function"
    },
    {
      "inputs": [
        {
          "internalType": "uint8",
          "name": "",
          "type": "uint8"
        }
      ],
      "name": "queue",
      "outputs": [
        {
          "internalType": "address",
          "name": "",
          "type": "address"
        }
      ],
      "stateMutability": "view",
      "type": "function"
    },
    {
      "inputs": [],
      "name": "queuePtr",
      "outputs": [
        {
          "internalType": "uint8",
          "name": "",
          "type": "uint8"
        }
      ],
      "stateMutability": "view",
      "type": "function"
    },
    {
      "inputs": [
        {
          "internalType": "uint8",
          "name": "amount",
          "type": "uint8"
        }
      ],
      "name": "removeEntries",
      "outputs": [
        {
          "internalType": "uint8",
          "name": "",
          "type": "uint8"
        }
      ],
      "stateMutability": "nonpayable",
      "type": "function"
    },
    {
      "inputs": [],
      "name": "revealBlockNumber",
      "outputs": [
        {
          "internalType": "uint256",
          "name": "",
          "type": "uint256"
        }
      ],
      "stateMutability": "view",
      "type": "function"
    },
    {
      "inputs": [],
      "name": "stake",
      "outputs": [
        {
          "internalType": "uint128",
          "name": "",
          "type": "uint128"
        }
      ],
      "stateMutability": "view",
      "type": "function"
    }
  ],
  "bytecode": "0x608060405260016000556001600360126101000a81548160ff021916908360ff1602179055503480156200003257600080fd5b5060405162001d5f38038062001d5f83398181016040528101906200005891906200029f565b6000826fffffffffffffffffffffffffffffffff1611620000b0576040517f08c379a0000000000000000000000000000000000000000000000000000000008152600401620000a79062000347565b60405180910390fd5b60018160ff1611620000f9576040517f08c379a0000000000000000000000000000000000000000000000000000000008152600401620000f090620003b9565b60405180910390fd5b60006001826200010a91906200040a565b60ff16836200011a919062000475565b6fffffffffffffffffffffffffffffffff16146200016f576040517f08c379a00000000000000000000000000000000000000000000000000000000081526004016200016690620004fd565b60405180910390fd5b81600360006101000a8154816fffffffffffffffffffffffffffffffff02191690836fffffffffffffffffffffffffffffffff16021790555080600360106101000a81548160ff021916908360ff160217905550600181620001d291906200040a565b60ff1682620001e291906200051f565b82620001ef919062000557565b6fffffffffffffffffffffffffffffffff166001819055505050620005a2565b600080fd5b60006fffffffffffffffffffffffffffffffff82169050919050565b6200023b8162000214565b81146200024757600080fd5b50565b6000815190506200025b8162000230565b92915050565b600060ff82169050919050565b620002798162000261565b81146200028557600080fd5b50565b60008151905062000299816200026e565b92915050565b60008060408385031215620002b957620002b86200020f565b5b6000620002c9858286016200024a565b9250506020620002dc8582860162000288565b9150509250929050565b600082825260208201905092915050565b7f5374616b65206d757374206265206e6f6e2d7a65726f2e000000000000000000600082015250565b60006200032f601783620002e6565b91506200033c82620002f7565b602082019050919050565b60006020820190508181036000830152620003628162000320565b9050919050565b7f4d617820706c6179657273206d757374206265203e20312e0000000000000000600082015250565b6000620003a1601883620002e6565b9150620003ae8262000369565b602082019050919050565b60006020820190508181036000830152620003d48162000392565b9050919050565b7f4e487b7100000000000000000000000000000000000000000000000000000000600052601160045260246000fd5b6000620004178262000261565b9150620004248362000261565b9250828203905060ff81111562000440576200043f620003db565b5b92915050565b7f4e487b7100000000000000000000000000000000000000000000000000000000600052601260045260246000fd5b6000620004828262000214565b91506200048f8362000214565b925082620004a257620004a162000446565b5b828206905092915050565b7f5374616b652073686f756c642062652064697669646564206576656e6c792e00600082015250565b6000620004e5601f83620002e6565b9150620004f282620004ad565b602082019050919050565b600060208201905081810360008301526200051881620004d6565b9050919050565b60006200052c8262000214565b9150620005398362000214565b9250826200054c576200054b62000446565b5b828204905092915050565b6000620005648262000214565b9150620005718362000214565b925082820190506fffffffffffffffffffffffffffffffff8111156200059c576200059b620003db565b5b92915050565b6117ad80620005b26000396000f3fe6080604052600436106100915760003560e01c806359fe06e01161005957806359fe06e01461017f57806363bd1d4a146101aa5780636e1f7034146101d557806378b77a9414610200578063d69a18761461023d57610091565b8063056d9f28146100965780631eaeda03146100d35780632970ac44146100fe5780633a4b66f1146101295780634c2412a214610154575b600080fd5b3480156100a257600080fd5b506100bd60048036038101906100b89190610fdd565b610259565b6040516100ca919061104b565b60405180910390f35b3480156100df57600080fd5b506100e861028c565b6040516100f5919061107f565b60405180910390f35b34801561010a57600080fd5b50610113610292565b60405161012091906110a9565b60405180910390f35b34801561013557600080fd5b5061013e6102a5565b60405161014b91906110ef565b60405180910390f35b34801561016057600080fd5b506101696102c7565b60405161017691906110a9565b60405180910390f35b34801561018b57600080fd5b506101946102da565b6040516101a191906110a9565b60405180910390f35b3480156101b657600080fd5b506101bf6102ed565b6040516101cc919061107f565b60405180910390f35b3480156101e157600080fd5b506101ea6102f3565b6040516101f7919061104b565b60405180910390f35b34801561020c57600080fd5b5061022760048036038101906102229190610fdd565b610319565b60405161023491906110a9565b60405180910390f35b61025760048036038101906102529190611142565b61073e565b005b60046020528060005260406000206000915054906101000a900473ffffffffffffffffffffffffffffffffffffffff1681565b60005481565b600360119054906101000a900460ff1681565b600360009054906101000a90046fffffffffffffffffffffffffffffffff1681565b600360109054906101000a900460ff1681565b600360129054906101000a900460ff1681565b60015481565b600260009054906101000a900473ffffffffffffffffffffffffffffffffffffffff1681565b6000808260ff1611610360576040517f08c379a0000000000000000000000000000000000000000000000000000000008152600401610357906111cc565b60405180910390fd5b6000600360119054906101000a900460ff169050600360109054906101000a900460ff1660ff168160ff16036103cb576040517f08c379a00000000000000000000000000000000000000000000000000000000081526004016103c290611238565b60405180910390fd5b73dead00000000000000004206942069420694206973ffffffffffffffffffffffffffffffffffffffff163373ffffffffffffffffffffffffffffffffffffffff160361041757600080fd5b6000805b8260ff168160ff1610801561043557508460ff168260ff16105b1561062d573373ffffffffffffffffffffffffffffffffffffffff16600460008360ff1660ff16815260200190815260200160002060009054906101000a900473ffffffffffffffffffffffffffffffffffffffff1673ffffffffffffffffffffffffffffffffffffffff16146104b757806104b090611287565b905061041b565b826104c1906112b0565b92508260ff168160ff161461056257600460008460ff1660ff16815260200190815260200160002060009054906101000a900473ffffffffffffffffffffffffffffffffffffffff16600460008360ff1660ff16815260200190815260200160002060006101000a81548173ffffffffffffffffffffffffffffffffffffffff021916908373ffffffffffffffffffffffffffffffffffffffff1602179055505b3373ffffffffffffffffffffffffffffffffffffffff167f633d700f1d211efa578117ee47d33ab6c51fb605854853b0389f4f376cffa78c826040516105a891906110a9565b60405180910390a273dead000000000000000042069420694206942069600460008560ff1660ff16815260200190815260200160002060006101000a81548173ffffffffffffffffffffffffffffffffffffffff021916908373ffffffffffffffffffffffffffffffffffffffff1602179055508161062690611287565b915061041b565b82600360116101000a81548160ff021916908360ff16021790555060003373ffffffffffffffffffffffffffffffffffffffff168360ff16600360009054906101000a90046fffffffffffffffffffffffffffffffff166fffffffffffffffffffffffffffffffff166106a091906112d9565b6040516106ac9061134c565b60006040518083038185875af1925050503d80600081146106e9576040519150601f19603f3d011682016040523d82523d6000602084013e6106ee565b606091505b5050905080610732576040517f08c379a0000000000000000000000000000000000000000000000000000000008152600401610729906113ad565b60405180910390fd5b82945050505050919050565b600054431015610783576040517f08c379a000000000000000000000000000000000000000000000000000000000815260040161077a90611238565b60405180910390fd5b60003490506000816fffffffffffffffffffffffffffffffff16116107dd576040517f08c379a00000000000000000000000000000000000000000000000000000000081526004016107d4906111cc565b60405180910390fd5b6000600360009054906101000a90046fffffffffffffffffffffffffffffffff168261080991906113fc565b6fffffffffffffffffffffffffffffffff161461085b576040517f08c379a000000000000000000000000000000000000000000000000000000000815260040161085290611479565b60405180910390fd5b73dead00000000000000004206942069420694206973ffffffffffffffffffffffffffffffffffffffff163373ffffffffffffffffffffffffffffffffffffffff16036108a757600080fd5b6000600360119054906101000a900460ff1690506000600360109054906101000a900460ff1690508060ff168260ff16036108e157600091505b6000600360009054906101000a90046fffffffffffffffffffffffffffffffff168461090d9190611499565b90506000838361091d91906114ca565b905060008160ff168360ff16106109345781610936565b825b9050868061094957508260ff168160ff16145b610988576040517f08c379a000000000000000000000000000000000000000000000000000000000815260040161097f9061154b565b60405180910390fd5b60008560ff16036109e6578360ff16446040516020016109a8919061158c565b6040516020818303038152906040528051906020012060001c6109cb91906115a7565b600360126101000a81548160ff021916908360ff1602179055505b80856109f291906115d8565b945084600360116101000a81548160ff021916908360ff1602179055508360ff168560ff1603610a3057604b43610a29919061160d565b6000819055505b610a46338287610a4091906114ca565b87610b54565b8260ff168160ff161015610b4b5760003373ffffffffffffffffffffffffffffffffffffffff16600360009054906101000a90046fffffffffffffffffffffffffffffffff166fffffffffffffffffffffffffffffffff168386610aaa91906114ca565b60ff16610ab791906112d9565b604051610ac39061134c565b60006040518083038185875af1925050503d8060008114610b00576040519150601f19603f3d011682016040523d82523d6000602084013e610b05565b606091505b5050905080610b49576040517f08c379a0000000000000000000000000000000000000000000000000000000008152600401610b409061168d565b60405180910390fd5b505b50505050505050565b60008282610b6291906114ca565b60ff1667ffffffffffffffff811115610b7e57610b7d6116ad565b5b604051908082528060200260200182016040528015610bac5781602001602082028036833780820191505090505b509050600083905060005b8360ff168260ff161015610d1257600460008360ff1660ff16815260200190815260200160002060009054906101000a900473ffffffffffffffffffffffffffffffffffffffff16838260ff1681518110610c1557610c146116dc565b5b602002602001019073ffffffffffffffffffffffffffffffffffffffff16908173ffffffffffffffffffffffffffffffffffffffff168152505085600460008460ff1660ff16815260200190815260200160002060006101000a81548173ffffffffffffffffffffffffffffffffffffffff021916908373ffffffffffffffffffffffffffffffffffffffff1602179055503373ffffffffffffffffffffffffffffffffffffffff167feea93999f2203f0dd046674223b9fab69fba9d5be3b62338e414130538ab3f0f83604051610ced91906110a9565b60405180910390a281610cff90611287565b915080610d0b90611287565b9050610bb7565b849150600090505b82518160ff161015610f97576000838260ff1681518110610d3e57610d3d6116dc565b5b60200260200101519050600073ffffffffffffffffffffffffffffffffffffffff168173ffffffffffffffffffffffffffffffffffffffff1614158015610dc5575073dead00000000000000004206942069420694206973ffffffffffffffffffffffffffffffffffffffff168173ffffffffffffffffffffffffffffffffffffffff1614155b15610f7957600360129054906101000a900460ff1660ff168360ff1603610e7a5780600260006101000a81548173ffffffffffffffffffffffffffffffffffffffff021916908373ffffffffffffffffffffffffffffffffffffffff1602179055508073ffffffffffffffffffffffffffffffffffffffff167f653072e8847022386c9de810b576409b500e1d279ae76f90e35b312e1e7574a584604051610e6d91906110a9565b60405180910390a2610f78565b60008173ffffffffffffffffffffffffffffffffffffffff16600154604051610ea29061134c565b60006040518083038185875af1925050503d8060008114610edf576040519150601f19603f3d011682016040523d82523d6000602084013e610ee4565b606091505b5050905080610f28576040517f08c379a0000000000000000000000000000000000000000000000000000000008152600401610f1f90611757565b60405180910390fd5b8173ffffffffffffffffffffffffffffffffffffffff167fe76b0aa2daa84efde70d6f999e732139a79b72f01fbf08e65857c3e86338e49385604051610f6e91906110a9565b60405180910390a2505b5b82610f8390611287565b925081610f8f90611287565b915050610d1a565b505050505050565b600080fd5b600060ff82169050919050565b610fba81610fa4565b8114610fc557600080fd5b50565b600081359050610fd781610fb1565b92915050565b600060208284031215610ff357610ff2610f9f565b5b600061100184828501610fc8565b91505092915050565b600073ffffffffffffffffffffffffffffffffffffffff82169050919050565b60006110358261100a565b9050919050565b6110458161102a565b82525050565b6000602082019050611060600083018461103c565b92915050565b6000819050919050565b61107981611066565b82525050565b60006020820190506110946000830184611070565b92915050565b6110a381610fa4565b82525050565b60006020820190506110be600083018461109a565b92915050565b60006fffffffffffffffffffffffffffffffff82169050919050565b6110e9816110c4565b82525050565b600060208201905061110460008301846110e0565b92915050565b60008115159050919050565b61111f8161110a565b811461112a57600080fd5b50565b60008135905061113c81611116565b92915050565b60006020828403121561115857611157610f9f565b5b60006111668482850161112d565b91505092915050565b600082825260208201905092915050565b7f4e6565647320746f206265206e6f6e2d7a65726f2e0000000000000000000000600082015250565b60006111b660158361116f565b91506111c182611180565b602082019050919050565b600060208201905081810360008301526111e5816111a9565b9050919050565b7f47616d6520696e2070726f67726573732e000000000000000000000000000000600082015250565b600061122260118361116f565b915061122d826111ec565b602082019050919050565b6000602082019050818103600083015261125181611215565b9050919050565b7f4e487b7100000000000000000000000000000000000000000000000000000000600052601160045260246000fd5b600061129282610fa4565b915060ff82036112a5576112a4611258565b5b600182019050919050565b60006112bb82610fa4565b9150600082036112ce576112cd611258565b5b600182039050919050565b60006112e482611066565b91506112ef83611066565b92508282026112fd81611066565b9150828204841483151761131457611313611258565b5b5092915050565b600081905092915050565b50565b600061133660008361131b565b915061134182611326565b600082019050919050565b600061135782611329565b9150819050919050565b7f5769746864726177616c206661696c65642e0000000000000000000000000000600082015250565b600061139760128361116f565b91506113a282611361565b602082019050919050565b600060208201905081810360008301526113c68161138a565b9050919050565b7f4e487b7100000000000000000000000000000000000000000000000000000000600052601260045260246000fd5b6000611407826110c4565b9150611412836110c4565b925082611422576114216113cd565b5b828206905092915050565b7f4e6565647320746f206265206d756c7469706c65206f66207374616b652e0000600082015250565b6000611463601e8361116f565b915061146e8261142d565b602082019050919050565b6000602082019050818103600083015261149281611456565b9050919050565b60006114a4826110c4565b91506114af836110c4565b9250826114bf576114be6113cd565b5b828204905092915050565b60006114d582610fa4565b91506114e083610fa4565b9250828203905060ff8111156114f9576114f8611258565b5b92915050565b7f4578616374206f72646572206e6f74206d65742e000000000000000000000000600082015250565b600061153560148361116f565b9150611540826114ff565b602082019050919050565b6000602082019050818103600083015261156481611528565b9050919050565b6000819050919050565b61158661158182611066565b61156b565b82525050565b60006115988284611575565b60208201915081905092915050565b60006115b282611066565b91506115bd83611066565b9250826115cd576115cc6113cd565b5b828206905092915050565b60006115e382610fa4565b91506115ee83610fa4565b9250828201905060ff81111561160757611606611258565b5b92915050565b600061161882611066565b915061162383611066565b925082820190508082111561163b5761163a611258565b5b92915050565b7f526566756e64206661696c65642e000000000000000000000000000000000000600082015250565b6000611677600e8361116f565b915061168282611641565b602082019050919050565b600060208201905081810360008301526116a68161166a565b9050919050565b7f4e487b7100000000000000000000000000000000000000000000000000000000600052604160045260246000fd5b7f4e487b7100000000000000000000000000000000000000000000000000000000600052603260045260246000fd5b7f5472616e73666572206661696c65642e00000000000000000000000000000000600082015250565b600061174160108361116f565b915061174c8261170b565b602082019050919050565b6000602082019050818103600083015261177081611734565b905091905056fea2646970667358221220a4219fd6aab1d5ca4c2f0452dd5aadc07ac31fc992c0ff6235ba9b2c7fcdb24064736f6c63430008110033",
  "linkReferences": {},
  "deployedLinkReferences": {}
}